:020000040800F2
:10000000380800202902000823100008890500088C
:100010001F100008FB020008511A00080000000031
:1000200000000000000000000000000015110008A2
:10003000FF02000800000000B11000082D120008A7
:10004000430200084302000843020008430200087C
:10005000430200084302000843020008430200086C
:10006000430200084302000843020008430200085C
:10007000430200084302000843020008430200084C
:10008000430200084302000843020008430200083C
:10009000430200084302000843020008430200082C
:1000A00043020008AD14000843020008BD13000815
:1000B000430200084302000811150008430200082B
:1000C00043020008430200084302000843020008FC
:1000D00043020008430200084302000843020008EC
:1000E00043020008430200084302000843020008DC
:1000F00043020008430200084302000843020008CC
:10010000430200084302000881150008430200086A
:1001100043020008430200084302000843020008AB
:10012000430200084302000843020008430200089B
:10013000430200084302000843020008430200088B
:10014000430200084302000843020008430200087B
:10015000430200084302000843020008430200086B
:10016000430200084302000843020008430200085B
:10017000430200084302000843020008430200084B
:10018000430200084302000800F002F800F03CF8C7
:100190000AA090E8000C82448344AAF10107DA45E2
:1001A00001D100F031F8AFF2090EBAE80F0013F0F8
:1001B000010F18BFFB1A43F001031847A4420000C7
:1001C000C4420000103A24BF78C878C1FAD8520758
:1001D00024BF30C830C144BF04680C6070470000C1
:1001E0000023002400250026103A28BF78C1FBD840
:1001F000520728BF30C148BF0B6070471FB504F0DD
:10020000FAF81FBD10B510BD00F044F81146FFF715
:10021000F5FF02F08FFE00F062F803B4FFF7F2FF83
:1002200003BC00F063F80000094880470948004714
:10023000FEE7FEE7FEE7FEE7FEE7FEE7FEE7FEE796
:10024000FEE7FEE704480549054A064B70470000F3
:100250003112000889010008380200203808002007
:10026000380400203804002070477047704710B5EC
:1002700000F008F8006810BD10B5044600F002F860
:10028000046010BD00487047D80100200048704746
:10029000D80100207546FFF7F9FFAE460500694614
:1002A000534620F00700854618B020B5FFF7CAFF77
:1002B000BDE820404FF000064FF000074FF0000867
:1002C0004FF0000B21F00701AC46ACE8C009ACE8E8
:1002D000C009ACE8C009ACE8C0098D4670470446C7
:1002E000AFF300802046FFF798FF00000149182077
:1002F000ABBEFEE726000200704700BFFEE7704776
:1003000030B10749096841F48061054A116005E090
:100310000349096821F48061014A116070470000B7
:10032000003C024070B504460A460026092502B981
:1003300009E0012A01D1160205E0022A01D11602C4
:1003400001E04FF4407600F09FF80546092D28D1D2
:100350001548006820F4407013490860084600689A
:10036000304308600846006820F0F800086008463E
:10037000006844F0020108430B4908600846006821
:1003800040F48030086000F07FF8054606480068B9
:1003900020F00200044908600846006820F0F800D8
:1003A0000860284670BD0000103C02400920134937
:1003B000096801F48031B1F5803F01D101201CE0D2
:1003C0000E49096801F0100109B1062015E00B493A
:1003D000096801F4807109B102200EE0074909683B
:1003E00001F0EF0109B1072007E00449096801F0B5
:1003F000020109B1082000E0092070470C3C0240CE
:100400000348006840F00040014908607047000060
:10041000103C024030B502460C46092500F034F885
:100420000546092D19D10E48006820F440700C498A
:1004300008600846006840F40070086008460068DC
:1004400040F001000860146000F01EF80546044802
:10045000006820F0010002490860284630BD000015
:10046000103C02400548006800F0004028B10448F4
:1004700002490C390860034808607047103C02408C
:1004800023016745AB89EFCD08B509200090FFF740
:100490008DFF009002E0FFF789FF00909DF80000BB
:1004A0000128F8D09DF8000008BDF0B50A460021EB
:1004B0000023002400BF3DE0012505FA01F3156883
:1004C00005EA03049C4234D105684F000326BE4070
:1004D000B543056015794E00B540066835430560A3
:1004E0001579012D02D01579022D16D185684F009E
:1004F0000326BE40B543856055794E00B5408668F9
:1005000035438560456801268E40B54345604568A2
:1005100096798E40B6B235434560C5684F000326D4
:10052000BE40B543C560D5794E00B540C668354379
:10053000C560491C1029BFD3F0BDF0B500230024CD
:100540004D07ED0E02FA05F3CE1000F1200555F827
:1005500026504E07F70E0F26BE40B543CF1000F1D0
:10056000200646F82750CE1000F1200555F82650F9
:1005700045EA0304CE1000F1200545F82640F0BD01
:10058000418370470183704700BFFEE710B500202C
:100590000F4908600F48006820F440200D490860AA
:1005A0000846006840F48020086000200A49C1F82D
:1005B000A402022002F0AAF90120054908600220E5
:1005C00002F0A4F900200449C1F8A00210BD000007
:1005D000A082404200040240008040421CB501213C
:1005E000022000F067FD4FF44070009001208DF86C
:1005F000040000208DF8060003208DF8050001207E
:100600008DF8070069460548FFF74FFF01200449B0
:1006100008600449C1F8A4021CBD000000040240A7
:10062000A08240420080404210B500200F4908607F
:100630000F48006820F440200D4908600846006813
:1006400040F48020086001200A49C1F8A402022079
:1006500002F05CF9012005490860022002F056F919
:1006600000200449C1F8A00210BD0000A082404251
:10067000000402400080404270B505460024164840
:10068000006820F4402014490860084600680860AB
:10069000002616E0002011490860022002F036F919
:1006A00001200F49C1F8A0026006040E0B487C38F7
:1006B000006808B1601CC4B2012002F027F9701C68
:1006C000C6B2082EE6DB15B9FFF7AEFF01E0FFF773
:1006D0005DFF204670BD000000040240A082404241
:1006E0000080404270B504461548006820F4402060
:1006F000134908600846006840F480200860002024
:1007000010490860002517E0E0090E49091D08603E
:100710006006040E022002F0F9F801200A49C1F82F
:10072000A002022002F0F2F8002006490860022030
:1007300002F0ECF8681CC5B2082DE5DB70BD0000C6
:1007400000040240A08240420080404210B50F48A1
:10075000006820F440200D4908600846006840F415
:100760008020086001200A4908600A49C1F8A002F7
:10077000042002F0CBF8002005490860042002F0B4
:10078000C5F800200349C1F8A00210BD00040240D2
:10079000A48240420080404210B50F48006820F417
:1007A00040200D4908600846006840F48020086039
:1007B00000200A4908600A49C1F8A402042002F096
:1007C000A5F80120054908600549C1F8A4020420E4
:1007D00002F09CF810BD000000040240A0824042DC
:1007E0000080404210B500241348006820F44020E7
:1007F0001149086008460068086001200F49086038
:1008000002F084F801200E49C1F8A00202F07EF83F
:1008100007E0601CC4B2FA2C03DDFFF7BDFF012026
:1008200010BD0648803800680028F2D10349091F2E
:10083000086000BFF4E7000000040240A4824042C8
:100840000080404210B52DED108B86B0B0EE40AA6E
:10085000F0EE60AAB0EE41DAF0EE619AB0EE428AB4
:10086000F0EE628AD74C69EEA90A48EE080A48EE13
:10087000A80AB0EE600A02F0E7FAB0EE409A29EE5C
:10088000890AF0EE409A28EE090AB0EE408A28EE76
:10089000890AF0EE408A94ED150AD4ED170A20EE8D
:1008A000200AD4ED140A94ED161A00EEC10AF0EEF7
:1008B000000A20EE200AF0EE40DA94ED140AD4ED9E
:1008C000150A20EE200AD4ED160A94ED171A00EE50
:1008D000810AF0EE000A20EE200AB0EE40EA94ED24
:1008E000140A20EE000AD4ED150A94ED151A00EE54
:1008F000C10AD4ED160A94ED161A00EEC10AD4ED21
:10090000170A94ED171A00EE810AF0EE40EAA4F1FE
:100910004400C0ED489A80ED498AC0ED4A8AC0ED96
:100920004BDA80ED4CEAC0ED4DEA28EE2E0A08EED7
:10093000CE0A8DED040A28EEAD0A09EEEE0A8DED21
:10094000030A29EE8E0A08EE6D0A8DED020AD4ED37
:10095000180A9DED040A9FED9C1A40EE010AC4EDB1
:10096000180AD4ED190A9DED030A9FED971A40EE7F
:10097000010AC4ED190AD4ED1A0A9DED020A9FED91
:10098000921A40EE010AC4ED1A0A94ED150AB1EE6E
:10099000400A20EE0A0AD4ED160A00EEEA0AD4ED67
:1009A000170A00EECD0AD4ED140A9FED881A40EE26
:1009B000010AC4ED140A94ED140A20EE0A0AD4EDDB
:1009C000160A00EE8D0AD4ED170A00EEEA0AD4EDFD
:1009D000150A9FED7E1A40EE010AC4ED150A94ED4A
:1009E000140A20EE2A0AD4ED150A00EECD0AD4ED41
:1009F000170A00EE8A0AD4ED160A9FED741A40EE2B
:100A0000010AC4ED160A94ED140A20EE0D0AD4ED85
:100A1000150A00EEAA0AD4ED160A00EECA0AD4EDB1
:100A2000170A9FED6A1A40EE010AC4ED170AD4EDC9
:100A3000140A60EEA00A94ED151AD4ED151A41EED1
:100A4000210A94ED161AD4ED161A41EE210A94EDFE
:100A5000171AD4ED171A41EE210AB0EE600A02F01F
:100A6000F3F9B0EE409A94ED140A20EE090A84EDF1
:100A7000140A94ED150A20EE090A84ED150A94ED86
:100A8000160A20EE090A84ED160A94ED170A20EEE4
:100A9000090A84ED170A1EEE900A03F03BFCCDE92B
:100AA00000019DED000B00F0EFFFB0EE40CAF0EE4C
:100AB00060CA51EC1C0B02F087FE41EC1B0B9FED52
:100AC000440B53EC102B03F02FF941EC1F0B02F0F9
:100AD00087FE00EE100AA4F1440080ED460ABDEE48
:100AE000C00A10EE100A01B2A4F14400A0F81011DF
:100AF0001EEE100A03F00EFC41EC1F0BB0EE4F0A85
:100B0000F0EE6F0A00F0C0FFB0EE40BAF0EE60BA4F
:100B10009FED2F0B53EC102B51EC1B0B03F004F942
:100B200041EC1C0B02F05CFE00EE100AA4F1440044
:100B300080ED450ABDEEC00A10EE100A01B2A4F124
:100B40004400A0F80E111DEE900A03F0E3FB41EC07
:100B50001B0BB0EE4B0AF0EE6B0A00F095FFB0EE07
:100B600040CAF0EE60CA9FED1A0B53EC102B51EC0B
:100B70001C0B03F0D9F841EC1F0B02F031FEA4F17D
:100B80004401C1F81C01084690ED470AF2EE040A40
:100B900020EE200ABDEEC00A10EE100A01B2A4F148
:100BA0004400A0F81211B4F920004110A4F144004F
:100BB000A0F83A11E18BA0F83C1106B0BDEC108B07
:100BC00010BD0000680000200AD7A33B6F12033B52
:100BD00000000020DCA54C4010B52DED048BA44C8A
:100BE0006078217800EB012001B26184E078A1787F
:100BF00000EB012001B2A1846079217900EB012092
:100C0000404201B2E184607A217A00EB012000B217
:100C1000A083E07AA17A00EB012001B2E183607B3E
:100C2000217B00EB0120404201B22184B4F9200075
:100C300000EE100AB8EEC00AD4ED060A30EE600AE3
:100C400010EE101A084603F065FB41EC190B9FEDFE
:100C5000890B53EC102B03F067F841EC180B874815
:100C600090ED000B53EC102B51EC180B02F0EAFD49
:100C7000824A03C2B4F91C0000EE100AB8EEC00AA2
:100C8000D4ED040A30EE600ADFED7D0A20EE200A82
:100C900084ED0C0AB4F91E0000EE100AB8EEC00A8A
:100CA000D4ED050A30EE600ADFED750A20EE200A69
:100CB00084ED0D0AB4F9200000EE100AB8EEC00A67
:100CC000D4ED060A30EE600ADFED6D0A20EE200A50
:100CD00084ED0E0AB4F9220000EE100AB8EEC00A44
:100CE00084ED0F0AB4F9240000EE100AB8EEC00A31
:100CF00084ED100AB4F9260000EE100AB8EEC00A1E
:100D000084ED110AA07B00B394ED113AF0EE432A72
:100D100094ED103AB0EE432A94ED0F3AF0EE431AF8
:100D200094ED0E3AB0EE431A94ED0D3AF0EE430A0C
:100D300094ED0C3AB0EE430AB7EE004AF7EE003AF3
:100D4000B7EE003AFFF77EFD8FE0B4F920104D4872
:100D5000B0F900009638814217DDB4F920104948F7
:100D6000B0F90000963081420FDAB4F92000B0F5F6
:100D7000967F0ADAB4F9200010F5967F05DD424827
:100D80000088401C404908800EE000203E49088051
:100D90009FED3E0A84ED040A9FED3C0A84ED050AAE
:100DA0009FED3A0A84ED060A37480088C82828DDF6
:100DB00035480088B0F5167F23DCD4ED040AB4F979
:100DC0001C0000EE100AB8EEC00A30EE800A84ED76
:100DD000040AD4ED050AB4F91E0000EE100AB8EEBC
:100DE000C00A30EE800A84ED050AD4ED060AB4F993
:100DF000200000EE100AB8EEC00A30EE800A84ED42
:100E0000060A208C1F4908801F480088B0F5167F0D
:100E10002BDD0120A07394ED040ADFED1D0A80EEA6
:100E2000201A84ED041A94ED050ADFED190A80EE0C
:100E3000201A84ED051A94ED060ADFED150A80EEFE
:100E4000201A84ED061A94ED040A124880ED010A76
:100E500094ED050A80ED020A94ED060A80ED030A7E
:100E600002F09CFB002008490880BDEC048B10BDFB
:100E700068000020E91F7E100000003F18000020DD
:100E8000A8B38B39100000200E00002000000000E5
:100E90000000C8436401002070B50446FFF756FC0B
:100EA000D020FFF71FFCFFF79DFC2046FFF71AFC40
:100EB000FFF798FCFFF74AFCD120FFF713FCFFF780
:100EC00091FC0020FFF7D8FB0546FFF765FC28469C
:100ED00070BD2DE9F04106460F4614461D46FFF74A
:100EE00035FC002141EA4601C8B2FFF7FBFBFFF7E2
:100EF00079FC20B1FFF750FC0120BDE8F0813846B5
:100F0000FFF7F0FBFFF76EFCFFF720FC012101EB80
:100F10004601C8B2FFF7E6FBFFF764FC0DE0012CC9
:100F200004D10020FFF7A8FB287003E00120FFF7A1
:100F3000A3FB2870601EC4B26D1C002CEFD1FFF71C
:100F40002BFC0020D9E710B50446E006010E1C205A
:100F500000F043F810BD10B50446E006010E1B205A
:100F600000F03BF810BD70B504460025BC2C01DB39
:100F7000012510E0622C01DB02250CE02A2C01DBAC
:100F8000032508E0142C01DB042504E00A2C01DB16
:100F9000052500E0062529461A2000F01EF870BD40
:100FA00070B50446B4F57A7F01DD4FF47A74042CF1
:100FB00000DA04244FF47A7090FBF4F0401EC5B2BE
:100FC0002946192000F009F80546264604EBD6719B
:100FD000C1F34F00FFF7C7FF70BD70B505460C4663
:100FE000FFF7B4FBD020FFF77DFBFFF7FBFB18B149
:100FF000FFF7D2FB012070BD2846FFF773FBFFF718
:10100000F1FB2046FFF76EFBFFF7ECFB18B1FFF793
:10101000C3FB0120EFE7FFF7BFFB0020EBE700BFBA
:10102000FEE7704770B5002100230F22C4781CB37F
:10103000174C246804F4E064C4F5E064C4F30721A9
:10104000C1F10404E3B20A4144789C40E1B28478DF
:10105000144021430C07210E0E4C0578615504788D
:1010600004F01F050124AC4005786D11AD0005F1B9
:10107000E025C5F8004109E0047804F01F050124CB
:10108000AC40054D0678761145F8264070BD00004D
:101090000CED00E000E400E080E100E002490143E3
:1010A000024A1160704700000000FA050CED00E0F4
:1010B0007047000029B1064A12680243044B1A60C7
:1010C00004E0034A12688243014B1A607047000033
:1010D0003038024029B1064A12680243044B1A60B4
:1010E00004E0034A12688243014B1A607047000013
:1010F0004038024029B1064A12680243044B1A6084
:1011000004E0034A12688243014B1A6070470000F2
:1011100044380240704700000CB500200190009058
:101120003448006840F480303249086000BF3148DC
:10113000006800F4003000900198401C0190009875
:1011400018B90198B0F5A04FF1D12A48006800F411
:10115000003010B10120009001E0002000900098C4
:10116000012846D123484030006840F08050214992
:10117000403108602048006840F440401E49086043
:101180001C48083000681B490831086008460068A0
:1011900040F4004008600846006840F4A050086031
:1011A0001648091F0860081F006840F08070091F7A
:1011B000086000BF0F48006800F000700028F9D0F8
:1011C00040F205700E4908600A480830006820F0B7
:1011D00003000849083108600846006840F0020032
:1011E000086000BF03480830006800F00C000828C1
:1011F000F8D10CBD00380240007000400854400790
:10120000003C0240042808D14FF0E021096941F078
:1012100004014FF0E022116107E04FF0E02109697D
:1012200021F004014FF0E022116170477047000087
:1012300010B51548006840F4700013490860134861
:10124000006840F001001149086000200F49083192
:1012500008600E4800680E4908400C4908600D48B7
:10126000091D0860081F006820F48020091F08601D
:10127000002006490C310860FFF74EFF4FF0006078
:1012800001498039086010BD88ED00E00038024057
:10129000FFFFF6FE10300024F0B50C461546002185
:1012A0000022068C4FF6FE773E400684018B028CAE
:1012B0004FF60C7631407E1C06EA03162E4331436E
:1012C0004FF6F576324044F0010632430183028442
:1012D000F0BDF0B50C461546002100220026078C13
:1012E0004FF6EF7C07EA0C070784018B028C4FF660
:1012F000FF7707EA041640F6FF4739404FF6FF77BD
:1013000007EA033739434FF6FF7707EA05273943E2
:101310004FF65F773A4046F010073A430183028464
:10132000F0BDF0B50C461546002100220026078CC2
:101330004FF6FF6C07EA0C070784818B028C4FF68F
:10134000FF7707EA04264FF60C7739404FF6FF7710
:1013500007EA03172F4339434FF2FF573A4046F449
:1013600080773A4381830284F0BDF0B50C46154680
:10137000002100220026078C4EF6FF7C07EA0C07AE
:101380000784818B028C4FF6FF7707EA043640F61C
:10139000FF4739404FF6FF7707EA052739434FF6F5
:1013A000FF7707EA0337394345F6FF773A4046F4BB
:1013B00080573A4381830284F0BD000010B5384C59
:1013C0000221384800F026F9012864D13648006827
:1013D00060B10221334800F0ADF90021314800F03E
:1013E000C6FA207840F01000207054E02D4800F03C
:1013F0000EF9608000212B4800F09CF9207800F065
:10140000100000B3207800F0800078B36088B0F559
:10141000967F09DD6088B0F5487F05DA6068400096
:1014200060606068606032E06088B0F5AF6F0BDDCF
:101430006088B0F5E16F07DA60684000606060685E
:1014400040F00100606022E0608840F69801884228
:101450001DDD608840F62821884218DA6078401C3B
:101460006070207800F0F000207010E0FFE76088E6
:1014700041F2680188420ADD608841F25C218842BD
:1014800005DA207840F0800020700020607020781D
:1014900020F0100020700221024800F0A9F810BDD1
:1014A00004010020000001402002404210B5164C0B
:1014B0000121164800F0AEF8012820D1207800F074
:1014C0008000E0B1207820F010002070207800F03B
:1014D0000F0018B9207840F040002070207800F00C
:1014E0000F000E2803DA2078401C207007E02078D7
:1014F00020F080002070207800F0F00020700121A2
:10150000024800F075F810BD040100200000014001
:1015100010B50121164800F07DF8012822D11548A8
:101520000068401C13490860084600686421B0FB4D
:10153000F1F201FB120020B90F480068401C0E496F
:1015400008600C4800684FF4C871B0FBF1F201FB71
:10155000120028B90948007880F001000749087096
:1015600001F08EFA0121024800F042F810BD00009F
:101570000008004004000020080000200D000020AA
:1015800010B5124C0221124800F044F8012817D17E
:101590001048006850B102210D4800F0CBF800213E
:1015A0000B4800F0E4F90120A07009E0A07838B100
:1015B000074800F02CF8A080012060700020A07087
:1015C0000221034800F014F810BD0000D4000020F0
:1015D000000C00400002404221B1028842F080022B
:1015E000028004E002884FF67F731A400280704741
:1015F000CA430282704721B1028842F00102028090
:1016000004E002884FF6FE731A40028070470146DC
:10161000486B704730B50246002000230024158A2D
:1016200005EA0103958905EA010413B10CB1012013
:1016300000E0002030BD70B505460C46208850B94A
:101640002389A28861882846FFF726FEE18828467C
:1016500000F08FF925E0208804280AD12389A28888
:1016600061882846FFF735FEE188284600F08AF9B0
:1016700017E0208808280AD12389A2886188284693
:10168000FFF74FFEE188284600F089F909E0238939
:10169000A28861882846FFF768FEE188284600F0A6
:1016A00087F970BD1AB183890B43838102E0838976
:1016B0008B4383817047000070B500240022002313
:1016C000058C4FF6FE7635400584028C8388048BAA
:1016D0004FF68F752C40B51E2C400D882C43751E7F
:1016E0002A408D892A434D882A43104DA84202D0B2
:1016F0000F4DA84213D14FF6F7752A40CD892A43E2
:101700004FF6FB752A408D882A434FF6FF652B4024
:101710004FF6FF552B400D8A2B434D8A2B43838078
:1017200004838D684563028470BD000000000140A1
:10173000000401400A460021018C4FF6FD73194058
:101740001143018470470A460021018B4FF6F7735D
:10175000194011430183704770B500240022002313
:10176000058C4FF6EF7635400584028C8388048B18
:1017700048F6FF752C404FF6FF452C400D884FF67C
:10178000FF7606EA05252C434FF6DF752A408D8942
:1017900006EA05152A434D8806EA05152A43154D24
:1017A000A84202D0144DA8421DD14FF67F752A40A1
:1017B000CD894FF6FF7606EA05152A434FF6BF7529
:1017C0002A408D8806EA05152A434FF6FF352B403F
:1017D0004FF2FF752B400D8A06EA85052B434D8A93
:1017E00006EA85052B43838004838D688563028424
:1017F00070BD000000000140000401400A460021C5
:10180000018B4FF2FF7319404FF6FF7303EA022377
:10181000194301837047000070B5002400220023A3
:10182000058C4FF6FF6635400584028C8388848BD7
:101830004FF68F752C404FF6FC752C400D882C43CD
:101840004FF6FF552A408D894FF6FF7606EA0525AB
:101850002A434D8806EA05252A43154DA84202D0A1
:10186000144DA8421DD14FF2FF752A40CD894FF685
:10187000FF7606EA05252A434FF6FF352A408D8874
:1018800006EA05252A434EF6FF752B404DF6FF75F7
:101890002B400D8A06EA05152B434D8A06EA0515ED
:1018A0002B43838084838D68C563028470BD0000F0
:1018B00000000140000401400A460021818B4FF6E0
:1018C000F7731940114381837047000070B50022FF
:1018D00000230024058C4EF6FF7635400584038CEA
:1018E0008488828B48F6FF752A404FF6FF452A40D0
:1018F0000D884FF6FF7606EA05252A434DF6FF755B
:101900002B408D8906EA05352B434D8806EA0535BF
:101910002B430A4DA84202D0094DA84208D14BF6EC
:10192000FF752C400D8A4FF6FF7606EA85152C438D
:10193000848082838D680564038470BD000001404B
:10194000000401400A460021818B4FF2FF731940C9
:101950004FF6FF7303EA0223194381837047416303
:10196000704781637047C16370470164704741628B
:101970007047028B4FF6F3731A400283028B0A43BF
:1019800002837047028B4FF2FF331A400283028BAF
:101990004FF6FF7303EA01231A4302837047828BD9
:1019A0004FF6F3731A408283828B0A438283704717
:1019B000828B4FF2FF331A408283828B4FF6FF7384
:1019C00003EA01231A438283704700000022028841
:1019D000184B98420ED0184B98420BD0B0F1804F64
:1019E00008D0164B984205D0154B984202D0154BA3
:1019F000984204D14FF68F731A404B881A43124B0A
:101A0000984207D0114B984204D04FF6FF431A403A
:101A10000B891A4302804B68C3620B880385054B10
:101A2000984202D0044B984201D18B7A038601235D
:101A30008382704700000140000401400004004020
:101A400000080040000C004000100040001400405E
:101A500000BFFEE703B401984100009850EAC1209E
:101A600018BF04204A0D18BF40F0010040F2FF7279
:101A7000B2EB515F08BF40F00200012808BF05200B
:101A800002B070470000000070B5C1482DED020B98
:101A90002DED0E8B82B0119D25F000449FEDBEDB35
:101AA0009FEDBFEB84423EDBA4F140511098A1F1C1
:101AB0007F6108430FD0BC48844202DC28D11098D3
:101AC00030B39DED100B02B0BDEC0E8B02B0BDE843
:101AD000704000F005BA9DED100B53EC1D2B51EC3E
:101AE000100B02F021F99DED100B41EC180B53EC9B
:101AF0001E2B51EC100B02F017F953EC182B01F0D0
:101B0000A1FE41EC100B02B0BDEC0E8B02B070BD1B
:101B10000120FEF7B1FB02B0BDEC0E8B02B0BDE8B8
:101B2000704000F0E9B9A1489FEDA18B844256DADC
:101B30009DED100BB4F1795F0ADA51EC100BFFF751
:101B400089FF042808BF00F0E7F99DED100BDAE7E4
:101B500053EC102B51EC100B02F0E6F841EC190B92
:101B600095480621B0EE490AF0EE690A784400F083
:101B70003BF953EC192B51EC100B02F0D5F841EC6A
:101B80001A0B8E48B0EE490AF0EE690A0421784437
:101B900000F02AF953EC192B51EC100B02F0C4F8A9
:101BA00053EC182B01F04EFE41EC100B51EC1A0BCC
:101BB00053EC102B01F0FAFECDE900019DED000B76
:101BC00053EC102B9DED100B51EC100B02F0ACF808
:101BD0009DED101B53EC112B01F034FED2E09DED76
:101BE000100B51EC100B00F0DDFE53EC182B02F043
:101BF000CFF99FED730BCDE9000153EC102B9DED58
:101C0000000B51EC100B02F08FF841EC190B6E48F1
:101C10000621B0EE490AF0EE690A784400F0E4F8D3
:101C200053EC192B51EC100B02F07EF841EC1B0B1E
:101C30006648B0EE490AF0EE690A0421784400F0E3
:101C4000D3F853EC192B51EC100B02F06DF853EC58
:101C5000182B01F0F7FD41EC1C0B51EC190B01F0B6
:101C6000D9FB41EC180B5A489FED5BABA04222DC3C
:101C700053EC1C2B51EC1B0B01F098FECDE900013D
:101C80009DED000B51EC180B53EC102B02F04CF8AF
:101C900053EC182B01F0D6FD53EC1A2B02F044F84C
:101CA00053EC1D2B02F04CFA53EC1E2B02F070F992
:101CB00041EC100B5FE08DED008B002000909DED5E
:101CC000000B51EC180B53EC102B01F0BBFD9DEDFC
:101CD000000B41EC1E0B53EC102B51EC100B02F0DF
:101CE00023F853EC192B02F053F953EC1E2B01F09F
:101CF0005DFE41EC190B53EC1C2B51EC1B0B01F05E
:101D000055FE41EC1B0B53EC1A2B51EC190B02F056
:101D10000BF853EC1D2B02F03BF941EC190B53EC83
:101D20001A2B51EC180B01F0FFFF53EC1B2B01F0A9
:101D3000FBFF53EC192B02F003FA9DED000B41EC75
:101D4000180B53EC1A2B51EC100B01F0EDFF9FED2B
:101D5000249B53EC192B02F01BF941EC100B51ECB6
:101D6000180B53EC102B02F0EBF953EC192B02F08B
:101D70000FF941EC100B002D3FF7C5AE51EC100BE5
:101D800001F022FD41EC100BBDE600000000000058
:101D90000000F03F00000000075C143326A6913CD1
:101DA000182D4454FB21F93F0000F07F0000E03F74
:101DB000000000000000F03FA0280000AE28000056
:101DC000000000000000E03FF227000000280000B3
:101DD0003333EF3F0000000000000000000000402F
:101DE000182D4454FB21E93F70B504462DED028BBC
:101DF0004D1E00EBC500B0EE408AF0EE608A90ED1B
:101E0000000B35F0060017D053EC182B51EC100BDB
:101E100001F08AFF41EC100B6D1E04EBC50090ED44
:101E2000001B51EC100B53EC112B01F00BFD41EC9E
:101E3000100B35F00600E7D1022D36D0042D1CD052
:101E4000062D1CBFBDEC028B70BD53EC182B51EC62
:101E5000100B01F069FF94ED0A1B53EC112B01F0FC
:101E6000F1FC53EC182B01F05FFF94ED081B53ECD1
:101E7000112B01F0E7FC41EC100B53EC182B51EC4B
:101E8000100B01F051FF94ED061B53EC112B01F0E8
:101E9000D9FC53EC182B01F047FF94ED040B53ECE5
:101EA000102B01F0CFFC41EC100B53EC182B51EC34
:101EB000100B01F039FF94ED021B53EC112B01F0D4
:101EC000C1FC53EC182B01F02FFF94ED001B53ECD9
:101ED000112B01F0B7FCBDEC028B41EC100B70BD77
:101EE00010B553EC102B51EC100B01F0ABFC41EC96
:101EF000100B10BD000000009FED050B10B553EC5A
:101F0000102B51EC100B01F051FD41EC100B10BDEA
:101F100000000000000000009FED050B10B553EC21
:101F2000102B51EC100B01F0FFFE41EC100B10BD1B
:101F3000000000000000001070B52DED028B964CE3
:101F4000964DA5F11C06A079092876D2DFE800F0AD
:101F5000051B3B5B7C9CAFC7FC0095ED000ADFEDE9
:101F6000900AB4EEE00AF1EE10FA03DD002001F071
:101F7000FBF907E0042001F0F7F90120A07189487E
:101F80000068E06003E19FED880A01F013FA8549DB
:101F9000E0680968081AB0F5966F13D995ED000A44
:101FA000DFED820AB4EEE00AF1EE10FA05DD012061
:101FB0007F4908700620A07104E00220A0717948D2
:101FC0000068E060E3E09FED7B0A01F0F3F97549FA
:101FD000E0680968081AB0F5966F13D995ED000A04
:101FE000DFED720AB4EEE00AF1EE10FA05DDFF2033
:101FF0006F4908700620A07104E00320A0716948B1
:102000000068E060C3E09FED6C0A01F0D3F9654918
:10201000E0680968081AB0F5966F14D995ED000AC2
:10202000DFED620AB4EEE00AF1EE10FA06DDFE2002
:102030005F4908700620A07105E0A7E00420A071A8
:1020400058480068E060A2E09FED5C0A01F0B2F938
:102050005449E0680968081AB0F5966F13D995EDF0
:10206000000ADFED520AB4EEE00AF1EE10FA05DDE7
:1020700002204F4908700620A07104E00520A071DD
:1020800048480068E06082E0012001F06DF94549B0
:10209000E0680968081AB0F5966F07D9042001F0C6
:1020A00063F90120A0713F480068E0606FE09FED98
:1020B000440A01F07FF99FED430B444880ED000B8B
:1020C0003B4890F90000002803DD032001F04CF9A3
:1020D00002E0022001F048F90720A07157E03448DF
:1020E00090F90000002814DD314991F90010C1EB8E
:1020F000011101EB410001F0B1FD41EC180B334837
:1021000090ED000B53EC102B51EC180B01F0D0FDAF
:1021100019D9274890F90000002822DA244991F9BA
:102120000010C1EB011101EB410001F097FD41EC02
:10213000180B264890ED000B53EC102B51EC180BAC
:1021400001F0F0FE0DD800E00CE09FED1D0A01F05B
:1021500031F9042001F008F912480068E060082015
:10216000A07114E096ED000ADFED150AB4EE600AE6
:10217000F1EE10FA05D1307A022802D10020A071C8
:1021800003E09FED0F0A01F015F900E000BF00BF6A
:10219000BDEC028B70BD0000AC0100202C010020C2
:1021A0000000484208000020000034420000C842FD
:1021B000200000200000074300003443000000001E
:1021C0000000B442000000000000000018000020E1
:1021D00010B508484078022803D10221032000F0FE
:1021E0001DFC04484078012803D10121032000F0A0
:1021F00015FC10BDAC01002000B587B001211020F6
:10220000FEF758FF01210220FEF754FF0121202094
:10221000FEF750FF4CF2A000059001208DF8180049
:1022200000208DF81A0001208DF81B0003208DF886
:10223000190005A91B48FEF738F94CF2A00119480E
:10224000FEF79EF97020039001208DF81000002009
:102250008DF8120001208DF8130003208DF8110075
:1022600003A91148FEF721F970210F48FEF788F9FC
:102270004FF42840019001208DF8080000208DF8CF
:102280000A0001208DF80B0003208DF8090001A938
:102290000648FEF70AF94FF428410448FEF770F9A2
:1022A00007B000BD000402400010024000140240CC
:1022B00010B500F08DFD00F02DFF012031490870B0
:1022C000314848604FF400613048FEF759F9102159
:1022D0002F48FEF755F900BF4FF480412D48FEF717
:1022E0004FF94FF400412B48FEF74AF900BF00BFF9
:1022F0004FF400512548FEF743F94FF400412348BD
:10230000FEF73EF900BF00BF80212248FEF738F9F2
:1023100020212048FEF734F900BF00BF20211C48CF
:10232000FEF72EF940211A48FEF72AF900BF0020D7
:1023300001F00CF8002000F0FBFF002001F02CF869
:10234000002001F01BF804200E49087200210D48FE
:102350008172C160042180F828109FED0F0A80ED82
:102360003B0A4FF4AF61A0F8F010002180F8F5109F
:1023700080F80011052180F8E810B7EE000A80ED22
:10238000250A10BD24000020740100200014024022
:1023900000100240000402400000B44210B500F0FA
:1023A00045FC10BD10B54FF400612248FEF7EAF875
:1023B00010212148FEF7E6F800BF4FF400411F4806
:1023C000FEF7E0F84FF480411C48FEF7D9F800BF53
:1023D00000BF4FF400411748FEF7D4F84FF4005106
:1023E0001448FEF7CDF800BF00BF20211348FEF7C8
:1023F000C9F880211148FEF7C3F800BF00BF2021B3
:102400000D48FEF7BFF840210B48FEF7B9F800BFB2
:102410004FF4966000F09AFF4FF4966000F088FF4A
:102420004FF4966000F0B8FF4FF4966000F0A6FFFE
:1024300010BD0000001402400010024000040240E1
:1024400010B54FF400612248FEF79CF81021214896
:10245000FEF798F800BF4FF480411F48FEF792F84E
:102460004FF400411C48FEF78BF800BF00BF4FF44B
:1024700000511748FEF786F84FF400411448FEF764
:102480007FF800BF00BF80211348FEF77BF82021B2
:102490001148FEF775F800BF00BF40210D48FEF758
:1024A00071F820210B48FEF76BF800BF4FF49660DF
:1024B00000F04CFF4FF4966000F03AFF4FF4966046
:1024C00000F06AFF4FF4966000F058FF10BD000066
:1024D00000140240001002400004024010B5002029
:1024E00000F034FF002000F023FF002000F054FF34
:1024F000002000F043FF10BD10B54FF400612048EC
:10250000FEF73EF810211F48FEF73AF800BF4FF4DF
:1025100080411D48FEF734F84FF400411A48FEF799
:102520002FF800BF00BF4FF400511548FEF728F800
:102530004FF400411248FEF723F800BF00BF80218E
:102540001148FEF71DF820210F48FEF719F800BFCB
:1025500000BF20210B48FEF713F840210948FEF781
:102560000FF800BF002000F0F1FE002000F0E0FEB8
:10257000002000F011FF002000F000FF10BD00005F
:1025800000140240001002400004024010B54FF455
:1025900000612148FDF7F6FF10212048FDF7F0FF0C
:1025A00000BF4FF480411E48FDF7ECFF4FF400419F
:1025B0001B48FDF7E5FF00BF00BF4FF40051164870
:1025C000FDF7E0FF4FF400411348FDF7D9FF00BFCE
:1025D00000BF20211248FDF7D5FF80211048FDF7EC
:1025E000CFFF00BF00BF20210C48FDF7CBFF4021EB
:1025F0000A48FDF7C5FF00BF40F26C7000F0A6FE70
:1026000040F26C7000F094FE002000F0C5FE002047
:1026100000F0B4FE10BD00000014024000100240A3
:102620000004024010B54FF400612148FDF7A8FFF7
:1026300010212048FDF7A6FF00BF4FF400411E48BF
:10264000FDF7A0FF4FF480411B48FDF799FF00BF45
:1026500000BF4FF400411648FDF794FF4FF40051BE
:102660001348FDF78DFF00BF00BF80211248FDF722
:1026700089FF20211048FDF783FF00BF00BF4021E4
:102680000C48FDF77FFF20210A48FDF779FF00BFC6
:10269000002000F05BFE002000F04AFE40F26C706B
:1026A00000F07AFE40F26C7000F068FE10BD000091
:1026B00000140240001002400004024070B5074CB4
:1026C00004F12005227804F10C0151F82200804722
:1026D0002A78291D51F82200804770BD2C00002067
:1026E000134800F12001827822B1012A12D0062A73
:1026F0001BD119E00A78042A09D005220A700D4A74
:10270000126802F57A7242600122827001E00122B1
:1027100082700BE0074B42681B689A4203D200228A
:102720000A700622827001E000E000BF00BF70471F
:102730002C00002008000020134800F120018278BE
:1027400022B1022A12D0062A1BD119E00A78042AE3
:1027500009D005220A700D4A126802F57A724260A9
:102760000222827001E0022282700BE0074B426875
:102770001B689A4203D201220A700622827001E08D
:1027800000E000BF00BF70472C00002008000020C0
:10279000134800F12001827822B1052A12D0062ABE
:1027A0001BD119E00A78042A09D005220A700D4AC3
:1027B000126802F57A7242600522827001E00522F9
:1027C00082700BE0074B42681B689A4203D20422D6
:1027D0000A700622827001E000E000BF00BF70476F
:1027E0002C00002008000020134800F1200182780E
:1027F00022B1032A12D0062A1BD119E00A78042A32
:1028000009D005220A700D4A126802F57A724260F8
:102810000322827001E0032282700BE0074B4268C2
:102820001B689A4203D202220A700622827001E0DB
:1028300000E000BF00BF70472C000020080000200F
:10284000134800F12001827822B1042A12D0062A0E
:102850001BD119E00A78042A09D005220A700D4A12
:10286000126802F57A7242600422827001E004224A
:1028700082700BE0074B42681B689A4203D2032226
:102880000A700622827001E000E000BF00BF7047BE
:102890002C0000200800002010B504466FF0040052
:1028A000FEF7B0FCE11704EB5171C1F3C701074A11
:1028B00011701046007800EB4001C1EBC0104FF6DC
:1028C000FF7101EAC0000249088010BD000000202D
:1028D0000200002070B504464FF4077094FBF0F03E
:1028E000C6B24FF4077094FBF0F100FB114085B2C3
:1028F00005E04FF4077000F02FF8701EC6B2002EEE
:10290000F7D115B1284600F027F870BD0146114AED
:1029100012784A434FF0E0235A6100229A611A4626
:10292000126942F001021A6100BF4FF0E022106903
:1029300000F001021AB100F48032002AF5D04FF005
:10294000E022126922F001024FF0E0231A61002216
:102950009A617047000000200146114A12884A43DC
:102960004FF0E0235A6100229A611A46126942F040
:1029700001021A6100BF4FF0E022106900F001026D
:102980001AB100F48032002AF5D04FF0E02212692B
:1029900022F001024FF0E0231A6100229A61704791
:1029A0000200002082B0CDE9000121F0004001903A
:1029B0009DED000B02B051EC100B704710B50A48AA
:1029C0000078012804D0022805D0032809D105E0A9
:1029D00000F010FA06E000F0FDFA03E0FFF7ACFAB1
:1029E00000E000BF00BF10BD2400002010B50A4861
:1029F0000078012804D0022805D0032809D105E079
:102A000000F0FAF906E000F065FB03E0FFF7E0FBF9
:102A100000E000BF00BF10BD2400002070B50546D7
:102A20000C4615484068406920B113484068416928
:102A30002046884710480470204600F04FF80E49A1
:102A4000486008464068C5700C4800684968C8601E
:102A50000020094949688871074949688870064912
:102A60004968487004484068806920B1024840685D
:102A700081692846884770BD240000200800002096
:102A800010B5124C2078F8B1E07870B110480068A9
:102A9000C01CA06001210F48FDF774FD00210E4805
:102AA000FEF748FE0020E0700EE00949A0680968C2
:102AB000884209D801210748FDF762FD00202070F7
:102AC0006070A0700120E07010BD0000D4000020F4
:102AD0000400002000140240000C0040014602489F
:102AE00050F8210070470000C8010020014890ED17
:102AF0003B0A70472400002000B589B00121084638
:102B0000FEF7D8FA01210846FEF7F4FA4FF4807078
:102B1000079002208DF8200000208DF8220003206D
:102B20008DF8210001208DF8230007A92948FDF721
:102B3000BCFC012208212748FDF7FFFCA720ADF8C7
:102B40000C000020ADF80E0042F21070049000203E
:102B5000ADF8140003A92048FEF738FF0020ADF8B7
:102B60000000ADF802000120ADF804000020ADF82F
:102B700006000320ADF8080069461748FEF75BFD24
:102B8000012203211448FEF78DFD01211248FEF7B2
:102B900032FD1B208DF8180001208DF8190003204C
:102BA0008DF81A0001208DF81B0006A8FEF73AFAEE
:102BB00019208DF8180001208DF8190002208DF8D9
:102BC0001A0001208DF81B0006A8FEF72BFA09B0A9
:102BD00000BD0000000002400000014010B50020D0
:102BE00011490C7804F04004ECB14C68220E4C689A
:102BF000C4F30743DC43E4B2944209D142B98C8860
:102C0000C4F307220B79DC43E4B2944200D11046AE
:102C100018B10C7804F080042CB90C7824F040042E
:102C20000C7000244C7010BD0401002030B5FFF77B
:102C3000D5FF05464B4C982D24D00CDC622D3DD0A1
:102C400004DC022D66D0222D6FD14DE0682D0BD013
:102C5000902DF9D175E0A82D3BD0B02D20D0C22DFC
:102C60004DD0E02D78D161E001203E49E03949683E
:102C700048703D48006808B9012000E000203A494A
:102C800008606CE002203749E039496848703648EE
:102C9000006808B9012000E00020334908605EE0C8
:102CA00003203049E039496848702F48006808B966
:102CB000012000E000202C49086050E00120207233
:102CC0002948006808B9012000E000202649086072
:102CD00045E0022020722448006808B9012000E085
:102CE0000020214908603AE0032020721E48006855
:102CF00008B9012000E000201B4908602FE00420F3
:102D000020721948006808B9012000E00020164927
:102D1000086024E0052020721348006808B90120EB
:102D200000E000201049086019E015E0062020723C
:102D30000D48006808B9012000E000200A49086039
:102D40000DE0072020720848006808B9012000E063
:102D500000200549086002E00020207200BF00BF8B
:102D600030BD000004010020A48242420C4901F160
:102D700020000C4ACA600C4B0B610C4B4B610C4B96
:102D80008B610C4BCB610C4A42600C4B83600C4B4B
:102D9000C3600C4B03610C4B83610C4B4361704768
:102DA0002C000020E126000839270008E927000848
:102DB0004128000891270008A523000841240008A5
:102DC0008D25000825260008DD240008F9240008C8
:102DD00000200449086004484860044888600448AA
:102DE000C8607047C80100207401002090010020D5
:102DF000AC0100207047000010B50A484078022856
:102E000003D102210120FFF709FE0648407803287C
:102E100007D103210120FFF701FE9FED030A00F017
:102E2000C9FA10BD740100200000B442034800F14B
:102E30000C01034A8260034A4A607047180100206F
:102E4000C134000885340008B6EE001A20EE011ADD
:102E5000F0EE410A10EE100A0749A1EB600000EE07
:102E6000100A60EE801AB7EE081A01EEC01A21EEC1
:102E7000001AB0EE410A7047865A375F1CB501212F
:102E80002020FEF717F94FF4C060009001208DF864
:102E9000040000208DF8060001208DF807000320B3
:102EA0008DF8050069460448FDF7FFFA4FF4C0614C
:102EB0000148FDF765FB1CBD001402401A480021C3
:102EC00007E01A4B53F82120194B43F821204A1CE4
:102ED000D1B20429F5DB164A5268521C82B1144A59
:102EE0009268521C62B1124AD268521C42B1104A16
:102EF00052682AB10E4A926812B10D4AD26812B9CC
:102F0000002282730EE00A4A92ED010A80ED040A63
:102F100092ED020A80ED050A92ED030A80ED060AA1
:102F200001228273704700006800002000000E0834
:102F3000640100204FF4A060FEF7B0F8002140F2D9
:102F4000473000F059FBA820FFF7A6FC4FF47A7039
:102F5000FFF7C0FCFFF792FFFFF74EF9142140F294
:102F6000CF7000F0DDF8142140F2CF7000F034F99A
:102F7000FFF7C2FD00F08CF9FFF7A0FF00F0BCFBEB
:102F800000F06AFB00F0BCFA4FF4AF614FF08040F4
:102F9000FEF7E7FC4FF4FA60FFF79CFCFFF788F9B7
:102FA00013E00A4800780A49097888420DD0084899
:102FB000007806490870FFF7F1F900F0FDFBFFF714
:102FC00015FDFFF7FBFC00F09FF8EAE70C0000207E
:102FD0000D00002010B52DED028B3C4C207A082806
:102FE0006BD2DFE800F06A04101C28344055002042
:102FF00000F0BAF93648006808B9012000E0002066
:10300000334908605DE0012000F0AEF93048006807
:1030100008B9012000E000202D49086051E002209D
:1030200000F0A2F92A48006808B9012000E0002059
:103030002749086045E0032000F096F9244800681D
:1030400008B9012000E000202149086039E004208F
:1030500000F08AF91E48006808B9012000E000204D
:103060001B4908602DE0FFF741FDB0EE408AF2EE0B
:10307000040A78EE200AB0EE600A00F09BF91448CA
:10308000006808B9012000E000201149086018E03C
:10309000FFF72CFDB0EE408AF2EE040A78EE600AEB
:1030A000B0EE600A00F086F90948006808B901200E
:1030B00000E000200649086003E0042000F054F915
:1030C00000BF00BFBDEC028B10BD0000040100205A
:1030D000A882424210B50A484078012803D1012154
:1030E0000220FFF79BFC06484078032807D1032104
:1030F0000220FFF793FC9FED030A00F05BF910BD7F
:10310000900100200000B44210B5FFF7D7FA00F09C
:10311000C5F910BD10B5FFF729FEFFF787FE10BDFA
:1031200030B58BB004460D4601210220FDF7C2FFE9
:1031300001210220FDF7CEFF0320099002208DF827
:10314000280000208DF82A0001208DF82B00032094
:103150008DF8290009A91E48FDF7A7F902220021D0
:103160001B48FDF7EAF9022201211948FDF7E5F9AC
:103170000020ADF82000ADF81A00A8B2ADF8180094
:10318000079406A91348FEF721FC6020ADF804005F
:103190000020ADF810000120ADF8060001A90D488F
:1031A000FEF73AFB01A90B48FEF790FB08210948FE
:1031B000FEF782FB08210748FEF7C4FB0121054802
:1031C000FEF70AFA01210348FEF715FA0BB030BDED
:1031D000000402400004004030B58BB004460D46A8
:1031E00001210846FDF766FF01210220FDF772FF6D
:1031F000C020099002208DF8280000208DF82A00B8
:1032000001208DF82B0003208DF8290009A91E4804
:10321000FDF74BF9022206211B48FDF78EF9022229
:1032200007211948FDF789F90020ADF82000ADF815
:103230001A00A8B2ADF81800079406A91348FEF7C3
:10324000C5FB6020ADF804000020ADF8100001209F
:10325000ADF8060001A90D48FEF72EFA01A90B48AA
:10326000FEF77AFA08210948FEF76DFA08210748A7
:10327000FEF7C4FA01210548FEF7AEF90121034823
:10328000FEF7B9F90BB030BD000002400004004069
:1032900010B5FDF7A3F980216B20FDF79EFE642099
:1032A000FFF718FB00216B20FDF797FE0120FDF7CB
:1032B00052FE0020FDF747FE3220FDF771FE00218F
:1032C0003820FDF78AFE00216A20FDF786FE0021E6
:1032D0002320FDF782FE80213720FDF77EFE75203A
:1032E000FDF7DAFD0446682C0BD101216B20FDF7B8
:1032F00074FE00216C20FDF770FE3220FDF750FEB9
:1033000001E0012010BD0020FCE710B500F002F83C
:1033100010BD000010B5054C23460E223B2168204D
:10332000FDF7D7FDFDF758FC10BD00006800002038
:1033300010B50446B4F5FA6F01D340F2CF742146BC
:103340000148FEF712FB10BD0004004010B5044612
:10335000B4F5FA6F01D340F2CF7421460148FEF76D
:1033600002FB10BD0004004003490A78824202D0EB
:10337000087000228A7070472C00002010B50446A7
:10338000B4F5FA6F01D340F2CF7421460148FEF73D
:10339000E8FA10BD0004004010B50446B4F5FA6F19
:1033A00001D340F2CF7421460148FEF7D8FA10BD90
:1033B000000400401348DFED140AB4EEE00AF1EE19
:1033C00010FA03DDDFED100AB0EE600AB5EEC00AB8
:1033D000F1EE10FA03D2DFED0D0AB0EE600A017AC9
:1033E00002290ED180ED000ADFED090AB2EE041ABF
:1033F00040EE010AFDEEE00A10EE901A81800021F5
:1034000001727047100100200000344300000000EA
:103410000000FA4300B52DED048B83B041EC190B8D
:1034200000F0C2FD41EC180B18EE100A18EE901ACD
:103430008DED008B002818BF0120084320F00040CC
:10344000C0F17F6000F1E040C00F14D019EE101AF7
:1034500019EE900A8DED009B002918BF0121084349
:1034600020F00040C0F17F6000F1E040C00F04BFD9
:103470000120FCF701FF51EC180B03B0BDEC048BED
:1034800000BD000010B50448B0F8F0104FF08040C7
:10349000FEF767FA10BD00002400002070B5074C4D
:1034A00004F10C05627804F1080151F8220080470C
:1034B0002A78291D51F82200804770BD180100208C
:1034C0000D48017821B101290AD0022911D10FE05C
:1034D0000A49096801F57A7141600121017009E02A
:1034E000064A41681268914201D20221017001E04E
:1034F00000E000BF00BF7047180100200800002056
:1035000000B58BB001210220FDF7D4FD0121084652
:10351000FDF7E0FD0820099002208DF8280000202A
:103520008DF82A0001208DF82B0003208DF829004A
:1035300009A91948FCF7B9FF012203211648FCF735
:10354000FCFF0020ADF82000ADF81A005320ADF8C4
:10355000180041F28730079006A94FF08040FEF72F
:1035600035FA6020ADF804000020ADF8100001200D
:10357000ADF8060001A98007FEF7EEF80821C8069D
:10358000FEF73CF901218807FEF726F8012188079C
:10359000FEF731F80BB000BD0004024070B50925FC
:1035A000FCF760FF0020FCF7ABFE02215820FCF77F
:1035B000B9FE0546092D00D070BD092D11D100249A
:1035C0000CE00B4A52F824100A4A02EB8400FCF784
:1035D00021FF092800D003E0601CC4B2042CF0DBFA
:1035E00000BF0120FCF78CFEFCF70AFF00BFE3E7F9
:1035F0006401002000000E087FB505460C4601213D
:103600000420FDF767FD0295A0B2ADF8040000208C
:10361000ADF80600ADF80C0001A90E48FEF7D6F98A
:10362000012211460B48FEF73DF801210948FDF73C
:10363000E2FF1E208DF8000001208DF8010003201C
:103640008DF8020001208DF803006846FDF7EAFCC2
:103650007FBD0000000800401CB501212020FDF7BF
:1036600029FD012000908DF8040000208DF806004F
:1036700001208DF8070003208DF8050069460448F5
:10368000FCF713FF01210248FCF77AFF1CBD000084
:103690000014024010B52DED048B134C1349E06863
:1036A0000968081A462805D301202070E0700F48E9
:1036B0000068E0606078A0B100206070A08800F031
:1036C000E4FA41EC190B9FED0A0B53EC102B00F0C0
:1036D0002BFB41EC180B00F083F80349B039C1F81B
:1036E0000801BDEC048B10BDD400002008000020B0
:1036F0009CC420B07268913F00B589B00121084692
:10370000FDF7D8FC01210820FDF7E4FC012007901B
:1037100002208DF8200000208DF8220003208DF873
:10372000210002208DF8230007A92148FCF7BDFEE7
:10373000022200211E48FCF700FF5320ADF80C00C8
:103740000020ADF80E004EF6602004900020ADF889
:10375000140003A91748FEF739F90020ADF800005E
:10376000ADF802000120ADF804000020ADF806001D
:10377000ADF8080069460F48FDF75DFF0122022100
:103780000C48FDF78FFF01210A48FDF734FF322076
:103790008DF8180000208DF819008DF81A0001200E
:1037A0008DF81B0006A8FDF73DFC09B000BD000028
:1037B00000000240000C004010B5FFF76BFFFFF760
:1037C000A4FDFFF7A2FD10BD81F00041704780F01D
:1037D0000040704721F00041704720F000407047E2
:1037E00021F00042A2F16052B2F5801F01F00043C7
:1037F00028BFD2F17F6C0BD95FEA001C43EAC202FA
:1038000042EB507018BF704728BF20F0010070478E
:10381000B2F5801FBCBF184670474FEA410C1CF53B
:10382000001F02D2084600F0EBBD70B500F026FB89
:1038300000000089FFF7F6BF4FF00040A0F58000C0
:103840007047000010B591EA030F48BF83F00043B2
:1038500000F17E84841A71EB030C05D2121943EB3C
:103860000C03001B61EB0C01DFF824E14FEA11545B
:10387000A4EB135C1EEA430F18BF9EEA445F73D0AB
:1038800023EA0E03DCF1200E21EA045143F48013F5
:1038900032D322FA0CFE10EB0E0023FA0CFE41EBA1
:1038A0000E01CCF1200E03FA0EFE10EB0E0051F1CA
:1038B0000001B1F5801FCCF1200E32D201EB045192
:1038C00012FA0EF2BDE8104058BF7047401C38BFD6
:1038D0005FEA420218BF7047002814BF20F00100C1
:1038E00041F100014FEA410313F5001F38BF704753
:1038F000A1F1C04100F010BB012A43EB0302ACF17F
:10390000200CDCF11F0E32BF4FF0000E23FA0CF337
:1039100010EB030041EB0451B4EB115FD0D0A1EBED
:10392000045101F5801149085FEA300001EB0451B0
:103930000ED350F1000038BF12FA0EFE08D1BDE8D8
:103940001040C9E7401C38BF5FEA4202CAD1C3E752
:10395000BDE810404FEA410313F5001F38BF704720
:10396000A1F1C04100F0D8BA9EEA445F08D011EA44
:103970005E0FBDE8104004BF01F000410020704719
:10398000BDE8104070B500F079FA00BF64FBBE3EA0
:103990000000E0FF491058BFC1F140415B1058BF23
:1039A000C3F140438B42EFF3008070472DE9C041E3
:1039B00030B4DFF8A0C23CEA111418BF3CEA13147B
:1039C00000F0EC8081EA03051CEA111444EAD57486
:1039D00018BF1CEA131500F0C780A4EB05044FF0D4
:1039E000004545EAC12145EAC32341EA505143EA73
:1039F000525304F17F74994204F500344FEAC02019
:103A00004FEAC22208BF904200F09C804FEA136543
:103A10000FF24016765D4FEA134506FB05F7C7F136
:103A2000807706FB07F74FEAD737A7FB0368764294
:103A3000C8F58038A7FB06CE38BFA8F1010807FB00
:103A400008E64FF0000EA6FB028CE6FB03CEDCF18D
:103A5000000CCEF1004E38BFAEF1010EA6FB0C58A3
:103A60004FF000074FF00005E6FB0E87A1FB08C6EC
:103A7000A0FB07CE16EB0E0645F10005E1FB07653E
:103A800015F1E04E7EBFA4F580345FEA46066D4135
:103A900016F1800745F100054FEA17274FEA066641
:103AA00047EA0567A6F1DE46B6F1805F4FEA1525C5
:103AB0001FD9384624F0010C05EBC471BCF1FE6F30
:103AC00001EB0C1102D8F0BCBDE8008124425CBFC0
:103AD00001F5801E9EEAC47F02D4F0BCBDE80081DF
:103AE000244238D4F0BCA1F1C041BDE8004100F04F
:103AF00013BA4FEAD22242EA43524FEAD323A7FB3A
:103B000002864FEAD02040EA415007FB03661EEAD6
:103B10000E0F4FEAD12105FB026658BFA6EB0056F7
:103B2000B6EB00564FEA520E4EEAC37E18EB0E0E6D
:103B300056EB530EBDD518EB02085E417F1C55F1C4
:103B40000005B6E74FF480154FF000074FF0000670
:103B50004FF00008ADE7F0BC4FF0000001F1C041AC
:103B600001F00041BDE8008111EA0C1F0CEA1315B9
:103B700000D00CE013EA0C1F00F025804FF000008D
:103B8000F0BC81EA030101F00041BDE80081F0BC16
:103B9000BDE8004181EA030100F0BEB9F0BCBDE818
:103BA000004170B500F06AF9097EFC3E00F007B8EC
:103BB00081EA03014FF0000001F00041704781EA03
:103BC000030100F0A9B9F0BCBDE800414FF00000CE
:103BD00021497047FFFDFBF9F7F5F4F2F0EEEDEB4C
:103BE000E9E8E6E4E3E1E0DEDDDBDAD8D7D5D4D3FB
:103BF000D1D0CFCDCCCBCAC8C7C6C5C4C2C1C0BF47
:103C0000BEBDBCBBBAB9B8B7B6B5B4B3B2B1B0AF4C
:103C1000AEADACABAAA9A8A8A7A6A5A4A3A3A2A130
:103C2000A09F9F9E9D9C9C9B9A99999897979695EB
:103C300095949393929191908F8F8E8E8D8C8C8B87
:103C40008B8A89898888878786858584848383820F
:103C5000828181800000FF070000F87F10F00042A1
:103C600048BF4042B0FA80F310FA03F10AD0C3F122
:103C70001D0303F580634FEA415002EB035202EB50
:103C8000D12170474FF000007047B0FA80F310FA6E
:103C900003F10AD0C3F11D0303F580634FEA4150DD
:103CA0004FEA035202EBD12170474FF000007047FA
:103CB00051EA030C17D41CF5801F58BFBCF5801FB8
:103CC00000F10680994218BF704708BF90427047C4
:103CD00007D711F5801F58BF13F5801F19D49942DB
:103CE0007047894270471CF5801F08D5BCF5801FBE
:103CF000F7D58B4218BF704708BF824270474FF418
:103D0000001C1CEB410F38BF1CEB430F01D28B4250
:103D1000704770B500F0B2F8922449004FF000519E
:103D20004FF08053FFF736BEDFF848C170B51CEA8C
:103D3000111E1EBF1CEA13159EEA0C0F95EA0C0F0C
:103D400000F06F8081EA030423EA4C134EEAD47E2C
:103D500021EA4C1141F4801143F48013AE44A1FBDD
:103D6000024CA0FB0365AEF17F7E361955EB0C05C6
:103D7000A1FB034C4CF10003A0FB021C16EB0C064C
:103D8000654153F10003094218BF46F0010613F4E0
:103D9000007F0BD14FEA03314FEA0530340341EA8B
:103DA000155140EA16506FF003020AE04FEAC321B2
:103DB0004FEAC520F40241EA555140EA56506FF0EF
:103DC000020202EB2E4201EB025585EACE710AD0C7
:103DD0005FEA440C18BF24F0004450F1000041F1A8
:103DE000000120EAD47040F2FE7C624500D270BD32
:103DF000A84214BF4FF080444FF04044002E08BF4B
:103E00000024BEF1806FA8BFA1F1C041BDE87040A1
:103E100080F282804FF0000001F1C04101F00041CA
:103E200070479EEA0C0F0CEA131518BF95EA0C0FA9
:103E300006D04FF0000081EA030E0EF0004170BD85
:103E400000F01CF88900013E00F007B800F009B846
:103E50004FEA430C5FEA5C5C08D081EA030100F0A2
:103E60005BB84FEA410C5FEA5C5CF6D14FF00000B2
:103E7000014970470000FF070000F87F0EF1020EB5
:103E80002EF0030E5EF8046B364205D4012A43EB94
:103E9000030515F5001F12D8012841EB010C1CF594
:103EA000001F0CD80ED14FEAD17C15F5001F0CEB8A
:103EB0004C0C0CF1020C08BF4CEBD37C04E04FF02F
:103EC000080C01E04FEAD37C0CEB4C0526FA05F612
:103ED00006F00706B6F1040C06D20EEB860CBDE820
:103EE00070404CF0010C6047DFE80CF0090B020257
:103EF0004FF000414FF00000A1F5002170BD1946C0
:103F00001046012851EB010418BFD4F5001484BFFA
:103F1000002001F0004170BD0808A0F500114FEA33
:103F20003101704753EA010C17D41CF5801F58BFAC
:103F3000BCF5801F00F106808B4218BF704708BF98
:103F40008242704707D713F5801F58BF11F5801FB5
:103F500019D48B4270479B4270471CF5801F08D5CF
:103F6000BCF5801FF7D5994218BF704708BF904233
:103F700070474FF4001C1CEB430F38BF1CEB410F84
:103F800001D2994270470FB40CBC03BCFFF7C1BE0D
:103F900091EA030F10B581F000413FF55BAC83F06F
:103FA000004300F0D5B800002DE9F04101F5801C78
:103FB000BCF5001FC0F2A9804FEA115C21EA0C5148
:103FC0000CF1FD0C41F480115FEA5C0C0CF5C07C37
:103FD00001D34000494130A4890241EA905187024F
:103FE0008E0E0A0CA45D04FB04F602FB06F6C6F175
:103FF0004046A4FB0662F60D46EA422606FB06F49E
:10400000A4FB01235242C3F1404338BF5B1EA6FB11
:1040100002420024E6FB0324D20B42EA4446A6FBFC
:104020000623A1FB02E2A3FB07E4E3FB6142644237
:10403000C2F1404E38BFAEF1010EA6FB04234FF093
:104040000002E6FB0E32A2FB03463400E2FB626490
:10405000A1FB06E6A4FB07E8E4FB61687642C8F131
:10406000405838BFA8F10108A2FB06E4A3FB08E50D
:10407000E2FB6854A1FB05E6A7FB04E8E1FB6486CC
:1040800018F1200556F10006A809A8F11B08B1098E
:1040900008F03F08B8F10A0F40EA86601CD901EB2E
:1040A0000C51BDE8F08100BFFCF5EEE8E2DDD8D3AD
:1040B000CFCBC7C3C0BDB9B6B4B1AEACA9A7A5A399
:1040C000A19F9D9B9A9896959392908F8D8C8B89AA
:1040D0008887868584838281A0FB006800FB01F2CB
:1040E00008EB4208B8EB872807D5341858EB0104D1
:1040F000D5D5401C51F10001D1E7341A78EB010409
:10410000CDD4401E71F10001C9E75FEA4C0C5FEAB3
:104110009C5C0DD105D34FF0000001F00041BDE8DB
:10412000F081BDE8F04170B5FFF7A8FE6DDBFFBE82
:10413000BDE8F0414FF00000004970470000F87FF3
:1041400010B591EA030F48BF83F000433FF582ABFF
:10415000841A71EB030C07D212198CF0004C43EB5C
:104160000C03001B61EB0C01DFF8A4E14FEA1154D2
:10417000A4EB135C1EEA430F18BF9EEA445F00F0F5
:10418000B08023EA6E03524221EA0451C3EB6E036E
:1041900038BF5B1EDCF1200E25D322FA0CFE10EB9B
:1041A0000E0043FA0CFE41EB0E01CCF1200E03FA97
:1041B0000EFE10EB0E0051F10001CCF1200E29D4BF
:1041C00012FA0EF201EB0451BDE8104058BF7047DF
:1041D000401C1CBFB2F1004F704700280CBF491CA7
:1041E00020F00100704712EB020E43EB030218BFF0
:1041F0004FF0010E4EEA4202ACF1200CDCF11E0E33
:1042000054D943FA0CFE10EB0E0051F1FF31CCF102
:104210001E0ED5D50EF1010E12FA0EFE404141EBF5
:10422000010101EB445C5FEA5C5C10D910EBDE70CD
:1042300001EB045138BFBEF1004FBDE8104018BF7C
:10424000704700280CBF491C20F00100704730D295
:104250004FEAD42C11F5001124F400641BD0B1FAFC
:1042600081F20B3AA41AA41ED2F12003914030FA35
:1042700003F31943904001EBCC71002C01EB045186
:10428000BDE81040A8BF704701F1C0414FF00000E9
:1042900001F000417047B0FA80F310FA03F100D149
:1042A00010BDE41A173C4805C90AE4E701EB0451C4
:1042B00010BD491001EB0451BDE810404FEA300039
:1042C00002E04FF0000170474A0008BF0042F8D0FA
:1042D000B2F5001F28BF704701F000414FF0000009
:1042E00070479EEA445F07D011EA5E0FBDE81040B8
:1042F00004BF002100207047BDE8104070B5FFF7F3
:10430000BDFD00BF40DFF63E83F000411046704720
:104310000000E0FF43004FEAD30C4FEA3C0C43405F
:104320001FBF40070CF1605113F0FE4F70471CF0A7
:10433000006F03D100200CF0004170470CF00043E7
:1043400043EA507010B540EACC0000F00EF800BF10
:10435000000000924FEA0001FFF7DEBD4FF0004180
:104360004FF00000A1F5002170470EF1020E2EF073
:10437000030E5EF8044B244204D44FEA4102B2F12A
:104380007F4F11D84FEA4003B3F17F4F0CD80ED1C5
:104390004FEAD07CB2F17F4F0CEB4C0C0CF1020CCD
:1043A00008BF4CEBD17C04E04FF0080C01E04FEA71
:1043B000D17C0CEB4C0324FA03F404F00704B4F1B1
:1043C000040C06D20EEB840CBDE810404CF0010C3E
:1043D0006047DFE80CF0070802024FF00040A0F54C
:1043E000800010BD0846420018BFD2F1807288BF1D
:1043F00000F0004010BD4FF04070E1EE100A704731
:10440000FF2141EAD050C0057047000000000000C5
:10441000555555555555C53F7D6FEB0312D6D4BF45
:104420005544880E55C1C93F3B8F68B52882A4BF4B
:1044300088B20175E0EF493F09F7FD0DE13D023F0C
:104440004B2D8A1C273A03C0C88A599CE52A004094
:1044500059018D1B6C06E6BF82922EB1C5B8B33FE1
:10446000804400080000002024000000C40100086F
:10447000A44400082400002014080000E001000803
:10448000000000000000000000000000000000002C
:10449000000000000000000000000000000000001C
:0444A0000000000018
:040000050800018965
:00000001FF
