:020000040800F2
:100000006806002029020008C7030008BF03000893
:10001000C3030008DB02000801090008000000001B
:1000200000000000000000000000000021040008A3
:10003000DF02000800000000DD03000839050008A9
:10004000430200084302000843020008430200087C
:10005000430200084302000843020008430200086C
:10006000430200084302000843020008430200085C
:10007000430200084302000843020008430200084C
:10008000430200084302000843020008430200083C
:10009000430200084302000843020008430200082C
:1000A000430200084302000843020008430200081C
:1000B000430200084302000843020008430200080C
:1000C00043020008430200084302000843020008FC
:1000D00043020008430200084302000843020008EC
:1000E00043020008430200084302000843020008DC
:1000F00043020008430200084302000843020008CC
:1001000043020008430200084302000843020008BB
:1001100043020008430200084302000843020008AB
:10012000430200084302000843020008430200089B
:10013000430200084302000843020008430200088B
:10014000430200084302000843020008430200087B
:10015000430200084302000843020008430200086B
:10016000430200084302000843020008430200085B
:10017000430200084302000843020008430200084B
:10018000430200084302000800F002F800F03CF8C7
:100190000AA090E8000C82448344AAF10107DA45E2
:1001A00001D100F031F8AFF2090EBAE80F0013F0F8
:1001B000010F18BFFB1A43F001031847B80C0000E9
:1001C000D80C0000103A24BF78C878C1FAD852077A
:1001D00024BF30C830C144BF04680C6070470000C1
:1001E0000023002400250026103A28BF78C1FBD840
:1001F000520728BF30C148BF0B6070471FB500F0E1
:1002000033FE1FBD10B510BD00F031F81146FFF7E9
:10021000F5FF00F053FC00F04FF803B4FFF7F2FFD6
:1002200003BC00F053F80000094880470948004724
:10023000FEE7FEE7FEE7FEE7FEE7FEE7FEE7FEE796
:10024000FEE7FEE704480549054A064B70470000F3
:100250003D050008890100086800002068060020AC
:10026000680200206802002070477047704775469A
:1002700000F028F8AE4605006946534620F0070016
:10028000854618B020B5FFF7DDFFBDE820404FF0F0
:1002900000064FF000074FF000084FF0000B21F070
:1002A0000701AC46ACE8C009ACE8C009ACE8C0093D
:1002B000ACE8C0098D4670470446AFF30080204685
:1002C000FFF7ABFF004870470400002001491820E9
:1002D000ABBEFEE726000200704700BFFEE7704796
:1002E000F0B50A4600210023002400BF3DE00125AF
:1002F00005FA01F3156805EA03049C4234D1056848
:100300004F000326BE40B543056015794E00B54049
:100310000668354305601579012D02D01579022D47
:1003200016D185684F000326BE40B54385605579D8
:100330004E00B540866835438560456801268E408D
:10034000B5434560456896798E40B6B23543456001
:10035000C5684F000326BE40B543C560D5794E0041
:10036000B540C6683543C560491C1029BFD3F0BDF0
:10037000F0B5002300244D07ED0E02FA05F3CE1070
:1003800000F1200555F826504E07F70E0F26BE4007
:10039000B543CF1000F1200646F82750CE1000F1EB
:1003A000200555F8265045EA0304CE1000F120053B
:1003B00045F82640F0BD418370470183704700BF78
:1003C000FEE700BFFEE7704702490143024A1160A1
:1003D000704700000000FA050CED00E070470000D7
:1003E00029B1064A12680243044B1A6004E0034A2A
:1003F00012688243014B1A60704700003038024097
:1004000029B1064A12680243044B1A6004E0034A09
:1004100012688243014B1A60704700004038024066
:10042000704700000CB5002001900090344800682F
:1004300040F480303249086000BF3148006800F461
:10044000003000900198401C0190009818B9019864
:10045000B0F5A04FF1D12A48006800F4003010B187
:100460000120009001E0002000900098012846D172
:1004700023484030006840F08050214940310860F6
:100480002048006840F440401E4908601C4808307D
:1004900000681B49083108600846006840F40040C5
:1004A00008600846006840F4A05008601648091F1C
:1004B0000860081F006840F08070091F086000BFD6
:1004C0000F48006800F000700028F9D040F2057075
:1004D0000E4908600A480830006820F00300084907
:1004E000083108600846006840F00200086000BF5C
:1004F00003480830006800F00C000828F8D10CBD53
:10050000003802400070004008544007003C0240A0
:10051000042808D14FF0E021096941F004014FF0AF
:10052000E022116107E04FF0E021096921F00401A8
:100530004FF0E022116170477047000010B5154878
:10054000006840F47000134908601348006840F0E8
:1005500001001149086000200F49083108600E4869
:1005600000680E4908400C4908600D48091D0860E4
:10057000081F006820F48020091F08600020064939
:100580000C310860FFF74EFF4FF0006001498039E1
:10059000086010BD88ED00E000380240FFFFF6FE65
:1005A0001030002421B1028842F08002028004E071
:1005B00002884FF67F731A400280704721B102888B
:1005C00042F00102028004E002884FF6FE731A40F6
:1005D0000280704770B5002400220023058C4FF67E
:1005E000FE7635400584028C8388048B4FF68F7528
:1005F0002C40B51E2C400D882C43751E2A408D8939
:100600002A434D882A43104DA84202D00F4DA842DC
:1006100013D14FF6F7752A40CD892A434FF6FB7563
:100620002A408D882A434FF6FF652B404FF6FF5531
:100630002B400D8A2B434D8A2B43838004838D6886
:100640004563028470BD00000000014000040140C9
:100650000A460021018B4FF6F773194011430183BD
:100660007047000070B5002400220023058C4FF66F
:10067000EF7635400584028C8388048B48F6FF753D
:100680002C404FF6FF452C400D884FF6FF7606EACA
:1006900005252C434FF6DF752A408D8906EA05159E
:1006A0002A434D8806EA05152A43154DA84202D073
:1006B000144DA8421DD14FF67F752A40CD894FF6C3
:1006C000FF7606EA05152A434FF6BF752A408D8846
:1006D00006EA05152A434FF6FF352B404FF2FF750A
:1006E0002B400D8A06EA85052B434D8A06EA8505CF
:1006F0002B43838004838D688563028470BD000072
:1007000000000140000401400A460021018B4FF225
:10071000FF7319404FF6FF7303EA02231943018365
:100720007047000070B5002400220023058C4FF6AE
:10073000FF6635400584028C8388848B4FF68F7565
:100740002C404FF6FC752C400D882C434FF6FF557E
:100750002A408D894FF6FF7606EA05252A434D8803
:1007600006EA05252A43154DA84202D0144DA84299
:100770001DD14FF2FF752A40CD894FF6FF7606EA6C
:1007800005252A434FF6FF352A408D8806EA0525C0
:100790002A434EF6FF752B404DF6FF752B400D8A10
:1007A00006EA05152B434D8A06EA05152B4383807F
:1007B00084838D68C563028470BD00000000014021
:1007C000000401400A460021818B4FF6F77319405F
:1007D000114381837047000070B50022002300247C
:1007E000058C4EF6FF7635400584038C8488828B19
:1007F00048F6FF752A404FF6FF452A400D884FF610
:10080000FF7606EA05252A434DF6FF752B408D89B4
:1008100006EA05352B434D8806EA05352B430A4D7C
:10082000A84202D0094DA84208D14BF6FF752C40D2
:100830000D8A4FF6FF7606EA85152C438480828365
:100840008D680564038470BD000001400004014010
:100850000A460021818B4FF2FF7319404FF6FF7358
:1008600003EA022319438183704741637047816320
:100870007047C1637047016470470000002202881E
:10088000184B98420ED0184B98420BD0B0F1804FC5
:1008900008D0164B984205D0154B984202D0154B04
:1008A000984204D14FF68F731A404B881A43124B6B
:1008B000984207D0114B984204D04FF6FF431A409C
:1008C0000B891A4302804B68C3620B880385054B72
:1008D000984202D0044B984201D18B7A03860123BF
:1008E0008382704700000140000401400004004082
:1008F00000080040000C00400010004000140040C0
:1009000000BFFEE700B587B001211020FFF768FDAA
:1009100001210220FFF764FD01212020FFF760FD87
:100920004CF2A000059001208DF8180000208DF8F1
:100930001A0001208DF81B0003208DF8190005A96D
:100940001B48FFF7CDFC4CF2A0011948FFF733FD1F
:100950007020039001208DF8100000208DF8120007
:1009600001208DF8130003208DF8110003A9114810
:10097000FFF7B6FC70210F48FFF71DFD4FF428402C
:10098000019001208DF8080000208DF80A00012058
:100990008DF80B0003208DF8090001A90648FFF728
:1009A0009FFC4FF428410448FFF705FD07B000BD48
:1009B00000040240001002400014024010B504463A
:1009C0006FF00400FFF7A4FDE11704EB5171C1F3D0
:1009D000C701074A11701046007800EB4001C1EBD7
:1009E000C0104FF6FF7101EAC0000249088010BD37
:1009F000000000200200002070B504464FF407708C
:100A000094FBF0F0C6B24FF4077094FBF0F100FBDA
:100A1000114085B205E04FF4077000F009F8701E30
:100A2000C6B2002EF7D115B1284600F001F870BD0E
:100A30000146114A12884A434FF0E0235A610022CE
:100A40009A611A46126942F001021A6100BF4FF022
:100A5000E022106900F001021AB100F48032002A8D
:100A6000F5D04FF0E022126922F001024FF0E023AE
:100A70001A6100229A617047020000201CB5012112
:100A80002020FFF7ADFC4FF4C060009001208DF8EE
:100A9000040000208DF8060001208DF807000320D7
:100AA0008DF8050069460448FFF71AFC4FF4C06151
:100AB0000148FFF780FC1CBD001402404FF4A06009
:100AC000FFF782FCA820FFF779FFFFF7D7FFFFF7BA
:100AD00019FF152140F2CF7000F00EF9152140F2F8
:100AE000CF7000F065F94FF400717F48FFF763FCA9
:100AF0004FF480617C48FFF760FC10217B48FFF7D2
:100B00005CFC4FF400617848FFF757FC00BF4021C0
:100B10007648FFF752FC20217448FFF74CFC202157
:100B20007348FFF74AFC80217148FFF744FC00BF7F
:100B300000BF4FF400416C48FFF73FFC4FF40051F9
:100B40006948FFF738FC4FF400416948FFF735FC6E
:100B50004FF480416648FFF72EFC00BFC2E040F230
:100B6000CF716448FFF781FE40F2CF716148FFF713
:100B70007EFE40F2CF715F48FFF77BFE40F2CF71FF
:100B80005C48FFF778FE41F28830FFF735FF4FF4FD
:100B90007A715848FFF769FE4FF47A715548FFF7AC
:100BA00066FE4FF47A715348FFF763FE4FF47A7193
:100BB0005048FFF760FE41F28830FFF71DFF01212A
:100BC0004C48FFF752FE01214A48FFF750FE012131
:100BD0004848FFF74EFE01214648FFF74CFE41F220
:100BE0008830FFF709FF00BF20214048FFF7E5FBF1
:100BF00040213E48FFF7DFFB80213D48FFF7DDFB4A
:100C000020213B48FFF7D7FB00BF00BF4FF4005146
:100C10003548FFF7D2FB4FF400413348FFF7CBFBD9
:100C20004FF480413248FFF7C8FB4FF40041304891
:100C3000FFF7C1FB00BF40F2CF712E48FFF715FE52
:100C400040F2CF712B48FFF712FE40F2CF712948D6
:100C5000FFF70FFE40F2CF712648FFF70CFE41F27E
:100C60008830FFF7C9FE4FF47A712248FFF7FDFD87
:100C70004FF47A711F48FFF7FAFD4FF47A711D485F
:100C8000FFF7F7FD4FF47A711A48FFF7F4FD41F2D0
:100C90008830FFF7B1FE01211648FFF7E6FD01217C
:100CA0001448FFF7E4FD01211248FFF7E2FD01219E
:100CB0001048FFF7E0FD41F28830FFF79DFE10215C
:100CC0000A48FFF778FB4FF400610748FFF773FB12
:100CD0004FF480610448FFF76EFB4FF40071024847
:100CE000FFF76BFB3BE700000014024000100240DE
:100CF000000402400004004030B58BB004460D46AD
:100D000001210220FFF76CFB01210220FFF778FB95
:100D10000320099002208DF8280000208DF82A0079
:100D200001208DF82B0003208DF8290009A91E4809
:100D3000FFF7D6FA022200211B48FFF719FB022217
:100D400001211948FFF714FB0020ADF82000ADF891
:100D50001A00A8B2ADF81800079406A91348FFF7C7
:100D60008DFD6020ADF804000020ADF810000120DA
:100D7000ADF8060001A90D48FFF7D4FC01A90B4806
:100D8000FFF72AFD08210948FFF71CFD0821074845
:100D9000FFF75EFD01210548FFF704FC0121034830
:100DA000FFF70CFC0BB030BD000402400004004013
:100DB00030B58BB004460D4601210846FFF710FB05
:100DC00001210220FFF71CFBC020099002208DF8B2
:100DD000280000208DF82A0001208DF82B00032028
:100DE0008DF8290009A91E48FFF77AFA0222062188
:100DF0001B48FFF7BDFA022207211948FFF7B8FA8E
:100E00000020ADF82000ADF81A00A8B2ADF8180027
:100E1000079406A91348FFF731FD6020ADF80400E0
:100E20000020ADF810000120ADF8060001A90D4822
:100E3000FFF7D0FB01A90B48FFF714FC0821094874
:100E4000FFF706FC08210748FFF75EFC0121054873
:100E5000FFF7A8FB01210348FFF7B0FB0BB030BD43
:100E600000000240000400404FF04070E1EE100A24
:100E700070470000940E00080000002004000000ED
:100E8000C4010008980E0008040000206406000059
:080E9000E00100080000000071
:040000050800018965
:00000001FF
