:020000040800F2
:100000002008002029020008FB0F000889050008CD
:10001000F70F0008FB020008291A00080000000082
:10002000000000000000000000000000ED100008CB
:10003000FF020008000000008910000805120008F7
:10004000430200084302000843020008430200087C
:10005000430200084302000843020008430200086C
:10006000430200084302000843020008430200085C
:10007000430200084302000843020008430200084C
:10008000430200084302000843020008430200083C
:10009000430200084302000843020008430200082C
:1000A0004302000885140008430200089513000865
:1000B0004302000843020008E91400084302000854
:1000C00043020008430200084302000843020008FC
:1000D00043020008430200084302000843020008EC
:1000E00043020008430200084302000843020008DC
:1000F00043020008430200084302000843020008CC
:100100004302000843020008591500084302000892
:1001100043020008430200084302000843020008AB
:10012000430200084302000843020008430200089B
:10013000430200084302000843020008430200088B
:10014000430200084302000843020008430200087B
:10015000430200084302000843020008430200086B
:10016000430200084302000843020008430200085B
:10017000430200084302000843020008430200084B
:10018000430200084302000800F002F800F03CF8C7
:100190000AA090E8000C82448344AAF10107DA45E2
:1001A00001D100F031F8AFF2090EBAE80F0013F0F8
:1001B000010F18BFFB1A43F0010318477C410000F0
:1001C0009C410000103A24BF78C878C1FAD8520781
:1001D00024BF30C830C144BF04680C6070470000C1
:1001E0000023002400250026103A28BF78C1FBD840
:1001F000520728BF30C148BF0B6070471FB504F0DD
:1002000066F81FBD10B510BD00F044F81146FFF7A9
:10021000F5FF02F061FE00F062F803B4FFF7F2FFB1
:1002200003BC00F063F80000094880470948004714
:10023000FEE7FEE7FEE7FEE7FEE7FEE7FEE7FEE796
:10024000FEE7FEE704480549054A064B70470000F3
:10025000091200088901000820020020200800205F
:10026000200400202004002070477047704710B51C
:1002700000F008F8006810BD10B5044600F002F860
:10028000046010BD00487047C0010020004870475E
:10029000C00100207546FFF7F9FFAE46050069462C
:1002A000534620F00700854618B020B5FFF7CAFF77
:1002B000BDE820404FF000064FF000074FF0000867
:1002C0004FF0000B21F00701AC46ACE8C009ACE8E8
:1002D000C009ACE8C009ACE8C0098D4670470446C7
:1002E000AFF300802046FFF798FF00000149182077
:1002F000ABBEFEE726000200704700BFFEE7704776
:1003000030B10749096841F48061054A116005E090
:100310000349096821F48061014A116070470000B7
:10032000003C024070B504460A460026092502B981
:1003300009E0012A01D1160205E0022A01D11602C4
:1003400001E04FF4407600F09FF80546092D28D1D2
:100350001548006820F4407013490860084600689A
:10036000304308600846006820F0F800086008463E
:10037000006844F0020108430B4908600846006821
:1003800040F48030086000F07FF8054606480068B9
:1003900020F00200044908600846006820F0F800D8
:1003A0000860284670BD0000103C02400920134937
:1003B000096801F48031B1F5803F01D101201CE0D2
:1003C0000E49096801F0100109B1062015E00B493A
:1003D000096801F4807109B102200EE0074909683B
:1003E00001F0EF0109B1072007E00449096801F0B5
:1003F000020109B1082000E0092070470C3C0240CE
:100400000348006840F00040014908607047000060
:10041000103C024030B502460C46092500F034F885
:100420000546092D19D10E48006820F440700C498A
:1004300008600846006840F40070086008460068DC
:1004400040F001000860146000F01EF80546044802
:10045000006820F0010002490860284630BD000015
:10046000103C02400548006800F0004028B10448F4
:1004700002490C390860034808607047103C02408C
:1004800023016745AB89EFCD08B509200090FFF740
:100490008DFF009002E0FFF789FF00909DF80000BB
:1004A0000128F8D09DF8000008BDF0B50A460021EB
:1004B0000023002400BF3DE0012505FA01F3156883
:1004C00005EA03049C4234D105684F000326BE4070
:1004D000B543056015794E00B540066835430560A3
:1004E0001579012D02D01579022D16D185684F009E
:1004F0000326BE40B543856055794E00B5408668F9
:1005000035438560456801268E40B54345604568A2
:1005100096798E40B6B235434560C5684F000326D4
:10052000BE40B543C560D5794E00B540C668354379
:10053000C560491C1029BFD3F0BDF0B500230024CD
:100540004D07ED0E02FA05F3CE1000F1200555F827
:1005500026504E07F70E0F26BE40B543CF1000F1D0
:10056000200646F82750CE1000F1200555F82650F9
:1005700045EA0304CE1000F1200545F82640F0BD01
:10058000418370470183704700BFFEE710B500202C
:100590000F4908600F48006820F440200D490860AA
:1005A0000846006840F48020086000200A49C1F82D
:1005B000A402022002F07EF9012005490860022011
:1005C00002F078F900200449C1F8A00210BD000033
:1005D000A082404200040240008040421CB501213C
:1005E000022000F053FD4FF44070009001208DF880
:1005F000040000208DF8060003208DF8050001207E
:100600008DF8070069460548FFF74FFF01200449B0
:1006100008600449C1F8A4021CBD000000040240A7
:10062000A08240420080404210B500200F4908607F
:100630000F48006820F440200D4908600846006813
:1006400040F48020086001200A49C1F8A402022079
:1006500002F030F9012005490860022002F02AF971
:1006600000200449C1F8A00210BD0000A082404251
:10067000000402400080404270B505460024164840
:10068000006820F4402014490860084600680860AB
:10069000002616E0002011490860022002F00AF945
:1006A00001200F49C1F8A0026006040E0B487C38F7
:1006B000006808B1601CC4B2012002F0FBF8701C95
:1006C000C6B2082EE6DB15B9FFF7AEFF01E0FFF773
:1006D0005DFF204670BD000000040240A082404241
:1006E0000080404270B504461548006820F4402060
:1006F000134908600846006840F480200860002024
:1007000010490860002517E0E0090E49091D08603E
:100710006006040E022002F0CDF801200A49C1F85B
:10072000A002022002F0C6F800200649086002205C
:1007300002F0C0F8681CC5B2082DE5DB70BD0000F2
:1007400000040240A08240420080404210B50F48A1
:10075000006820F440200D4908600846006840F415
:100760008020086001200A4908600A49C1F8A002F7
:10077000042002F09FF8002005490860042002F0E0
:1007800099F800200349C1F8A00210BD00040240FE
:10079000A48240420080404210B50F48006820F417
:1007A00040200D4908600846006840F48020086039
:1007B00000200A4908600A49C1F8A402042002F096
:1007C00079F80120054908600549C1F8A402042010
:1007D00002F070F810BD000000040240A082404208
:1007E0000080404210B500241348006820F44020E7
:1007F0001149086008460068086001200F49086038
:1008000002F058F801200E49C1F8A00202F052F897
:1008100007E0601CC4B2FA2C03DDFFF7BDFF012026
:1008200010BD0648803800680028F2D10349091F2E
:10083000086000BFF4E7000000040240A4824042C8
:100840000080404210B52DED108B86B0B0EE40AA6E
:10085000F0EE60AAB0EE41DAF0EE619AB0EE428AB4
:10086000F0EE628ACE4C69EEA90A48EE080A48EE1C
:10087000A80AB0EE600A02F0B9FAB0EE409A29EE8A
:10088000890AF0EE409A28EE090AB0EE408A28EE76
:10089000890AF0EE408A94ED150AD4ED170A20EE8D
:1008A000200AD4ED140A94ED161A00EEC10AF0EEF7
:1008B000000A20EE200AF0EE40DA94ED140AD4ED9E
:1008C000150A20EE200AD4ED160A94ED171A00EE50
:1008D000810AF0EE000A20EE200AB0EE40EA94ED24
:1008E000140A20EE000AD4ED150A94ED151A00EE54
:1008F000C10AD4ED160A94ED161A00EEC10AD4ED21
:10090000170A94ED171A00EE810AF0EE40EAC4EDE2
:10091000209A84ED218AC4ED228AC4ED23DA84ED85
:1009200024EAC4ED25EA28EE2E0A08EECE0A8DED63
:10093000040A28EEAD0A09EEEE0A8DED030A29EE4F
:100940008E0A08EE6D0A8DED020AD4ED180A9DEDAF
:10095000040A9FED941A40EE010AC4ED180AD4ED82
:10096000190A9DED030A9FED8F1A40EE010AC4EDAE
:10097000190AD4ED1A0A9DED020A9FED8A1A40EE7B
:10098000010AC4ED1A0A94ED150AB1EE400A20EEF0
:100990000A0AD4ED160A00EEEA0AD4ED170A00EEB0
:1009A000CD0AD4ED140A9FED801A40EE010AC4ED81
:1009B000140A94ED140A20EE0A0AD4ED160A00EE89
:1009C0008D0AD4ED170A00EEEA0AD4ED150A9FED60
:1009D000761A40EE010AC4ED150A94ED140A20EED1
:1009E0002A0AD4ED150A00EECD0AD4ED170A00EE5E
:1009F0008A0AD4ED160A9FED6C1A40EE010AC4ED86
:100A0000160A94ED140A20EE0D0AD4ED150A00EE34
:100A1000AA0AD4ED160A00EECA0AD4ED170A9FED11
:100A2000621A40EE010AC4ED170AD4ED140A60EE12
:100A3000A00A94ED151AD4ED151A41EE210A94ED91
:100A4000161AD4ED161A41EE210A94ED171AD4EDB8
:100A5000171A41EE210AB0EE600A02F0C7F9B0EEB3
:100A6000409A94ED140A20EE090A84ED140A94EDDC
:100A7000150A20EE090A84ED150A94ED160A20EEF7
:100A8000090A84ED160A94ED170A20EE090A84ED8E
:100A9000170A1EEE900A03F0A9FBCDE900019DEDB7
:100AA000000B00F0DDFFB0EE40CAF0EE60CA51EC82
:100AB0001C0B02F089FE41EC1B0B9FED3C0B53EC31
:100AC000102B03F0D3F841EC1F0B02F089FE00EE6F
:100AD000100A84ED1E0ABDEEC00A10EE100A01B223
:100AE000702001531EEE100A03F080FB41EC1F0B37
:100AF000B0EE4F0AF0EE6F0A00F0B2FFB0EE40BA6F
:100B0000F0EE60BA9FED290B53EC102B51EC1B0B50
:100B100003F0ACF841EC1C0B02F062FE00EE100A90
:100B200084ED1D0ABDEEC00A10EE100A01B26E205F
:100B300001531DEE900A03F059FB41EC1B0BB0EE84
:100B40004B0AF0EE6B0A00F08BFFB0EE40CAF0EEFD
:100B500060CA9FED160B53EC102B51EC1C0B03F0ED
:100B600085F841EC1F0B02F03BFEE06794ED1F0A95
:100B7000F2EE040A20EE200ABDEEC00A10EE100AC2
:100B800001B272200153B4F9200041109A200153A0
:100B9000E18B9C20015306B0BDEC108B10BD000012
:100BA000680000200AD7A33B6F12033B000000201F
:100BB000DCA54C4010B52DED048BA44C6078217859
:100BC00000EB012001B26184E078A17800EB012004
:100BD00001B2A1846079217900EB0120404201B289
:100BE000E184607A217A00EB012000B2A083E07AF0
:100BF000A17A00EB012001B2E183607B217B00EB55
:100C00000120404201B22184B4F9200000EE100A14
:100C1000B8EEC00AD4ED060A30EE600A10EE101AE3
:100C2000084603F0E3FA41EC190B9FED890B53ECF6
:100C3000102B03F01BF841EC180B02F0D1FD00EE75
:100C4000100AD4ED280A30EE200A84ED280AB4F9FF
:100C50001C0000EE100AB8EEC00AD4ED040A30EE13
:100C6000600ADFED7D0A20EE200A84ED0C0AB4F95B
:100C70001E0000EE100AB8EEC00AD4ED050A30EEF0
:100C8000600ADFED750A20EE200A84ED0D0AB4F942
:100C9000200000EE100AB8EEC00AD4ED060A30EECD
:100CA000600ADFED6D0A20EE200A84ED0E0AB4F929
:100CB000220000EE100AB8EEC00A84ED0F0AB4F963
:100CC000240000EE100AB8EEC00A84ED100AB4F950
:100CD000260000EE100AB8EEC00A84ED110AA07BCF
:100CE00000B394ED113AF0EE432A94ED103AB0EED1
:100CF000432A94ED0F3AF0EE431A94ED0E3AB0EE1B
:100D0000431A94ED0D3AF0EE430A94ED0C3AB0EE2E
:100D1000430AB7EE004AF7EE003AB7EE003AFFF7A3
:100D200091FD8FE0B4F920104C48B0F900009638DE
:100D3000814217DDB4F920104848B0F90000963020
:100D400081420FDAB4F92000B0F5967F0ADAB4F9DF
:100D5000200010F5967F05DD41480088401C404981
:100D600008800EE000203E4908809FED3E0A84ED99
:100D7000040A9FED3C0A84ED050A9FED3A0A84EDD2
:100D8000060A37480088C82828DD35480088B0F5AD
:100D9000167F23DCD4ED040AB4F91C0000EE100A1F
:100DA000B8EEC00A30EE800A84ED040AD4ED050ADC
:100DB000B4F91E0000EE100AB8EEC00A30EE800A48
:100DC00084ED050AD4ED060AB4F9200000EE100AFD
:100DD000B8EEC00A30EE800A84ED060A208C1F4966
:100DE00008801F480088B0F5167F2BDD0120A07316
:100DF00094ED040ADFED1C0A80EE201A84ED041A3B
:100E000094ED050ADFED180A80EE201A84ED051A2C
:100E100094ED060ADFED140A80EE201A84ED061A1E
:100E200094ED040A114880ED010A94ED050A80ED65
:100E3000020A94ED060A80ED030A02F0B1FB0020DD
:100E400007490880BDEC048B10BD0000680000203D
:100E5000E91F7E100000003FA8B38B39200000205E
:100E60001E000020000000000000C8434C010020CC
:100E700070B50446FFF76AFCD020FFF733FCFFF79C
:100E8000B1FC2046FFF72EFCFFF7ACFCFFF75EFC41
:100E9000D120FFF727FCFFF7A5FC0020FFF7ECFBB4
:100EA0000546FFF779FC284670BD2DE9F04106465E
:100EB0000F4614461D46FFF749FC002141EA460152
:100EC000C8B2FFF70FFCFFF78DFC20B1FFF764FC01
:100ED0000120BDE8F0813846FFF704FCFFF782FCF3
:100EE000FFF734FC012101EB4601C8B2FFF7FAFB22
:100EF000FFF778FC0DE0012C04D10020FFF7BCFBCC
:100F0000287003E00120FFF7B7FB2870601EC4B211
:100F10006D1C002CEFD1FFF73FFC0020D9E710B586
:100F20000446E006010E1C2000F043F810BD10B589
:100F30000446E006010E1B2000F03BF810BD70B522
:100F400004460025BC2C01DB012510E0622C01DBEE
:100F500002250CE02A2C01DB032508E0142C01DB20
:100F6000042504E00A2C01DB052500E006252946BE
:100F70001A2000F01EF870BD70B50446B4F57A7FF3
:100F800001DD4FF47A74042C00DA04244FF47A70F3
:100F900090FBF4F0401EC5B22946192000F009F874
:100FA0000546264604EBD671C1F34F00FFF7C7FF95
:100FB00070BD70B505460C46FFF7C8FBD020FFF7A3
:100FC00091FBFFF70FFC18B1FFF7E6FB012070BDA6
:100FD0002846FFF787FBFFF705FC2046FFF782FB5B
:100FE000FFF700FC18B1FFF7D7FB0120EFE7FFF791
:100FF000D3FB0020EBE700BFFEE7704770B5002190
:1010000000230F22C4781CB3174C246804F4E06456
:10101000C4F5E064C4F30721C1F10404E3B20A415A
:1010200044789C40E1B28478144021430C07210E9F
:101030000E4C05786155047804F01F050124AC407E
:1010400005786D11AD0005F1E025C5F8004109E016
:10105000047804F01F050124AC40054D0678761194
:1010600045F8264070BD00000CED00E000E400E013
:1010700080E100E002490143024A1160704700002C
:101080000000FA050CED00E07047000029B1064AA7
:1010900012680243044B1A6004E0034A1268824358
:1010A000014B1A60704700003038024029B1064AEF
:1010B00012680243044B1A6004E0034A1268824338
:1010C000014B1A60704700004038024029B1064ABF
:1010D00012680243044B1A6004E0034A1268824318
:1010E000014B1A607047000044380240704700000E
:1010F0000CB50020019000903448006840F4803026
:101100003249086000BF3148006800F400300090A8
:101110000198401C0190009818B90198B0F5A04FB3
:10112000F1D12A48006800F4003010B1012000908D
:1011300001E0002000900098012846D1234840306B
:10114000006840F080502149403108602048006824
:1011500040F440401E4908601C48083000681B49A4
:10116000083108600846006840F4004008600846FE
:10117000006840F4A05008601648091F0860081F66
:10118000006840F08070091F086000BF0F480068C9
:1011900000F000700028F9D040F205700E49086098
:1011A0000A480830006820F0030008490831086048
:1011B0000846006840F00200086000BF034808309D
:1011C000006800F00C000828F8D10CBD003802407F
:1011D0000070004008544007003C0240042808D139
:1011E0004FF0E021096941F004014FF0E022116164
:1011F00007E04FF0E021096921F004014FF0E022FF
:10120000116170477047000010B51548006840F440
:101210007000134908601348006840F0010011494C
:10122000086000200F49083108600E4800680E4928
:1012300008400C4908600D48091D0860081F006837
:1012400020F48020091F0860002006490C31086046
:10125000FFF74EFF4FF0006001498039086010BD74
:1012600088ED00E000380240FFFFF6FE1030002459
:10127000F0B50C46154600210022068C4FF6FE778D
:101280003E400684018B028C4FF60C7631407E1C6A
:1012900006EA03162E4331434FF6F576324044F00A
:1012A0000106324301830284F0BDF0B50C461546B9
:1012B000002100220026078C4FF6EF7C07EA0C077E
:1012C0000784018B028C4FF6FF7707EA041640F67D
:1012D000FF4739404FF6FF7707EA033739434FF6A8
:1012E000FF7707EA052739434FF65F773A4046F024
:1012F00010073A4301830284F0BDF0B50C46154651
:10130000002100220026078C4FF6FF6C07EA0C072D
:101310000784818B028C4FF6FF7707EA04264FF68D
:101320000C7739404FF6FF7707EA03172F4339430D
:101330004FF2FF573A4046F480773A438183028464
:10134000F0BDF0B50C461546002100220026078CA2
:101350004EF6FF7C07EA0C070784818B028C4FF660
:10136000FF7707EA043640F6FF4739404FF6FF772C
:1013700007EA052739434FF6FF7707EA0337394372
:1013800045F6FF773A4046F480573A43818302841A
:10139000F0BD000010B5384C0221384800F026F9A5
:1013A000012864D13648006860B10221334800F05A
:1013B000ADF90021314800F0C6FA207840F0100065
:1013C000207054E02D4800F00EF9608000212B4879
:1013D00000F09CF9207800F0100000B3207800F0B5
:1013E000800078B36088B0F5967F09DD6088B0F53D
:1013F000487F05DA6068400060606068606032E0E5
:101400006088B0F5AF6F0BDD6088B0F5E16F07DA8B
:10141000606840006060606840F00100606022E049
:10142000608840F6980188421DDD608840F62821DA
:10143000884218DA6078401C6070207800F0F00074
:10144000207010E0FFE7608841F2680188420ADD01
:10145000608841F25C21884205DA207840F0800003
:10146000207000206070207820F010002070022191
:10147000024800F0A9F810BD24010020000001403E
:101480002002404210B5164C0121164800F0AEF87B
:10149000012820D1207800F08000E0B1207820F0F1
:1014A00010002070207800F00F0018B9207840F06C
:1014B00040002070207800F00F000E2803DA20781A
:1014C000401C207007E0207820F0800020702078F9
:1014D00000F0F00020700121024800F075F810BD06
:1014E000240100200000014010B50121164800F041
:1014F0007DF8012822D115480068401C1349086076
:10150000084600686421B0FBF1F201FB120020B92B
:101510000F480068401C0E4908600C4800684FF4F2
:10152000C871B0FBF1F201FB120028B9094800783C
:1015300080F001000749087001F076FA01210248A5
:1015400000F042F810BD0000000800401400002028
:10155000180000201D00002010B5124C0221124876
:1015600000F044F8012817D11048006850B102215A
:101570000D4800F0CBF800210B4800F0E4F9012001
:10158000A07009E0A07838B1074800F02CF8E060BE
:10159000012060700020A0700221034800F014F8C0
:1015A00010BD00000C010020000C00400002404271
:1015B00021B1028842F08002028004E002884FF6E6
:1015C0007F731A4002807047CA430282704721B17C
:1015D000028842F00102028004E002884FF6FE73A6
:1015E0001A40028070470146486B704730B502468A
:1015F000002000230024158A05EA0103958905EAE5
:10160000010413B10CB1012000E0002030BD70B521
:1016100005460C46208850B92389A288618828464F
:10162000FFF726FEE188284600F08FF925E02088A4
:1016300004280AD12389A28861882846FFF735FE4D
:10164000E188284600F08AF917E0208808280AD1A6
:101650002389A28861882846FFF74FFEE188284643
:1016600000F089F909E02389A28861882846FFF7FC
:1016700068FEE188284600F087F970BD1AB18389B9
:101680000B43838102E083898B4383817047000091
:1016900070B5002400220023058C4FF6FE763540FD
:1016A0000584028C8388048B4FF68F752C40B51E01
:1016B0002C400D882C43751E2A408D892A434D8865
:1016C0002A43104DA84202D00F4DA84213D14FF625
:1016D000F7752A40CD892A434FF6FB752A408D883D
:1016E0002A434FF6FF652B404FF6FF552B400D8ADE
:1016F0002B434D8A2B43838004838D68456302848A
:1017000070BD000000000140000401400A460021B5
:10171000018C4FF6FD7319401143018470470A464E
:101720000021018B4FF6F773194011430183704775
:1017300070B5002400220023058C4FF6EF7635406B
:101740000584028C8388048B48F6FF752C404FF685
:10175000FF452C400D884FF6FF7606EA05252C4301
:101760004FF6DF752A408D8906EA05152A434D8814
:1017700006EA05152A43154DA84202D0144DA84289
:101780001DD14FF67F752A40CD894FF6FF7606EAC8
:1017900005152A434FF6BF752A408D8806EA0515C0
:1017A0002A434FF6FF352B404FF2FF752B400D8A31
:1017B00006EA85052B434D8A06EA85052B4383807F
:1017C00004838D688563028470BD000000000140C1
:1017D000000401400A460021018B4FF2FF731940BB
:1017E0004FF6FF7303EA0223194301837047000099
:1017F00070B5002400220023058C4FF6FF663540AB
:101800000584028C8388848B4FF68F752C404FF6AD
:10181000FC752C400D882C434FF6FF552A408D89CE
:101820004FF6FF7606EA05252A434D8806EA052588
:101830002A43154DA84202D0144DA8421DD14FF2A3
:10184000FF752A40CD894FF6FF7606EA05252A4323
:101850004FF6FF352A408D8806EA05252A434EF6C5
:10186000FF752B404DF6FF752B400D8A06EA0515D6
:101870002B434D8A06EA05152B43838084838D68AC
:10188000C563028470BD00000000014000040140F7
:101890000A460021818B4FF6F7731940114381836B
:1018A0007047000070B5002200230024058C4EF61E
:1018B000FF7635400584038C8488828B48F6FF755B
:1018C0002A404FF6FF452A400D884FF6FF7606EA7C
:1018D00005252A434DF6FF752B408D8906EA05350F
:1018E0002B434D8806EA05352B430A4DA84202D00A
:1018F000094DA84208D14BF6FF752C400D8A4FF6D2
:10190000FF7606EA85152C43848082838D68056402
:10191000038470BD00000140000401400A4600211C
:10192000818B4FF2FF7319404FF6FF7303EA0223D6
:101930001943818370474163704781637047C16376
:1019400070470164704741627047028B4FF6F37332
:101950001A400283028B0A4302837047028B4FF2C4
:10196000FF331A400283028B4FF6FF7303EA012311
:101970001A4302837047828B4FF6F3731A408283B7
:10198000828B0A4382837047828B4FF2FF331A4067
:101990008283828B4FF6FF7303EA01231A4382830B
:1019A0007047000000220288184B98420ED0184B56
:1019B00098420BD0B0F1804F08D0164B984205D01A
:1019C000154B984202D0154B984204D14FF68F73B5
:1019D0001A404B881A43124B984207D0114B984239
:1019E00004D04FF6FF431A400B891A4302804B681C
:1019F000C3620B880385054B984202D0044B984282
:101A000001D18B7A03860123838270470000014055
:101A1000000401400004004000080040000C0040A9
:101A2000001000400014004000BFFEE703B401981E
:101A30004100009850EAC12018BF04204A0D18BF89
:101A400040F0010040F2FF72B2EB515F08BF40F07E
:101A50000200012808BF052002B070470000000006
:101A600070B5C1482DED020B2DED0E8B82B0119D8E
:101A700025F000449FEDBEDB9FEDBFEB84423EDBD3
:101A8000A4F140511098A1F17F6108430FD0BC48E8
:101A9000844202DC28D1109830B39DED100B02B0C7
:101AA000BDEC0E8B02B0BDE8704000F005BA9DEDB4
:101AB000100B53EC1D2B51EC100B02F0D7F89DEDE1
:101AC000100B41EC180B53EC1E2B51EC100B02F0D9
:101AD000CDF853EC182B01F0B5FE41EC100B02B021
:101AE000BDEC0E8B02B070BD0120FEF7C5FB02B04D
:101AF000BDEC0E8B02B0BDE8704000F0E9B9A14822
:101B00009FEDA18B844256DA9DED100BB4F1795F05
:101B10000ADA51EC100BFFF789FF042808BF00F028
:101B2000E7F99DED100BDAE753EC102B51EC100B9D
:101B300002F09CF841EC190B95480621B0EE490AD9
:101B4000F0EE690A784400F03BF953EC192B51ECA4
:101B5000100B02F08BF841EC1A0B8E48B0EE490ADC
:101B6000F0EE690A0421784400F02AF953EC192BAD
:101B700051EC100B02F07AF853EC182B01F062FED6
:101B800041EC100B51EC1A0B53EC102B01F002FF3F
:101B9000CDE900019DED000B53EC102B9DED100BDA
:101BA00051EC100B02F062F89DED101B53EC112B61
:101BB00001F048FED2E09DED100B51EC100B00F04F
:101BC000C5FE53EC182B02F04FF99FED730BCDE9D6
:101BD000000153EC102B9DED000B51EC100B02F0AB
:101BE00045F841EC190B6E480621B0EE490AF0EEBB
:101BF000690A784400F0E4F853EC192B51EC100B0F
:101C000002F034F841EC1B0B6648B0EE490AF0EEE6
:101C1000690A0421784400F0D3F853EC192B51ECF5
:101C2000100B02F023F853EC182B01F00BFE41ECE3
:101C30001C0B51EC190B01F0EFFB41EC180B5A484F
:101C40009FED5BABA04222DC53EC1C2B51EC1B0B39
:101C500001F0A0FECDE900019DED000B51EC180B49
:101C600053EC102B02F002F853EC182B01F0EAFDB4
:101C700053EC1A2B01F0FAFF53EC1D2B02F0CCF9B8
:101C800053EC1E2B02F0F0F841EC100B5FE08DEDF1
:101C9000008B002000909DED000B51EC180B53ECD5
:101CA000102B01F0CFFD9DED000B41EC1E0B53EC12
:101CB000102B51EC100B01F0D9FF53EC192B02F053
:101CC000D3F853EC1E2B01F065FE41EC190B53ECDD
:101CD0001C2B51EC1B0B01F05DFE41EC1B0B53EC7C
:101CE0001A2B51EC190B01F0C1FF53EC1D2B02F024
:101CF000BBF841EC190B53EC1A2B51EC180B01F00B
:101D0000B5FF53EC1B2B01F0B1FF53EC192B02F084
:101D100083F99DED000B41EC180B53EC1A2B51ECA1
:101D2000100B01F0A3FF9FED249B53EC192B02F045
:101D30009BF841EC100B51EC180B53EC102B02F0FC
:101D40006BF953EC192B02F08FF841EC100B002DBE
:101D50003FF7C5AE51EC100B01F036FD41EC100B16
:101D6000BDE60000000000000000F03F00000000A1
:101D7000075C143326A6913C182D4454FB21F93FEF
:101D80000000F07F0000E03F000000000000F03F96
:101D9000A0270000AE270000000000000000E03F88
:101DA000F2260000002700003333EF3F0000000060
:101DB0000000000000000040182D4454FB21E93FC2
:101DC00070B504462DED028B4D1E00EBC500B0EE44
:101DD000408AF0EE608A90ED000B35F0060017D0D7
:101DE00053EC182B51EC100B01F040FF41EC100BA1
:101DF0006D1E04EBC50090ED001B51EC100B53EC75
:101E0000112B01F01FFD41EC100B35F00600E7D15E
:101E1000022D36D0042D1CD0062D1CBFBDEC028B2C
:101E200070BD53EC182B51EC100B01F01FFF94ED1B
:101E30000A1B53EC112B01F005FD53EC182B01F09C
:101E400015FF94ED081B53EC112B01F0FBFC41EC4A
:101E5000100B53EC182B51EC100B01F007FF94ED15
:101E6000061B53EC112B01F0EDFC53EC182B01F089
:101E7000FDFE94ED040B53EC102B01F0E3FC41EC60
:101E8000100B53EC182B51EC100B01F0EFFE94EDFE
:101E9000021B53EC112B01F0D5FC53EC182B01F075
:101EA000E5FE94ED001B53EC112B01F0CBFCBDECD7
:101EB000028B41EC100B70BD10B553EC102B51ECA4
:101EC000100B01F0BFFC41EC100B10BD0000000036
:101ED0009FED050B10B553EC102B51EC100B01F0DE
:101EE00059FD41EC100B10BD000000000000000087
:101EF0009FED050B10B553EC102B51EC100B01F0BE
:101F0000B5FE41EC100B10BD0000000000000010F9
:101F100070B58E4C8E4DA079092876D2DFE800F09E
:101F2000051B3B5B7C9CAFC4FE0095ED050ADFED15
:101F3000890AB4EEE00AF1EE10FA03DD002001F0A8
:101F400015FA07E0042001F011FA0120A07182487F
:101F50000068E060F8E09FED810A01F02DFA7E490B
:101F6000E0680968081AB0F5966F13D995ED050A6F
:101F7000DFED7B0AB4EEE00AF1EE10FA05DD012098
:101F8000784908700620A07104E00220A071724810
:101F90000068E060D8E09FED740A01F00DFA6E4928
:101FA000E0680968081AB0F5966F13D995ED050A2F
:101FB000DFED6B0AB4EEE00AF1EE10FA05DDFF206A
:101FC000684908700620A07104E00320A0716248EF
:101FD0000068E060B8E09FED650A01F0EDF95E4948
:101FE000E0680968081AB0F5966F14D995ED050AEE
:101FF000DFED5B0AB4EEE00AF1EE10FA06DDFE203A
:10200000584908700620A07105E09CE00420A071EA
:1020100051480068E06097E09FED550A01F0CCF967
:102020004D49E0680968081AB0F5966F13D995ED27
:10203000050ADFED4B0AB4EEE00AF1EE10FA05DD19
:102040000220484908700620A07104E00520A07114
:1020500041480068E06077E0012001F087F93E49DF
:10206000E0680968081AB0F5966F07D9042001F0F6
:102070007DF90120A07138480068E06064E09FEDC0
:102080003C0A3348E83880ED390A364890F90000B8
:10209000002803DD032001F069F902E0022001F0CD
:1020A00065F90720A0714FE02E4890F90000002844
:1020B00013DD2748E838D0ED390A2A4890F90000A6
:1020C000C0EB001000EB400000EE100AB8EEC00AB2
:1020D000F4EEC00AF1EE10FA18DA224890F9000086
:1020E000002821DA1A48E838D0ED390A1D4890F95D
:1020F0000000C0EB001000EB400000EE100AB8EE4C
:10210000C00AF4EEC00AF1EE10FA0DD89FED190ADC
:1021100001F052F9042001F029F900E005E00E4831
:102120000068E0600820A0710EE00B49E0680968D3
:10213000081AB0F5FA6F05D99FED0E0A01F03CF9C7
:102140000020A07100BF00BF00BF70BD940100203F
:102150000C0100200000484218000020000034421A
:102160000000C84222000020000007430000344362
:10217000000000000000B44210B508484078022872
:1021800003D10221032000F01DFC044840780128FF
:1021900003D10121032000F015FC10BD94010020A3
:1021A00000B587B001211020FEF770FF0121022049
:1021B000FEF76CFF01212020FEF768FF4CF2A00023
:1021C000059001208DF8180000208DF81A000120DC
:1021D0008DF81B0003208DF8190005A91B48FEF798
:1021E00064F94CF2A0011948FEF7CAF97020039077
:1021F00001208DF8100000208DF8120001208DF8CC
:10220000130003208DF8110003A91148FEF74DF9C2
:1022100070210F48FEF7B4F94FF4284001900120D7
:102220008DF8080000208DF80A0001208DF80B00C1
:1022300003208DF8090001A90648FEF736F94FF48E
:1022400028410448FEF79CF907B000BD0004024095
:10225000001002400014024010B500F08BFD00F0A9
:102260005BFF012031490870314848604FF400613C
:102270003048FEF785F910212F48FEF781F900BF9D
:102280004FF480412D48FEF77BF94FF400412B4875
:10229000FEF776F900BF00BF4FF400512548FEF766
:1022A0006FF94FF400412348FEF76AF900BF00BF01
:1022B00080212248FEF764F920212048FEF760F9CA
:1022C00000BF00BF20211C48FEF75AF940211A48E0
:1022D000FEF756F900BF002001F03AF8002001F0A7
:1022E00029F8002001F05AF8002001F049F80420F4
:1022F0000E49087200210D488172C160042180F8E6
:1023000028109FED0F0A80ED430A4FF4AF61A0F84B
:102310001011002180F8151180F82011052180F896
:102320000811B7EE000A80ED250A10BD2400002038
:102330005C01002000140240001002400004024032
:102340000000B44210B500F045FC10BD10B54FF4CC
:1023500000612248FEF716F910212148FEF712F914
:1023600000BF4FF400411F48FEF70CF94FF48041C5
:102370001C48FEF705F900BF00BF4FF400411748A5
:10238000FEF700F94FF400511448FEF7F9F800BFCA
:1023900000BF20211348FEF7F5F880211148FEF711
:1023A000EFF800BF00BF20210D48FEF7EBF84021F9
:1023B0000B48FEF7E5F800BF4FF4966000F0C8FF49
:1023C0004FF4966000F0B6FF4FF4966000F0E6FF21
:1023D0004FF4966000F0D4FF10BD000000140240DE
:1023E000001002400004024010B54FF40061224882
:1023F000FEF7C8F810212148FEF7C4F800BF4FF4DB
:1024000080411F48FEF7BEF84FF400411C48FEF71C
:10241000B7F800BF00BF4FF400511748FEF7B2F8FD
:102420004FF400411448FEF7ABF800BF00BF802115
:102430001348FEF7A7F820211148FEF7A1F800BFC6
:1024400000BF40210D48FEF79DF820210B48FEF704
:1024500097F800BF4FF4966000F07AFF4FF4966053
:1024600000F068FF4FF4966000F098FF4FF496601C
:1024700000F086FF10BD0000001402400010024072
:102480000004024010B5002000F062FF002000F0C0
:1024900051FF002000F082FF002000F071FF10BD0E
:1024A00010B54FF400612048FEF76AF810211F486C
:1024B000FEF766F800BF4FF480411D48FEF760F854
:1024C0004FF400411A48FEF75BF800BF00BF4FF41D
:1024D00000511548FEF754F84FF400411248FEF73A
:1024E0004FF800BF00BF80211148FEF749F82021B6
:1024F0000F48FEF745F800BF00BF20210B48FEF74C
:102500003FF840210948FEF73BF800BF002000F0EB
:102510001FFF002000F00EFF002000F03FFF002012
:1025200000F02EFF10BD0000001402400010024019
:102530000004024010B54FF400612148FEF722F874
:1025400010212048FEF71CF800BF4FF480411E48C0
:10255000FEF718F84FF400411B48FEF711F800BFD2
:1025600000BF4FF400511648FEF70CF84FF400413D
:102570001348FEF705F800BF00BF20211248FEF700
:1025800001F880211048FDF7FBFF00BF00BF2021AC
:102590000C48FDF7F7FF40210A48FDF7F1FF00BFA7
:1025A00040F26C7000F0D4FE40F26C7000F0C2FE9D
:1025B000002000F0F3FE002000F0E2FE10BD00005D
:1025C00000140240001002400004024010B54FF415
:1025D00000612148FDF7D4FF10212048FDF7D2FF0C
:1025E00000BF4FF400411E48FDF7CCFF4FF480417F
:1025F0001B48FDF7C5FF00BF00BF4FF40041164860
:10260000FDF7C0FF4FF400511348FDF7B9FF00BFBD
:1026100000BF80211248FDF7B5FF20211048FDF7CB
:10262000AFFF00BF00BF40210C48FDF7ABFF2021EA
:102630000A48FDF7A5FF00BF002000F089FE00203A
:1026400000F078FE40F26C7000F0A8FE40F26C7072
:1026500000F096FE10BD0000001402400010024081
:102660000004024070B5074C04F12005227804F103
:102670000C0151F8220080472A78291D51F82200C8
:10268000804770BD2C000020134800F120018278A3
:1026900022B1012A12D0062A1BD119E00A78042A95
:1026A00009D005220A700D4A126802F57A7242605A
:1026B0000122827001E0012282700BE0074B426828
:1026C0001B689A4203D200220A700622827001E03F
:1026D00000E000BF00BF70472C0000201800002061
:1026E000134800F12001827822B1022A12D0062A72
:1026F0001BD119E00A78042A09D005220A700D4A74
:10270000126802F57A7242600222827001E00222AF
:1027100082700BE0074B42681B689A4203D2012289
:102720000A700622827001E000E000BF00BF70471F
:102730002C00002018000020134800F120018278AE
:1027400022B1052A12D0062A1BD119E00A78042AE0
:1027500009D005220A700D4A126802F57A724260A9
:102760000522827001E0052282700BE0074B42686F
:102770001B689A4203D204220A700622827001E08A
:1027800000E000BF00BF70472C00002018000020B0
:10279000134800F12001827822B1032A12D0062AC0
:1027A0001BD119E00A78042A09D005220A700D4AC3
:1027B000126802F57A7242600322827001E00322FD
:1027C00082700BE0074B42681B689A4203D20222D8
:1027D0000A700622827001E000E000BF00BF70476F
:1027E0002C00002018000020134800F120018278FE
:1027F00022B1042A12D0062A1BD119E00A78042A31
:1028000009D005220A700D4A126802F57A724260F8
:102810000422827001E0042282700BE0074B4268C0
:102820001B689A4203D203220A700622827001E0DA
:1028300000E000BF00BF70472C00002018000020FF
:1028400010B504466FF00400FEF7C8FCE11704EB76
:102850005171C1F3C701074A11701046007800EBAF
:102860004001C1EBC0104FF6FF7101EAC000024900
:10287000088010BD100000201200002070B5044632
:102880004FF4077094FBF0F0C6B24FF4077094FB5E
:10289000F0F100FB114085B205E04FF4077000F045
:1028A0002FF8701EC6B2002EF7D115B1284600F0E1
:1028B00027F870BD0146114A12784A434FF0E023D1
:1028C0005A6100229A611A46126942F001021A61A5
:1028D00000BF4FF0E022106900F001021AB100F4CD
:1028E0008032002AF5D04FF0E022126922F0010276
:1028F0004FF0E0231A6100229A6170471000002017
:102900000146114A12884A434FF0E0235A610022DF
:102910009A611A46126942F001021A6100BF4FF033
:10292000E022106900F001021AB100F48032002A9E
:10293000F5D04FF0E022126922F001024FF0E023BF
:102940001A6100229A6170471200002082B0CDE91E
:10295000000121F0004001909DED000B02B051EC10
:10296000100B704710B50A480078012804D00228DF
:1029700005D0032809D105E000F00EFA06E000F0CA
:102980002BFB03E0FFF7C4FA00E000BF00BF10BD5F
:102990002400002010B50A480078012804D002283D
:1029A00005D0032809D105E000F0F8F906E000F0B1
:1029B00093FB03E0FFF7E0FB00E000BF00BF10BDAA
:1029C0002400002070B505460C4615484068406953
:1029D00020B1134840684169204688471048047078
:1029E000204600F04FF80E49486008464068C57020
:1029F0000C4800684968C860002009494968887126
:102A00000749496888700649496848700448406821
:102A1000806920B10248406881692846884770BDB6
:102A2000240000201800002010B5124C2078F8B1C6
:102A3000E07870B110480068C01C606001210F4848
:102A4000FDF7A0FD00210E48FEF760FE0020E070BB
:102A50000EE0094960680968884209D801210748E1
:102A6000FDF78EFD002020706070A0700120E070E6
:102A700010BD00000C0100201400002000140240D2
:102A8000000C00400146024850F821007047000049
:102A9000B0010020014890ED430A70472400002057
:102AA00000B589B001210846FEF7F0FA0121084679
:102AB000FEF70CFB4FF48070079002208DF8200089
:102AC00000208DF8220003208DF8210001208DF8D0
:102AD000230007A92948FDF7E8FC0122082127481F
:102AE000FDF72BFDA720ADF80C000020ADF80E007F
:102AF00042F2107004900020ADF8140003A92048A1
:102B0000FEF750FF0020ADF80000ADF802000120F4
:102B1000ADF804000020ADF806000320ADF8080071
:102B200069461748FEF773FD012203211448FEF79A
:102B3000A5FD01211248FEF74AFD1B208DF8180063
:102B400001208DF8190003208DF81A0001208DF85E
:102B50001B0006A8FEF752FA19208DF81800012074
:102B60008DF8190002208DF81A0001208DF81B0045
:102B700006A8FEF743FA09B000BD000000000240BD
:102B80000000014010B5002011490C7804F0400409
:102B9000ECB14C68220E4C68C4F30743DC43E4B24A
:102BA000944209D142B98C88C4F307220B79DC43E3
:102BB000E4B2944200D1104618B10C7804F08004BD
:102BC0002CB90C7824F040040C7000244C7010BD1B
:102BD0002401002030B5FFF7D5FF0546494C982D5C
:102BE00023D00CDC622D3AD004DC022D63D0222DE0
:102BF00073D14AE0682D0BD0902D7ED172E0A82DC4
:102C000038D0B02D1ED0C22D4AD0E02D75D15DE058
:102C100001203D49496848703C48006808B90120D6
:102C200000E00020394908606AE00220364949681E
:102C300048703648006808B9012000E00020334998
:102C400008605DE003203049496848702F480068FB
:102C500008B9012000E000202C49086050E0012064
:102C600020722A48006808B9012000E000202749A6
:102C7000086045E0022020722448006808B901205D
:102C800000E00020214908603AE0032020721F483C
:102C9000006808B9012000E000201C4908602FE00E
:102CA000042020721948006808B9012000E00020C3
:102CB0001649086024E0052020721448006808B90D
:102CC000012000E000201149086019E00620207270
:102CD0000E48006810B9012001E00EE000200B4909
:102CE00008600DE0072020720848006808B901203C
:102CF00000E000200549086002E00020207200BFCB
:102D000000BF30BD2401002024000020A4824242E4
:102D10000C4901F120000C4ACA600C4B0B610C4BB2
:102D20004B610C4B8B610C4BCB610C4A42600C4BE2
:102D300083600C4BC3600C4B03610C4B83610C4BE9
:102D4000436170472C00002089260008E126000816
:102D500091270008E9270008392700084D230008BB
:102D6000E923000835250008CD2500088524000842
:102D7000A124000800200449086004484860044871
:102D800088600448C8607047B00100205C010020E2
:102D900078010020940100207047000010B50A4817
:102DA0004078022803D102210120FFF70BFE0648DC
:102DB0004078032807D103210120FFF703FE9FED90
:102DC000030A00F0F9FA10BD5C0100200000B442D3
:102DD000034800F10C01034A8260034A4A607047CD
:102DE00038010020C534000889340008B6EE001A06
:102DF00020EE011AF0EE410A10EE100A0749A1EB8D
:102E0000600000EE100A60EE801AB7EE081A01EEBC
:102E1000C01A21EE001AB0EE410A7047865A375F99
:102E20001CB501212020FEF731F94FF4C06000905D
:102E300001208DF8040000208DF8060001208DF897
:102E4000070003208DF8050069460448FDF72DFBB7
:102E50004FF4C0610148FDF793FB1CBD0014024014
:102E60001A48002107E01A4B53F82120194B43F868
:102E700021204A1CD1B20429F5DB164A5268521CA3
:102E800082B1144A9268521C62B1124AD268521C32
:102E900042B1104A52682AB10E4A926812B10D4AE4
:102EA000D26812B9002282730EE00A4A92ED010A3A
:102EB00080ED040A92ED020A80ED050A92ED030A04
:102EC00080ED060A0122827370470000680000202E
:102ED00000000E084C01002010B54FF4A060FEF772
:102EE000C9F8A820FFF7ACFC4FF4FA60FFF7C6FC66
:102EF000FFF796FFFFF754F9142140F2CF7000F06E
:102F000011F9142140F2CF7000F068F9002140F26D
:102F1000473000F073FBFFF7C3FD00F0BBF9FFF78C
:102F20009FFF00F0E9FB00F099FB00F0EBFA4FF493
:102F3000AF614FF08040FEF700FD4FF4FA60FFF7FD
:102F40009DFCFFF789F935E01C4800781C49097899
:102F500088422FD01B4800681B4908601B48006846
:102F6000184908600846006817490968401AB0F512
:102F7000C87F05D016480068B0F57A7F00D91AE0FE
:102F800013480068401C124908600D4800780B493E
:102F90000870FFF7D7F900F00FFCFFF7FBFCFFF715
:102FA000E1FC00F0B3F80948006806490968401AD6
:102FB00008490860C8E700BF002010BD1C000020C1
:102FC0001D0000200400002000000020140000204C
:102FD000080000200C00002010B52DED028B3C4CA9
:102FE000207A08286BD2DFE800F06A04101C28342D
:102FF0004055002000F0BAF93648006808B90120B1
:1030000000E00020334908605DE0012000F0AEF9E7
:103010003048006808B9012000E000202D49086010
:1030200051E0022000F0A2F92A48006808B9012006
:1030300000E000202749086045E0032000F096F9F1
:103040002448006808B9012000E0002021490860F8
:1030500039E0042000F08AF91E48006808B9012010
:1030600000E000201B4908602DE0FFF713FDB0EEE3
:10307000408AF2EE040A78EE200AB0EE600A00F010
:103080009BF91448006808B9012000E000201149AC
:10309000086018E0FFF7FEFCB0EE408AF2EE040A8A
:1030A00078EE600AB0EE600A00F086F90948006820
:1030B00008B9012000E000200649086003E0042070
:1030C00000F054F900BF00BFBDEC028B10BD000042
:1030D00024010020A882424210B50A484078012805
:1030E00003D101210220FFF76DFC06484078032838
:1030F00007D103210220FFF765FC9FED030A00F0D2
:103100005BF910BD780100200000B44210B5FFF754
:10311000A9FA00F0C5F910BD10B5FFF7F9FDFFF7EA
:1031200057FE10BD30B58BB004460D46012102207C
:10313000FDF7ACFF01210220FDF7B8FF0320099045
:1031400002208DF8280000208DF82A0001208DF83B
:103150002B0003208DF8290009A91E48FDF7A5F9C9
:10316000022200211B48FDF7E8F90222012119483B
:10317000FDF7E3F90020ADF82000ADF81A00A8B281
:10318000ADF81800079406A91348FEF70BFC602061
:10319000ADF804000020ADF810000120ADF80600E5
:1031A00001A90D48FEF724FB01A90B48FEF77AFBA5
:1031B00008210948FEF76CFB08210748FEF7AEFB23
:1031C00001210548FEF7F4F901210348FEF7FFF954
:1031D0000BB030BD000402400004004030B58BB09D
:1031E00004460D4601210846FDF750FF012102204B
:1031F000FDF75CFFC020099002208DF82800002018
:103200008DF82A0001208DF82B0003208DF829006D
:1032100009A91E48FDF749F9022206211B48FDF7BE
:103220008CF9022207211948FDF787F90020ADF833
:103230002000ADF81A00A8B2ADF81800079406A94E
:103240001348FEF7AFFB6020ADF804000020ADF896
:1032500010000120ADF8060001A90D48FEF718FA8C
:1032600001A90B48FEF764FA08210948FEF757FA4E
:1032700008210748FEF7AEFA01210548FEF798F944
:1032800001210348FEF7A3F90BB030BD0000024056
:103290000004004010B5FDF7A1F980216B20FDF777
:1032A00088FE6420FFF7EAFA00216B20FDF781FE1B
:1032B0000120FDF73CFE0020FDF731FE3220FDF736
:1032C0005BFE00213820FDF774FE00216A20FDF727
:1032D00070FE00212320FDF76CFE80213720FDF7D2
:1032E00068FE7520FDF7C4FD0446682C0BD1012152
:1032F0006B20FDF75EFE00216C20FDF75AFE3220A8
:10330000FDF73AFE01E0012010BD0020FCE710B5FA
:1033100000F002F810BD000010B5054C23460E2247
:103320003B216820FDF7C1FDFDF744FC10BD000006
:103330006800002010B50446B4F5FA6F01D340F2DE
:10334000CF7421460148FEF7FCFA10BD000400408E
:1033500010B50446B4F5FA6F01D340F2CF7421469C
:103360000148FEF7ECFA10BD0004004003490A785A
:10337000824202D0087000228A7070472C00002020
:1033800010B50446B4F5FA6F01D340F2CF7421466C
:103390000148FEF7D2FA10BD0004004010B5044603
:1033A000B4F5FA6F01D340F2CF7421460148FEF71D
:1033B000C2FA10BD000400401348DFED140AB4EE59
:1033C000E00AF1EE10FA03DDDFED100AB0EE600A5C
:1033D000B5EEC00AF1EE10FA03D2DFED0D0AB0EE41
:1033E000600A017A02290ED180ED000ADFED090A98
:1033F000B2EE041A40EE010AFDEEE00A10EE901A59
:1034000081800021017270473001002000003443A8
:10341000000000000000FA4300B52DED048B83B0DE
:1034200041EC190B00F02CFD41EC180B18EE100AC2
:1034300018EE901A8DED008B002818BF012008436C
:1034400020F00040C0F17F6000F1E040C00F14D0D8
:1034500019EE101A19EE900A8DED009B002918BF85
:103460000121084320F00040C0F17F6000F1E040FE
:10347000C00F04BF0120FCF7FFFE51EC180B03B096
:10348000BDEC048B00BD000010B50448B0F810116D
:103490004FF08040FEF751FA10BD000024000020DC
:1034A00070B5074C04F10C05627804F1080151F87D
:1034B000220080472A78291D51F82200804770BDDC
:1034C000380100200D48017821B101290AD00229D4
:1034D00011D10FE00A49096801F57A7141600121B3
:1034E000017009E0064A41681268914201D2022146
:1034F000017001E000E000BF00BF7047380100200C
:103500001800002000B58BB001210220FDF7BEFDA0
:1035100001210846FDF7CAFD0820099002208DF818
:10352000280000208DF82A0001208DF82B000320B0
:103530008DF8290009A91948FCF7B7FF01220321DA
:103540001648FCF7FAFF0020ADF82000ADF81A008D
:103550005320ADF8180041F28730079006A94FF0CC
:103560008040FEF71FFA6020ADF804000020ADF89F
:1035700010000120ADF8060001A98007FEF7D8F879
:103580000821C806FEF726F901218807FEF710F882
:1035900001218807FEF71BF80BB000BD00040240B4
:1035A00070B50925FCF75EFF0020FCF7A9FE02219B
:1035B0005820FCF7B7FE0546092D00D070BD092D37
:1035C00011D100240CE00B4A52F824100A4A02EBF5
:1035D0008400FCF71FFF092800D003E0601CC4B280
:1035E000042CF0DB00BF0120FCF78AFEFCF708FF8B
:1035F00000BFE3E74C01002000000E087FB5054640
:103600000C4601210420FDF751FD0295A0B2ADF852
:1036100004000020ADF80600ADF80C0001A90E482A
:10362000FEF7C0F9012211460B48FEF727F80121E9
:103630000948FDF7CCFF1E208DF8000001208DF811
:10364000010003208DF8020001208DF80300684678
:10365000FDF7D4FC7FBD0000000800401CB501212F
:103660002020FDF713FD012000908DF804000020BC
:103670008DF8060001208DF8070003208DF8050065
:1036800069460448FCF711FF01210248FCF778FF66
:103690001CBD00000014024010B52DED048B124C2F
:1036A0001249A0680968081A642805D3012020700F
:1036B000E0700E480068A060607888B100206070FB
:1036C000E06800F0BFFA41EC190B9FED090B53ECD9
:1036D000102B00F0CBFA41EC180B00F081F8606180
:1036E000BDEC048B10BD00000C0100201800002070
:1036F0009CC420B07268913F00B589B00121084692
:10370000FDF7C4FC01210820FDF7D0FC0120079043
:1037100002208DF8200000208DF8220003208DF873
:10372000210002208DF8230007A92148FCF7BDFEE7
:10373000022200211E48FCF700FF5320ADF80C00C8
:103740000020ADF80E004EF6602004900020ADF889
:10375000140003A91748FEF725F90020ADF8000072
:10376000ADF802000120ADF804000020ADF806001D
:10377000ADF8080069460F48FDF749FF0122022114
:103780000C48FDF77BFF01210A48FDF720FF32209E
:103790008DF8180000208DF819008DF81A0001200E
:1037A0008DF81B0006A8FDF729FC09B000BD00003C
:1037B00000000240000C004010B5FFF76DFFFFF75E
:1037C000A6FDFFF7A4FD10BD81F00041704780F019
:1037D0000040704721F00041704720F000407047E2
:1037E00021F00042A2F16052B2F5801F01F00043C7
:1037F00028BFD2F17F6C0BD95FEA001C43EAC202FA
:1038000042EB507018BF704728BF20F0010070478E
:10381000B2F5801FBCBF184670474FEA410C1CF53B
:10382000001F02D2084600F057BD70B500F0C8FA7C
:1038300000000089FFF7F6BF4FF00040A0F58000C0
:103840007047000010B591EA030F48BF83F00043B2
:1038500000F1EA83841A71EB030C05D2121943EBD1
:103860000C03001B61EB0C01DFF824E14FEA11545B
:10387000A4EB135C1EEA430F18BF9EEA445F73D0AB
:1038800023EA0E03DCF1200E21EA045143F48013F5
:1038900032D322FA0CFE10EB0E0023FA0CFE41EBA1
:1038A0000E01CCF1200E03FA0EFE10EB0E0051F1CA
:1038B0000001B1F5801FCCF1200E32D201EB045192
:1038C00012FA0EF2BDE8104058BF7047401C38BFD6
:1038D0005FEA420218BF7047002814BF20F00100C1
:1038E00041F100014FEA410313F5001F38BF704753
:1038F000A1F1C04100F0B2BA012A43EB0302ACF1DE
:10390000200CDCF11F0E32BF4FF0000E23FA0CF337
:1039100010EB030041EB0451B4EB115FD0D0A1EBED
:10392000045101F5801149085FEA300001EB0451B0
:103930000ED350F1000038BF12FA0EFE08D1BDE8D8
:103940001040C9E7401C38BF5FEA4202CAD1C3E752
:10395000BDE810404FEA410313F5001F38BF704720
:10396000A1F1C04100F07ABA9EEA445F08D011EAA2
:103970005E0FBDE8104004BF01F000410020704719
:10398000BDE8104070B500F01BFA00BF64FBBE3EFE
:103990000000E0FF2DE9C04130B4DFF8A0C23CEAEE
:1039A000111418BF3CEA131400F0EC8081EA0305FF
:1039B0001CEA111444EAD57418BF1CEA131500F070
:1039C000C780A4EB05044FF0004545EAC12145EA54
:1039D000C32341EA505143EA525304F17F749942A0
:1039E00004F500344FEAC0204FEAC22208BF9042DB
:1039F00000F09C804FEA13650FF24016765D4FEAA7
:103A0000134506FB05F7C7F1807706FB07F74FEA7A
:103A1000D737A7FB03687642C8F58038A7FB06CEE8
:103A200038BFA8F1010807FB08E64FF0000EA6FB1F
:103A3000028CE6FB03CEDCF1000CCEF1004E38BF69
:103A4000AEF1010EA6FB0C584FF000074FF0000539
:103A5000E6FB0E87A1FB08C6A0FB07CE16EB0E0601
:103A600045F10005E1FB076515F1E04E7EBFA4F5C9
:103A700080345FEA46066D4116F1800745F1000586
:103A80004FEA17274FEA066647EA0567A6F1DE46C2
:103A9000B6F1805F4FEA15251FD9384624F0010C96
:103AA00005EBC471BCF1FE6F01EB0C1102D8F0BC48
:103AB000BDE8008124425CBF01F5801E9EEAC47F00
:103AC00002D4F0BCBDE80081244238D4F0BCA1F19E
:103AD000C041BDE8004100F0C1B94FEAD22242EA3C
:103AE00043524FEAD323A7FB02864FEAD02040EA95
:103AF000415007FB03661EEA0E0F4FEAD12105FB7A
:103B0000026658BFA6EB0056B6EB00564FEA520EBF
:103B10004EEAC37E18EB0E0E56EB530EBDD518EBD6
:103B200002085E417F1C55F10005B6E74FF4801591
:103B30004FF000074FF000064FF00008ADE7F0BC73
:103B40004FF0000001F1C04101F00041BDE80081EB
:103B500011EA0C1F0CEA131500D00CE013EA0C1F3D
:103B600000F025804FF00000F0BC81EA030101F075
:103B70000041BDE80081F0BCBDE8004181EA0301DD
:103B800000F06CB9F0BCBDE8004170B500F018F968
:103B9000097EFC3E00F007B881EA03014FF0000007
:103BA00001F00041704781EA030100F057B9F0BC11
:103BB000BDE800414FF0000021497047FFFDFBF9CF
:103BC000F7F5F4F2F0EEEDEBE9E8E6E4E3E1E0DE50
:103BD000DDDBDAD8D7D5D4D3D1D0CFCDCCCBCAC8C2
:103BE000C7C6C5C4C2C1C0BFBEBDBCBBBAB9B8B7E9
:103BF000B6B5B4B3B2B1B0AFAEADACABAAA9A8A8DC
:103C0000A7A6A5A4A3A3A2A1A09F9F9E9D9C9C9BA9
:103C10009A99999897979695959493939291919054
:103C20008F8F8E8E8D8C8C8B8B8A898988888787E5
:103C30008685858484838382828181800000FF075A
:103C40000000F87FB0FA80F310FA03F10AD0C3F154
:103C50001D0303F580634FEA41504FEA035202EB24
:103C6000D12170474FF0000070470000DFF848C1D5
:103C700070B51CEA111E1EBF1CEA13159EEA0C0F3C
:103C800095EA0C0F00F06F8081EA030423EA4C13DD
:103C90004EEAD47E21EA4C1141F4801143F48013A2
:103CA000AE44A1FB024CA0FB0365AEF17F7E36194A
:103CB00055EB0C05A1FB034C4CF10003A0FB021CCF
:103CC00016EB0C06654153F10003094218BF46F09C
:103CD000010613F4007F0BD14FEA03314FEA0530A0
:103CE000340341EA155140EA16506FF003020AE02E
:103CF0004FEAC3214FEAC520F40241EA555140EA98
:103D000056506FF0020202EB2E4201EB025585EA9B
:103D1000CE710AD05FEA440C18BF24F0004450F181
:103D2000000041F1000120EAD47040F2FE7C6245BF
:103D300000D270BDA84214BF4FF080444FF0404401
:103D4000002E08BF0024BEF1806FA8BFA1F1C041C2
:103D5000BDE8704080F282804FF0000001F1C04168
:103D600001F0004170479EEA0C0F0CEA131518BFD2
:103D700095EA0C0F06D04FF0000081EA030E0EF01A
:103D8000004170BD00F01CF88900013E00F007B84A
:103D900000F009B84FEA430C5FEA5C5C08D081EAA6
:103DA000030100F05BB84FEA410C5FEA5C5CF6D1BE
:103DB0004FF00000014970470000FF070000F87F46
:103DC0000EF1020E2EF0030E5EF8046B364205D49F
:103DD000012A43EB030515F5001F12D8012841EB1A
:103DE000010C1CF5001F0CD80ED14FEAD17C15F543
:103DF000001F0CEB4C0C0CF1020C08BF4CEBD37CFD
:103E000004E04FF0080C01E04FEAD37C0CEB4C05CA
:103E100026FA05F606F00706B6F1040C06D20EEBFC
:103E2000860CBDE870404CF0010C6047DFE80CF0F8
:103E3000090B02024FF000414FF00000A1F50021F4
:103E400070BD19461046012851EB010418BFD4F586
:103E5000001484BF002001F0004170BD0808A0F5E7
:103E600000114FEA3101704791EA030F10B581F05C
:103E700000413FF5EFAC83F0004300F0D5B80000FF
:103E80002DE9F04101F5801CBCF5001FC0F2A980AE
:103E90004FEA115C21EA0C510CF1FD0C41F4801148
:103EA0005FEA5C0C0CF5C07C01D34000494130A4B2
:103EB000890241EA905187028E0E0A0CA45D04FB30
:103EC00004F602FB06F6C6F14046A4FB0662F60DB8
:103ED00046EA422606FB06F4A4FB01235242C3F144
:103EE000404338BF5B1EA6FB02420024E6FB0324CE
:103EF000D20B42EA4446A6FB0623A1FB02E2A3FB47
:103F000007E4E3FB61426442C2F1404E38BFAEF1C8
:103F1000010EA6FB04234FF00002E6FB0E32A2FBCB
:103F200003463400E2FB6264A1FB06E6A4FB07E85B
:103F3000E4FB61687642C8F1405838BFA8F1010837
:103F4000A2FB06E4A3FB08E5E2FB6854A1FB05E63F
:103F5000A7FB04E8E1FB648618F1200556F1000692
:103F6000A809A8F11B08B10908F03F08B8F10A0F29
:103F700040EA86601CD901EB0C51BDE8F08100BF1E
:103F8000FCF5EEE8E2DDD8D3CFCBC7C3C0BDB9B6F0
:103F9000B4B1AEACA9A7A5A3A19F9D9B9A989695F5
:103FA0009392908F8D8C8B8988878685848382817C
:103FB000A0FB006800FB01F208EB4208B8EB872881
:103FC00007D5341858EB0104D5D5401C51F1000138
:103FD000D1E7341A78EB0104CDD4401E71F1000111
:103FE000C9E75FEA4C0C5FEA9C5C0DD105D34FF04A
:103FF000000001F00041BDE8F081BDE8F04170B57E
:10400000FFF7DEFE6DDBFFBEBDE8F0414FF00000C4
:10401000004970470000F87F10B591EA030F48BFD0
:1040200083F000433FF516AC841A71EB030C07D202
:1040300012198CF0004C43EB0C03001B61EB0C01DC
:10404000DFF8A4E14FEA1154A4EB135C1EEA430F1E
:1040500018BF9EEA445F00F0B08023EA6E0352422C
:1040600021EA0451C3EB6E0338BF5B1EDCF1200E66
:1040700025D322FA0CFE10EB0E0043FA0CFE41EBA6
:104080000E01CCF1200E03FA0EFE10EB0E0051F1E2
:104090000001CCF1200E29D412FA0EF201EB0451EA
:1040A000BDE8104058BF7047401C1CBFB2F1004F24
:1040B000704700280CBF491C20F00100704712EB2C
:1040C000020E43EB030218BF4FF0010E4EEA42020C
:1040D000ACF1200CDCF11E0E54D943FA0CFE10EBAF
:1040E0000E0051F1FF31CCF11E0ED5D50EF1010EAF
:1040F00012FA0EFE404141EB010101EB445C5FEA24
:104100005C5C10D910EBDE7001EB045138BFBEF1DE
:10411000004FBDE8104018BF704700280CBF491C75
:1041200020F00100704730D24FEAD42C11F5001175
:1041300024F400641BD0B1FA81F20B3AA41AA41E35
:10414000D2F12003914030FA03F31943904001EB80
:10415000CC71002C01EB0451BDE81040A8BF7047A2
:1041600001F1C0414FF0000001F000417047B0FA8A
:1041700080F310FA03F100D110BDE41A173C480592
:10418000C90AE4E701EB045110BD491001EB0451E9
:10419000BDE810404FEA300002E04FF000017047E8
:1041A0004A0008BF0042F8D0B2F5001F28BF704790
:1041B00001F000414FF0000070479EEA445F07D0D5
:1041C00011EA5E0FBDE8104004BF002100207047D7
:1041D000BDE8104070B5FFF7F3FD00BF40DFF63ECD
:1041E00083F00041104670470000E0FF43004FEAB3
:1041F000D30C4FEA3C0C43401FBF40070CF1605109
:1042000013F0FE4F70471CF0006F03D100200CF03C
:10421000004170470CF0004343EA507010B540EA8B
:10422000CC0000F00EF800BF000000924FEA000141
:10423000FFF714BE4FF000414FF00000A1F5002140
:1042400070470EF1020E2EF0030E5EF8044B24426E
:1042500004D44FEA4102B2F17F4F11D84FEA400334
:10426000B3F17F4F0CD80ED14FEAD07CB2F17F4F23
:104270000CEB4C0C0CF1020C08BF4CEBD17C04E0B5
:104280004FF0080C01E04FEAD17C0CEB4C0324FA10
:1042900003F404F00704B4F1040C06D20EEB840C12
:1042A000BDE810404CF0010C6047DFE80CF0070857
:1042B00002024FF00040A0F5800010BD0846420009
:1042C00018BFD2F1807288BF00F0004010BD4FF0DF
:1042D0004070E1EE100A7047FF2141EAD050C0055E
:1042E0007047000000000000555555555555C53F15
:1042F0007D6FEB0312D6D4BF5544880E55C1C93F1C
:104300003B8F68B52882A4BF88B20175E0EF493FB2
:1043100009F7FD0DE13D023F4B2D8A1C273A03C0F2
:10432000C88A599CE52A004059018D1B6C06E6BFDE
:1043300082922EB1C5B8B33F584300080000002058
:1043400024000000C40100087C4300082400002071
:10435000FC070000E00100080000000090010000E0
:10436000000000000000000000000000000000004D
:0C43700000000000000000000000000041
:040000050800018965
:00000001FF
