:020000040800F2
:10000000B806002029020008C7030008BF03000843
:10001000C3030008DB020008A10D00080000000077
:10002000000000000000000000000000B90400080B
:10003000DF0200080000000055040008D105000898
:10004000430200084302000843020008430200087C
:10005000430200084302000843020008430200086C
:10006000430200084302000843020008430200085C
:10007000430200084302000843020008430200084C
:10008000430200084302000843020008430200083C
:10009000430200084302000843020008430200082C
:1000A00043020008850800084302000861070008B1
:1000B0004302000843020008FD080008430200084C
:1000C00043020008430200084302000843020008FC
:1000D00043020008430200084302000843020008EC
:1000E00043020008430200084302000843020008DC
:1000F00043020008430200084302000843020008CC
:1001000043020008430200084302000843020008BB
:1001100043020008430200084302000843020008AB
:10012000430200084302000843020008430200089B
:10013000430200084302000843020008430200088B
:10014000430200084302000843020008430200087B
:10015000430200084302000843020008430200086B
:10016000430200084302000843020008430200085B
:10017000430200084302000843020008430200084B
:10018000430200084302000800F002F800F03CF8C7
:100190000AA090E8000C82448344AAF10107DA45E2
:1001A00001D100F031F8AFF2090EBAE80F0013F0F8
:1001B000010F18BFFB1A43F001031847AC160000EB
:1001C000CC160000103A24BF78C878C1FAD852077C
:1001D00024BF30C830C144BF04680C6070470000C1
:1001E0000023002400250026103A28BF78C1FBD840
:1001F000520728BF30C148BF0B6070471FB501F0E0
:100200002DFB1FBD10B510BD00F031F81146FFF7F2
:10021000F5FF01F0DDF900F04FF803B4FFF7F2FF4E
:1002200003BC00F053F80000094880470948004724
:10023000FEE7FEE7FEE7FEE7FEE7FEE7FEE7FEE796
:10024000FEE7FEE704480549054A064B70470000F3
:10025000D505000889010008B8000020B806002074
:10026000B8020020B80200207047704770477546FA
:1002700000F028F8AE4605006946534620F0070016
:10028000854618B020B5FFF7DDFFBDE820404FF0F0
:1002900000064FF000074FF000084FF0000B21F070
:1002A0000701AC46ACE8C009ACE8C009ACE8C0093D
:1002B000ACE8C0098D4670470446AFF30080204685
:1002C000FFF7ABFF00487047540000200149182099
:1002D000ABBEFEE726000200704700BFFEE7704796
:1002E000F0B50A4600210023002400BF3DE00125AF
:1002F00005FA01F3156805EA03049C4234D1056848
:100300004F000326BE40B543056015794E00B54049
:100310000668354305601579012D02D01579022D47
:1003200016D185684F000326BE40B54385605579D8
:100330004E00B540866835438560456801268E408D
:10034000B5434560456896798E40B6B23543456001
:10035000C5684F000326BE40B543C560D5794E0041
:10036000B540C6683543C560491C1029BFD3F0BDF0
:10037000F0B5002300244D07ED0E02FA05F3CE1070
:1003800000F1200555F826504E07F70E0F26BE4007
:10039000B543CF1000F1200646F82750CE1000F1EB
:1003A000200555F8265045EA0304CE1000F120053B
:1003B00045F82640F0BD418370470183704700BF78
:1003C000FEE700BFFEE7704770B5002100230F2253
:1003D000C4781CB3174C246804F4E064C4F5E064EA
:1003E000C4F30721C1F10404E3B20A4144789C40FC
:1003F000E1B28478144021430C07210E0E4C05789D
:100400006155047804F01F050124AC4005786D1196
:10041000AD0005F1E025C5F8004109E0047804F0DD
:100420001F050124AC40054D0678761145F826409D
:1004300070BD00000CED00E000E400E080E100E0B1
:1004400002490143024A1160704700000000FA05AA
:100450000CED00E07047000029B1064A1268024323
:10046000044B1A6004E0034A12688243014B1A608D
:10047000704700003038024029B1064A1268024332
:10048000044B1A6004E0034A12688243014B1A606D
:10049000704700004038024029B1064A1268024302
:1004A000044B1A6004E0034A12688243014B1A604D
:1004B0007047000044380240704700000CB500202F
:1004C000019000903448006840F480303249086060
:1004D00000BF3148006800F4003000900198401CD3
:1004E0000190009818B90198B0F5A04FF1D12A48B1
:1004F000006800F4003010B10120009001E00020FD
:1005000000900098012846D123484030006840F010
:1005100080502149403108602048006840F4404044
:100520001E4908601C48083000681B4908310860F3
:100530000846006840F4004008600846006840F43F
:10054000A05008601648091F0860081F006840F0A6
:100550008070091F086000BF0F48006800F000703D
:100560000028F9D040F205700E4908600A480830AA
:10057000006820F003000849083108600846006858
:1005800040F00200086000BF03480830006800F037
:100590000C000828F8D10CBD003802400070004063
:1005A00008544007003C0240042808D14FF0E021E5
:1005B000096941F004014FF0E022116107E04FF0BA
:1005C000E021096921F004014FF0E0221161704738
:1005D0007047000010B51548006840F470001349DA
:1005E00008601348006840F00100114908600020CD
:1005F0000F49083108600E4800680E4908400C4950
:1006000008600D48091D0860081F006820F480205C
:10061000091F0860002006490C310860FFF74EFFF3
:100620004FF0006001498039086010BD88ED00E09E
:1006300000380240FFFFF6FE10300024F0B50C46F3
:10064000154600210022068C4FF6FE773E400684B8
:10065000018B028C4FF60C7631407E1C06EA0316A5
:100660002E4331434FF6F576324044F001063243D3
:1006700001830284F0BDF0B50C461546002100222E
:100680000026078C4FF6EF7C07EA0C070784018BE6
:10069000028C4FF6FF7707EA041640F6FF47394011
:1006A0004FF6FF7707EA033739434FF6FF7707EA3C
:1006B000052739434FF65F773A4046F010073A4333
:1006C00001830284F0BDF0B50C46154600210022DE
:1006D0000026078C4FF6FF6C07EA0C070784818B16
:1006E000028C4FF6FF7707EA04264FF60C77394065
:1006F0004FF6FF7707EA03172F4339434FF2FF57AF
:100700003A4046F480773A4381830284F0BDF0B5E5
:100710000C461546002100220026078C4EF6FF7C71
:1007200007EA0C070784818B028C4FF6FF7707EAF4
:10073000043640F6FF4739404FF6FF7707EA0527B2
:1007400039434FF6FF7707EA0337394345F6FF771A
:100750003A4046F480573A4381830284F0BD00005A
:1007600010B50221444800F0FDF801287FD143482C
:10077000006870B10221404800F084F900213E4831
:1007800000F09DFA3E48007840F010003C490870A7
:100790006DE0394800F0E3F83949488000213648D7
:1007A00000F070F93648007800F01000002858D0AA
:1007B0003348007800F08000F0B331484088B0F54D
:1007C000967F0DDD2E484088B0F5487F08DA2C482A
:1007D000406840002A49486008464068486040E058
:1007E00027484088B0F5AF6F0FDD25484088B0F549
:1007F000E16F0ADA22484068400021494860084613
:10080000406840F0010048602BE01D48408840F6F9
:100810009801884225DD1A48408840F62821884200
:100820001FDA17484078401C154948700846007880
:1008300000F0F000087014E0FFE71148408841F232
:10084000680188420DDD0E48408841F25C218842F3
:1008500007DA0B48007840F0800009490870002052
:1008600048700748007820F0100005490870022100
:10087000014800F065F810BD000001402002404230
:100880004800002010B501211A4800F06BF801283B
:100890002BD11948007800F0800030B3164800785A
:1008A00020F01000144908700846007800F00F008E
:1008B00020B90846007840F0400008700E480078E3
:1008C00000F00F000E2805DA0B480078401C0A499A
:1008D00008700AE00848007820F080000649087097
:1008E0000846007800F0F00008700121014800F08F
:1008F00027F810BD000001404800002010B501217C
:10090000074800F02FF8012804D106480068401C71
:10091000044908600121024800F012F810BD0000EF
:10092000000800400400002021B1028842F080024B
:10093000028004E002884FF67F731A4002807047FD
:10094000CA430282704721B1028842F0010202804C
:1009500004E002884FF6FE731A4002807047014699
:10096000486B704730B50246002000230024158AEA
:1009700005EA0103958905EA010413B10CB10120D0
:1009800000E0002030BD70B505460C46208850B907
:100990002389A28861882846FFF750FEE18828460F
:1009A00000F08FF925E0208804280AD12389A28845
:1009B00061882846FFF75FFEE188284600F08AF943
:1009C00017E0208808280AD12389A2886188284650
:1009D000FFF779FEE188284600F089F909E02389CC
:1009E000A28861882846FFF792FEE188284600F039
:1009F00087F970BD1AB183890B43838102E0838933
:100A00008B4383817047000070B5002400220023CF
:100A1000058C4FF6FE7635400584028C8388048B66
:100A20004FF68F752C40B51E2C400D882C43751E3B
:100A30002A408D892A434D882A43104DA84202D06E
:100A40000F4DA84213D14FF6F7752A40CD892A439E
:100A50004FF6FB752A408D882A434FF6FF652B40E1
:100A60004FF6FF552B400D8A2B434D8A2B43838035
:100A700004838D684563028470BD0000000001405E
:100A8000000401400A460021018C4FF6FD73194015
:100A90001143018470470A460021018B4FF6F7731A
:100AA000194011430183704770B5002400220023D0
:100AB000058C4FF6EF7635400584028C8388048BD5
:100AC00048F6FF752C404FF6FF452C400D884FF639
:100AD000FF7606EA05252C434FF6DF752A408D89FF
:100AE00006EA05152A434D8806EA05152A43154DE1
:100AF000A84202D0144DA8421DD14FF67F752A405E
:100B0000CD894FF6FF7606EA05152A434FF6BF75E5
:100B10002A408D8806EA05152A434FF6FF352B40FB
:100B20004FF2FF752B400D8A06EA85052B434D8A4F
:100B300006EA85052B43838004838D6885630284E0
:100B400070BD000000000140000401400A46002181
:100B5000018B4FF2FF7319404FF6FF7303EA022334
:100B6000194301837047000070B500240022002360
:100B7000058C4FF6FF6635400584028C8388848B94
:100B80004FF68F752C404FF6FC752C400D882C438A
:100B90004FF6FF552A408D894FF6FF7606EA052568
:100BA0002A434D8806EA05252A43154DA84202D05E
:100BB000144DA8421DD14FF2FF752A40CD894FF642
:100BC000FF7606EA05252A434FF6FF352A408D8831
:100BD00006EA05252A434EF6FF752B404DF6FF75B4
:100BE0002B400D8A06EA05152B434D8A06EA0515AA
:100BF0002B43838084838D68C563028470BD0000AD
:100C000000000140000401400A460021818B4FF69C
:100C1000F7731940114381837047000070B50022BB
:100C200000230024058C4EF6FF7635400584038CA6
:100C30008488828B48F6FF752A404FF6FF452A408C
:100C40000D884FF6FF7606EA05252A434DF6FF7517
:100C50002B408D8906EA05352B434D8806EA05357C
:100C60002B430A4DA84202D0094DA84208D14BF6A9
:100C7000FF752C400D8A4FF6FF7606EA85152C434A
:100C8000848082838D680564038470BD0000014008
:100C9000000401400A460021818B4FF2FF73194086
:100CA0004FF6FF7303EA02231943818370474163C0
:100CB000704781637047C163704701647047416248
:100CC0007047028B4FF6F3731A400283028B0A437C
:100CD00002837047028B4FF2FF331A400283028B6C
:100CE0004FF6FF7303EA01231A4302837047828B96
:100CF0004FF6F3731A408283828B0A4382837047D4
:100D0000828B4FF2FF331A408283828B4FF6FF7340
:100D100003EA01231A4382837047000000220288FD
:100D2000184B98420ED0184B98420BD0B0F1804F20
:100D300008D0164B984205D0154B984202D0154B5F
:100D4000984204D14FF68F731A404B881A43124BC6
:100D5000984207D0114B984204D04FF6FF431A40F7
:100D60000B891A4302804B68C3620B880385054BCD
:100D7000984202D0044B984201D18B7A038601231A
:100D800083827047000001400004014000040040DD
:100D900000080040000C004000100040001400401B
:100DA00000BFFEE700B587B001211020FFF754FB1C
:100DB00001210220FFF750FB01212020FFF74CFB0F
:100DC0004CF2A000059001208DF8180000208DF84D
:100DD0001A0001208DF81B0003208DF8190005A9C9
:100DE0001B48FFF77DFA4CF2A0011948FFF7E3FA20
:100DF0007020039001208DF8100000208DF8120063
:100E000001208DF8130003208DF8110003A911486B
:100E1000FFF766FA70210F48FFF7CDFA4FF428402C
:100E2000019001208DF8080000208DF80A000120B3
:100E30008DF80B0003208DF8090001A90648FFF783
:100E40004FFA4FF428410448FFF7B5FA07B000BD48
:100E500000040240001002400014024010B54FF49C
:100E600000612648FFF7A7FA10212548FFF7A3FAEB
:100E700000BF4FF480412348FFF79DFA4FF4004133
:100E80002048FFF798FA00BF00BF4FF400511B48FD
:100E9000FFF791FA4FF400411848FFF78CFA00BFB2
:100EA00000BF80211748FFF786FA20211548FFF779
:100EB00082FA00BF00BF20211148FFF77CFA4021D1
:100EC0000F48FFF778FA00BF002000F06DFC00200B
:100ED00000F05CFC002000F083FC002000F072FCBD
:100EE00000F098FB04200849087100210648817130
:100EF0008160042180F8241010BD0000001402401D
:100F000000100240000402400800002010B54FF419
:100F100000612248FFF751FA10212148FFF74DFAEE
:100F200000BF4FF400411F48FFF747FA4FF48041DC
:100F30001C48FFF740FA00BF00BF4FF400411748BC
:100F4000FFF73BFA4FF400511448FFF734FA00BFA3
:100F500000BF20211348FFF730FA80211148FFF726
:100F60002AFA00BF00BF20210D48FFF726FA4021D2
:100F70000B48FFF720FA00BF4FF4966000F014FC16
:100F80004FF4966000F002FC4FF4966000F028FCED
:100F90004FF4966000F016FC10BD000000140240F3
:100FA000001002400004024010B54FF400612248D6
:100FB000FFF703FA10212148FFF7FFF900BF4FF4B4
:100FC00080411F48FFF7F9F94FF400411C48FFF733
:100FD000F2F900BF00BF4FF400511748FFF7EDF9D9
:100FE0004FF400411448FFF7E6F900BF00BF80212D
:100FF0001348FFF7E2F920211148FFF7DCF900BFA1
:1010000000BF40210D48FFF7D8F920210B48FFF71A
:10101000D2F900BF4FF4966000F0C6FB4FF4966023
:1010200000F0B4FB4FF4966000F0DAFB4FF49660EA
:1010300000F0C8FB10BD0000001402400010024088
:101040000004024010B5002000F0AEFB002000F0CC
:101050009DFB002000F0C4FB002000F0B3FB10BD9E
:1010600010B54FF400612048FFF7A5F910211F4883
:10107000FFF7A1F900BF4FF480411D48FFF79BF92E
:101080004FF400411A48FFF796F900BF00BF4FF434
:1010900000511548FFF78FF94FF400411248FFF750
:1010A0008AF900BF00BF80211148FFF784F9202191
:1010B0000F48FFF780F900BF00BF20210B48FFF762
:1010C0007AF940210948FFF776F900BF002000F0C7
:1010D0006BFB002000F05AFB002000F081FB002099
:1010E00000F070FB10BD0000001402400010024030
:1010F0000004024010B54FF400612248FFF75DF98B
:1011000010212148FFF759F900BF4FF480411F48D3
:10111000FFF753F94FF400411C48FFF74CF900BFAB
:1011200000BF4FF400511748FFF747F94FF4004153
:101130001448FFF740F900BF00BF20211348FFF714
:101140003CF980211148FFF736F900BF00BF20218C
:101150000D48FFF732F940210B48FFF72CF900BF8B
:1011600040F2DC5000F020FB40F2DC5000F00EFBBF
:1011700040F2DC5000F034FB40F2DC5000F022FB87
:1011800010BD0000001402400010024000040240A4
:1011900010B54FF400612248FFF70FF910212148E4
:1011A000FFF70BF900BF4FF400411F48FFF705F9A7
:1011B0004FF480411C48FFF7FEF800BF00BF4FF41A
:1011C00000411748FFF7F9F84FF400511448FFF7B2
:1011D000F2F800BF00BF80211348FFF7EEF820218E
:1011E0001148FFF7E8F800BF00BF40210D48FFF7A6
:1011F000E4F820210B48FFF7DEF800BF40F2DC5096
:1012000000F0D2FA40F2DC5000F0C0FA40F2DC50BC
:1012100000F0E6FA40F2DC5000F0D4FA10BD000015
:101220000014024000100240000402401E4800F179
:101230002001827832B1012A14D0022A1CD0052A5A
:101240002ED125E00A78042A09D005220A70174A0F
:10125000126802F57A7242600122827001E0012276
:1012600082701EE0114B42681B689A4203D2002232
:101270000A700222827014E0827842B105220A705C
:101280000A4A126802F57A7242600522827000BF33
:10129000064B42681B689A4201D204220A7000E0A1
:1012A00000BF00BF704700000C00002004000020B9
:1012B000704770477047704710B504466FF00400E0
:1012C000FFF772F9E11704EB5171C1F3C701074A47
:1012D00011701046007800EB4001C1EBC0104FF6D2
:1012E000FF7101EAC0000249088010BD0000002023
:1012F0000200002000B589B001210846FFF7ACF8D4
:1013000001210846FFF7C8F84FF4807007900220CB
:101310008DF8200000208DF8220003208DF8210098
:1013200001208DF8230007A92948FEF7D9FF0122E3
:1013300008212748FFF71CF8A720ADF80C00002073
:10134000ADF80E0042F2107004900020ADF81400C9
:1013500003A92048FFF7E2FC0020ADF80000ADF83B
:1013600002000120ADF804000020ADF806000320C3
:10137000ADF8080069461748FFF705FB0122032175
:101380001448FFF737FB01211248FFF7DCFA1B2056
:101390008DF8180001208DF8190003208DF81A002F
:1013A00001208DF81B0006A8FFF70EF819208DF814
:1013B000180001208DF8190002208DF81A00012074
:1013C0008DF81B0006A8FEF7FFFF09B000BD000066
:1013D000000002400000014010B50020154B1B78B2
:1013E00003F0400323B3134B5B68190E114B5B688A
:1013F000C3F30742D343DBB28B420BD151B90D4B40
:101400009B88C3F307210B4B1A79D343DBB28B4282
:1014100000D1084620B1074B1B7803F080033BB98D
:10142000044B1B7823F04003024C237000236370AD
:1014300010BD00004800002010B5FFF7CDFF0446A6
:10144000622C0AD004DC022C17D0222C19D10CE01B
:10145000A82C06D0C22C14D10BE001200C49087234
:1014600013E002200A4908720FE0032008490872BD
:101470000BE004200649087207E0052004490872C1
:1014800003E000200249087200BF00BF10BD000049
:101490004800002010B5FFF7CFFF2248007A062849
:1014A0003BD2DFE800F03A030E19242FFFF72EFDA0
:1014B0001D48006808B9012000E000201A490860B2
:1014C0002EE0FFF771FD1848006808B9012000E020
:1014D00000201549086023E0FFF70CFE1248006861
:1014E00008B9012000E000200F49086018E0FFF76C
:1014F0004FFE0D48006808B9012000E000200A49AD
:1015000008600DE0FFF7ACFD0748006808B901204E
:1015100000E000200449086002E0FFF7A1FD00BFE1
:1015200000BF10BD48000020A88242420C4901F1D2
:1015300020000C4ACA600C4B0B610C4B4B610C4BEE
:101540008B610C4BCB610C4A42600C4B83600C4BA3
:10155000C3600C4B03610C4B83610C4B43617047C0
:101560000C0000202D120008B1120008B51200086E
:10157000B7120008B31200080D0F0008A90F0008E9
:10158000F5100008911100084510000861100008CE
:101590001CB501212020FEF75FFF4FF4C0600090D2
:1015A00001208DF8040000208DF8060001208DF840
:1015B000070003208DF8050069460448FEF790FEF9
:1015C0004FF4C0610148FEF7F6FE1CBD0014024056
:1015D0004FF4A060FEF734FFA820FFF76DFEFFF781
:1015E000D7FFFFF7DFFB152140F2CF7000F016F8B0
:1015F000152140F2CF7000F06DF82A2140F2CF7033
:1016000000F0FCF8FFF72AFCFFF774FE01E0FFF79B
:1016100041FFFCE700B5FFF789FF00BD30B58BB097
:1016200004460D4601210220FEF716FF012102208B
:10163000FEF722FF0320099002208DF828000020E9
:101640008DF82A0001208DF82B0003208DF8290049
:1016500009A91E48FEF744FE022200211B48FEF79E
:1016600087FE022201211948FEF782FE0020ADF814
:101670002000ADF81A00A8B2ADF81800079406A92A
:101680001348FFF74BFB6020ADF804000020ADF8D5
:1016900010000120ADF8060001A90D48FFF764FA1B
:1016A00001A90B48FFF7BAFA08210948FFF7ACFA7D
:1016B00008210748FFF7EEFA01210548FFF734F942
:1016C00001210348FFF73FF90BB030BD0004024091
:1016D0000004004030B58BB004460D460121084699
:1016E000FEF7BAFE01210220FEF7C6FEC0200990D7
:1016F00002208DF8280000208DF82A0001208DF8A6
:101700002B0003208DF8290009A91E48FEF7E8FDEB
:10171000022206211B48FEF72BFE02220721194850
:10172000FEF726FE0020ADF82000ADF81A00A8B2A2
:10173000ADF81800079406A91348FFF7EFFA6020E8
:10174000ADF804000020ADF810000120ADF806004F
:1017500001A90D48FFF758F901A90B48FFF7A4F9B3
:1017600008210948FFF797F908210748FFF7EEF924
:1017700001210548FFF7D8F801210348FFF7E3F8F6
:101780000BB030BD000002400004004010B504461C
:10179000B4F5FA6F01D340F2CF7421460148FFF748
:1017A0008CFA10BD0004004010B50446B4F5FA6F81
:1017B00001D340F2CF7421460148FFF77CFA10BDF7
:1017C0000004004010B50446B4F5FA6F01D340F2AE
:1017D000CF7421460148FFF76CFA10BD00040040A9
:1017E00010B50446B4F5FA6F01D340F2CF74214628
:1017F0000148FFF75CFA10BD000400407FB50546C4
:101800000C4601210420FEF737FE0295A0B2ADF888
:1018100004000020ADF80600ADF80C0001A90E4848
:10182000FFF77CFA012211460B48FFF7E3F801218C
:101830000948FFF788F81E208DF8000001208DF878
:10184000010003208DF8020001208DF80300684696
:10185000FEF7BAFD7FBD0000000800404FF0407069
:10186000E1EE100A70470000881800080000002010
:1018700008000000C40100089018000808000020BB
:10188000B0060000E00100080000000000000000B9
:040000050800018965
:00000001FF
