:020000040800F2
:10000000800700202902000811080008C303000827
:100010000D080008DF020008C112000800000000FF
:1000200000000000000000000000000005090008BA
:10003000E302000800000000A10800081D0A0008F3
:10004000430200084302000843020008430200087C
:10005000430200084302000843020008430200086C
:10006000430200084302000843020008430200085C
:10007000430200084302000843020008430200084C
:10008000430200084302000843020008430200083C
:10009000430200084302000843020008430200082C
:1000A00043020008D10C000843020008AD0B000811
:1000B0004302000843020008490D000843020008FB
:1000C00043020008430200084302000843020008FC
:1000D00043020008430200084302000843020008EC
:1000E00043020008430200084302000843020008DC
:1000F00043020008430200084302000843020008CC
:100100004302000843020008ED0D00084302000806
:1001100043020008430200084302000843020008AB
:10012000430200084302000843020008430200089B
:10013000430200084302000843020008430200088B
:10014000430200084302000843020008430200087B
:10015000430200084302000843020008430200086B
:10016000430200084302000843020008430200085B
:10017000430200084302000843020008430200084B
:10018000430200084302000800F002F800F03CF8C7
:100190000AA090E8000C82448344AAF10107DA45E2
:1001A00001D100F031F8AFF2090EBAE80F0013F0F8
:1001B000010F18BFFB1A43F0010318475C1F000032
:1001C0007C1F0000103A24BF78C878C1FAD85207C3
:1001D00024BF30C830C144BF04680C6070470000C1
:1001E0000023002400250026103A28BF78C1FBD840
:1001F000520728BF30C148BF0B6070471FB501F0E0
:1002000085FF1FBD10B510BD00F036F81146FFF791
:10021000F5FF01F013FD00F054F803B4FFF7F2FF0F
:1002200003BC00F055F80000094880470948004722
:10023000FEE7FEE7FEE7FEE7FEE7FEE7FEE7FEE796
:10024000FEE7FEE704480549054A064B70470000F3
:10025000210A000889010008800100208007002091
:100260008003002080030020704770477047000023
:10027000004870471C0100207546FFF7F9FFAE46A5
:1002800005006946534620F00700854618B020B5A2
:10029000FFF7D8FFBDE820404FF000064FF0000701
:1002A0004FF000084FF0000B21F00701AC46ACE81E
:1002B000C009ACE8C009ACE8C009ACE8C0098D468B
:1002C00070470446AFF300802046FFF7A6FF00000A
:1002D00001491820ABBEFEE726000200704700BFB0
:1002E000FEE77047F0B50A4600210023002400BF56
:1002F0003DE0012505FA01F3156805EA03049C4277
:1003000034D105684F000326BE40B543056015791A
:100310004E00B5400668354305601579012D02D0C1
:100320001579022D16D185684F000326BE40B543CE
:10033000856055794E00B5408668354385604568CF
:1003400001268E40B5434560456896798E40B6B229
:1003500035434560C5684F000326BE40B543C560C0
:10036000D5794E00B540C6683543C560491C102993
:10037000BFD3F0BDF0B5002300244D07ED0E02FA07
:1003800005F3CE1000F1200555F826504E07F70E64
:100390000F26BE40B543CF1000F1200646F8275087
:1003A000CE1000F1200555F8265045EA0304CE1082
:1003B00000F1200545F82640F0BD418370470183D8
:1003C000704700BFFEE7000010B500200F4908602D
:1003D0000F48006820F440200D4908600846006876
:1003E00040F48020086000200A49C1F8A4020220DD
:1003F00001F028FA012005490860022001F022FAE4
:1004000000200449C1F8A00210BD0000A0824042B3
:1004100000040240008040421CB50121022000F08F
:1004200041FA4FF44070009001208DF80400002044
:100430008DF8060003208DF8050001208DF80700D7
:1004400069460548FFF74EFF01200449086004494A
:10045000C1F8A4021CBD000000040240A08240427A
:100460000080404210B500200F4908600F48006826
:1004700020F440200D4908600846006840F48020C0
:10048000086001200A49C1F8A402022001F0DAF94B
:10049000012005490860022001F0D4F90020044938
:1004A000C1F8A00210BD0000A0824042000402403A
:1004B0000080404270B5054600241648006820F4CC
:1004C000402014490860084600680860002616E0CD
:1004D000002011490860022001F0B4F901200F4901
:1004E000C1F8A0026006040E0B487C38006808B111
:1004F000601CC4B2012001F0A5F9701CC6B2082E20
:10050000E6DB15B9FFF7AEFF01E0FFF75DFF204620
:1005100070BD000000040240A082404200804042C2
:1005200070B504461548006820F44020134908605F
:100530000846006840F480200860002010490860E8
:10054000002517E0E0090E49091D08606006040E49
:10055000022001F077F901200A49C1F8A002022027
:1005600001F070F9002006490860022001F06AF9E4
:10057000681CC5B2082DE5DB70BD00000004024018
:10058000A08240420080404210B50F48006820F42D
:1005900040200D4908600846006840F4802008604B
:1005A00001200A4908600A49C1F8A002042001F0AC
:1005B00049F9002005490860042001F043F90020B2
:1005C0000349C1F8A00210BD00040240A4824042C9
:1005D0000080404210B50F48006820F440200D49CB
:1005E00008600846006840F48020086000200A493E
:1005F00008600A49C1F8A402042001F023F901208F
:10060000054908600549C1F8A402042001F01AF95F
:1006100010BD000000040240A08240420080404221
:1006200010B500241348006820F4402011490860E8
:1006300008460068086001200F49086001F002F9CF
:1006400001200E49C1F8A00201F0FCF807E0601C8F
:10065000C4B2FA2C03DDFFF7BDFF012010BD064830
:10066000803800680028F2D10349091F086000BFE4
:10067000F4E7000000040240A482404200804042AF
:1006800010B5FFF7C9FE80216B2000F09DF86420B3
:1006900001F0BCF800216B2000F096F8012000F07A
:1006A00051F8002000F046F8322000F070F80021E8
:1006B000382000F089F800216A2000F085F8002138
:1006C000232000F081F88021372000F07DF875208C
:1006D00000F013F80446682C0BD101216B2000F0C8
:1006E00073F800216C2000F06FF8322000F04FF812
:1006F00001E0012010BD0020FCE770B50446FFF7C3
:1007000043FFD020FFF70CFFFFF78AFF2046FFF7DB
:1007100007FFFFF785FFFFF737FFD120FFF700FF47
:10072000FFF77EFF0020FFF7C5FE0546FFF752FFEB
:10073000284670BD10B50446E006010E1C2000F0EE
:1007400043F810BD10B50446E006010E1B2000F072
:100750003BF810BD70B504460025BC2C01DB01251B
:1007600010E0622C01DB02250CE02A2C01DB0325C2
:1007700008E0142C01DB042504E00A2C01DB05252C
:1007800000E0062529461A2000F01EF870BD70B55D
:100790000446B4F57A7F01DD4FF47A74042C00DA54
:1007A00004244FF47A7090FBF4F0401EC5B2294641
:1007B000192000F009F80546264604EBD671C1F36E
:1007C0004F00FFF7C7FF70BD70B505460C46FFF739
:1007D000DBFED020FFF7A4FEFFF722FF18B1FFF7E2
:1007E000F9FE012070BD2846FFF79AFEFFF718FFBB
:1007F0002046FFF795FEFFF713FF18B1FFF7EAFE5B
:100800000120EFE7FFF7E6FE0020EBE700BFFEE781
:100810007047000070B5002100230F22C4781CB37C
:10082000174C246804F4E064C4F5E064C4F30721C1
:10083000C1F10404E3B20A4144789C40E1B28478F7
:10084000144021430C07210E0E4C057861550478A5
:1008500004F01F050124AC4005786D11AD0005F1D1
:10086000E025C5F8004109E0047804F01F050124E3
:10087000AC40054D0678761145F8264070BD000065
:100880000CED00E000E400E080E100E002490143FB
:10089000024A1160704700000000FA050CED00E00C
:1008A0007047000029B1064A12680243044B1A60DF
:1008B00004E0034A12688243014B1A60704700004B
:1008C0003038024029B1064A12680243044B1A60CC
:1008D00004E0034A12688243014B1A60704700002B
:1008E0004038024029B1064A12680243044B1A609C
:1008F00004E0034A12688243014B1A60704700000B
:1009000044380240704700000CB500200190009070
:100910003448006840F480303249086000BF3148F4
:10092000006800F4003000900198401C019000988D
:1009300018B90198B0F5A04FF1D12A48006800F429
:10094000003010B10120009001E0002000900098DC
:10095000012846D123484030006840F080502149AA
:10096000403108602048006840F440401E4908605B
:100970001C48083000681B490831086008460068B8
:1009800040F4004008600846006840F4A050086049
:100990001648091F0860081F006840F08070091F92
:1009A000086000BF0F48006800F000700028F9D010
:1009B00040F205700E4908600A480830006820F0CF
:1009C00003000849083108600846006840F002004A
:1009D000086000BF03480830006800F00C000828D9
:1009E000F8D10CBD003802400070004008544007A8
:1009F000003C0240042808D14FF0E021096941F091
:100A000004014FF0E022116107E04FF0E021096995
:100A100021F004014FF0E02211617047704700009F
:100A200010B51548006840F4700013490860134879
:100A3000006840F001001149086000200F490831AA
:100A400008600E4800680E4908400C4908600D48CF
:100A5000091D0860081F006820F48020091F086035
:100A6000002006490C310860FFF74EFF4FF0006090
:100A700001498039086010BD88ED00E0003802406F
:100A8000FFFFF6FE10300024F0B50C46154600219D
:100A90000022068C4FF6FE773E400684018B028CC6
:100AA0004FF60C7631407E1C06EA03162E43314386
:100AB0004FF6F576324044F001063243018302845A
:100AC000F0BDF0B50C461546002100220026078C2B
:100AD0004FF6EF7C07EA0C070784018B028C4FF678
:100AE000FF7707EA041640F6FF4739404FF6FF77D5
:100AF00007EA033739434FF6FF7707EA05273943FB
:100B00004FF65F773A4046F010073A43018302847C
:100B1000F0BDF0B50C461546002100220026078CDA
:100B20004FF6FF6C07EA0C070784818B028C4FF6A7
:100B3000FF7707EA04264FF60C7739404FF6FF7728
:100B400007EA03172F4339434FF2FF573A4046F461
:100B500080773A4381830284F0BDF0B50C46154698
:100B6000002100220026078C4EF6FF7C07EA0C07C6
:100B70000784818B028C4FF6FF7707EA043640F634
:100B8000FF4739404FF6FF7707EA052739434FF60D
:100B9000FF7707EA0337394345F6FF773A4046F4D3
:100BA00080573A4381830284F0BD000010B50221D2
:100BB000444800F067F901287FD14348006870B1CC
:100BC0000221404800F0EEF900213E4800F007FB0A
:100BD0003E48007840F010003C4908706DE039480C
:100BE00000F04DF9394948800021364800F0DAF923
:100BF0003648007800F01000002858D033480078BC
:100C000000F08000F0B331484088B0F5967F0DDDEC
:100C10002E484088B0F5487F08DA2C4840684000EC
:100C20002A49486008464068486040E027484088B4
:100C3000B0F5AF6F0FDD25484088B0F5E16F0ADAF7
:100C4000224840684000214948600846406840F01A
:100C5000010048602BE01D48408840F6980188421A
:100C600025DD1A48408840F6282188421FDA1748B7
:100C70004078401C154948700846007800F0F000A4
:100C8000087014E0FFE71148408841F2680188428B
:100C90000DDD0E48408841F25C21884207DA0B489E
:100CA000007840F08000094908700020487007482B
:100CB000007820F01000054908700221014800F07A
:100CC000CFF810BD00000140200240420C0000207F
:100CD00010B501211A4800F0D5F801282BD1194888
:100CE000007800F0800030B31648007820F0100043
:100CF000144908700846007800F00F0020B9084633
:100D0000007840F0400008700E48007800F00F00B6
:100D10000E2805DA0B480078401C0A4908700AE0E2
:100D20000848007820F080000649087008460078DE
:100D300000F0F00008700121014800F091F810BDAA
:100D4000000001400C00002010B50121214800F0F6
:100D500099F8012839D120480068401C1E490860D4
:100D6000084600686421B0FBF1F201FB120020B9D3
:100D70001A480068401C194908601948007820B3D7
:100D80001748C07880B114480068C01C14494860F6
:100D900001211448FFF713FB0021134800F002F96A
:100DA00000200F49C87010E00D4840680A490968E2
:100DB00088420AD801210B48FFF7FFFA00200849B2
:100DC0000870487088700120C8700121014800F047
:100DD00047F810BD00080040040000200800002073
:100DE000C800002000140240000C004010B5022191
:100DF000124800F047F801281AD11148006858B18C
:100E000002210E4800F0CEF800210C4800F0E7F96E
:100E100001200C4988700BE00A48807840B10748EF
:100E200000F02DF80749C860012048700020887044
:100E30000321024800F014F810BD0000000C00402F
:100E400000024042C800002021B1028842F0800226
:100E5000028004E002884FF67F731A4002807047D8
:100E6000CA430282704721B1028842F00102028027
:100E700004E002884FF6FE731A4002807047014674
:100E8000486B704730B50246002000230024158AC5
:100E900005EA0103958905EA010413B10CB10120AB
:100EA00000E0002030BD70B505460C46208850B9E2
:100EB0002389A28861882846FFF7E6FDE188284655
:100EC00000F08FF925E0208804280AD12389A28820
:100ED00061882846FFF7F5FDE188284600F08AF989
:100EE00017E0208808280AD12389A288618828462B
:100EF000FFF70FFEE188284600F089F909E0238911
:100F0000A28861882846FFF728FEE188284600F07D
:100F100087F970BD1AB183890B43838102E083890D
:100F20008B4383817047000070B5002400220023AA
:100F3000058C4FF6FE7635400584028C8388048B41
:100F40004FF68F752C40B51E2C400D882C43751E16
:100F50002A408D892A434D882A43104DA84202D049
:100F60000F4DA84213D14FF6F7752A40CD892A4379
:100F70004FF6FB752A408D882A434FF6FF652B40BC
:100F80004FF6FF552B400D8A2B434D8A2B43838010
:100F900004838D684563028470BD00000000014039
:100FA000000401400A460021018C4FF6FD731940F0
:100FB0001143018470470A460021018B4FF6F773F5
:100FC000194011430183704770B5002400220023AB
:100FD000058C4FF6EF7635400584028C8388048BB0
:100FE00048F6FF752C404FF6FF452C400D884FF614
:100FF000FF7606EA05252C434FF6DF752A408D89DA
:1010000006EA05152A434D8806EA05152A43154DBB
:10101000A84202D0144DA8421DD14FF67F752A4038
:10102000CD894FF6FF7606EA05152A434FF6BF75C0
:101030002A408D8806EA05152A434FF6FF352B40D6
:101040004FF2FF752B400D8A06EA85052B434D8A2A
:1010500006EA85052B43838004838D6885630284BB
:1010600070BD000000000140000401400A4600215C
:10107000018B4FF2FF7319404FF6FF7303EA02230F
:10108000194301837047000070B50024002200233B
:10109000058C4FF6FF6635400584028C8388848B6F
:1010A0004FF68F752C404FF6FC752C400D882C4365
:1010B0004FF6FF552A408D894FF6FF7606EA052543
:1010C0002A434D8806EA05252A43154DA84202D039
:1010D000144DA8421DD14FF2FF752A40CD894FF61D
:1010E000FF7606EA05252A434FF6FF352A408D880C
:1010F00006EA05252A434EF6FF752B404DF6FF758F
:101100002B400D8A06EA05152B434D8A06EA051584
:101110002B43838084838D68C563028470BD000087
:1011200000000140000401400A460021818B4FF677
:10113000F7731940114381837047000070B5002296
:1011400000230024058C4EF6FF7635400584038C81
:101150008488828B48F6FF752A404FF6FF452A4067
:101160000D884FF6FF7606EA05252A434DF6FF75F2
:101170002B408D8906EA05352B434D8806EA053557
:101180002B430A4DA84202D0094DA84208D14BF684
:10119000FF752C400D8A4FF6FF7606EA85152C4325
:1011A000848082838D680564038470BD00000140E3
:1011B000000401400A460021818B4FF2FF73194061
:1011C0004FF6FF7303EA022319438183704741639B
:1011D000704781637047C163704701647047416223
:1011E0007047028B4FF6F3731A400283028B0A4357
:1011F00002837047028B4FF2FF331A400283028B47
:101200004FF6FF7303EA01231A4302837047828B70
:101210004FF6F3731A408283828B0A4382837047AE
:10122000828B4FF2FF331A408283828B4FF6FF731B
:1012300003EA01231A4382837047000000220288D8
:10124000184B98420ED0184B98420BD0B0F1804FFB
:1012500008D0164B984205D0154B984202D0154B3A
:10126000984204D14FF68F731A404B881A43124BA1
:10127000984207D0114B984204D04FF6FF431A40D2
:101280000B891A4302804B68C3620B880385054BA8
:10129000984202D0044B984201D18B7A03860123F5
:1012A00083827047000001400004014000040040B8
:1012B00000080040000C00400010004000140040F6
:1012C00000BFFEE700B587B001211020FFF7EAFA62
:1012D00001210220FFF7E6FA01212020FFF7E2FAC0
:1012E0004CF2A000059001208DF8180000208DF828
:1012F0001A0001208DF81B0003208DF8190005A9A4
:101300001B48FEF7EFFF4CF2A0011948FFF755F814
:101310007020039001208DF8100000208DF812003D
:1013200001208DF8130003208DF8110003A9114846
:10133000FEF7D8FF70210F48FFF73FF84FF4284021
:10134000019001208DF8080000208DF80A0001208E
:101350008DF80B0003208DF8090001A90648FEF75F
:10136000C1FF4FF428410448FFF727F807B000BD3C
:1013700000040240001002400014024010B54FF477
:1013800000612648FFF719F810212548FFF715F8E6
:1013900000BF4FF480412348FFF70FF84FF400419E
:1013A0002048FFF70AF800BF00BF4FF400511B4868
:1013B000FFF703F84FF400411848FEF7FEFF00BFA7
:1013C00000BF80211748FEF7F8FF20211548FEF7DF
:1013D000F4FF00BF00BF20211148FEF7EEFF4021BF
:1013E0000F48FEF7EAFF00BF002000F037FD0020A5
:1013F00000F026FD002000F04DFD002000F03CFD37
:1014000000F062FC0420084908710021064881713F
:101410008160042180F8241010BD000000140240F7
:101420000010024000040240DC00002010B54FF420
:1014300000612248FEF7C3FF10212148FEF7BFFFDD
:1014400000BF4FF400411F48FEF7B9FF4FF4804141
:101450001C48FEF7B2FF00BF00BF4FF40041174821
:10146000FEF7ADFF4FF400511448FEF7A6FF00BF92
:1014700000BF20211348FEF7A2FF80211148FEF78C
:101480009CFF00BF00BF20210D48FEF798FF4021C0
:101490000B48FEF792FF00BF4FF4966000F0DEFCB1
:1014A0004FF4966000F0CCFC4FF4966000F0F2FC34
:1014B0004FF4966000F0E0FC10BD00000014024004
:1014C000001002400004024010B54FF400612248B1
:1014D000FEF775FF10212148FEF771FF00BF4FF4A2
:1014E00080411F48FEF76BFF4FF400411C48FEF798
:1014F00064FF00BF00BF4FF400511748FEF75FFFC5
:101500004FF400411448FEF758FF00BF00BF802190
:101510001348FEF754FF20211148FEF74EFF00BF8D
:1015200000BF40210D48FEF74AFF20210B48FEF77F
:1015300044FF00BF4FF4966000F090FC4FF49660BB
:1015400000F07EFC4FF4966000F0A4FC4FF496602F
:1015500000F092FC10BD0000001402400010024098
:101560000004024010B5002000F078FC002000F0DC
:1015700067FC002000F08EFC002000F07DFC10BD18
:1015800010B54FF400612048FEF717FF10211F48E7
:10159000FEF713FF00BF4FF480411D48FEF70DFF1B
:1015A0004FF400411A48FEF708FF00BF00BF4FF498
:1015B00000511548FEF701FF4FF400411248FEF7B5
:1015C000FCFE00BF00BF80211148FEF7F6FE20217F
:1015D0000F48FEF7F2FE00BF00BF20210B48FEF7C8
:1015E000ECFE40210948FEF7E8FE00BF002000F0B5
:1015F00035FC002000F024FC002000F04BFC002013
:1016000000F03AFC10BD000000140240001002403F
:101610000004024010B54FF400612148FEF7CFFEF0
:1016200010212048FEF7C9FE00BF4FF480411E483C
:10163000FEF7C5FE4FF400411B48FEF7BEFE00BF9B
:1016400000BF4FF400511648FEF7B9FE4FF40041B9
:101650001348FEF7B2FE00BF00BF20211248FEF77C
:10166000AEFE80211048FEF7A8FE00BF00BF20217B
:101670000C48FEF7A4FE40210A48FEF79EFE00BF7C
:1016800040F26C7000F0EAFB40F26C7000F0D8FBA6
:10169000002000F0FFFB002000F0EEFB10BD00007A
:1016A00000140240001002400004024010B54FF444
:1016B00000612148FEF781FE10212048FEF77FFEE1
:1016C00000BF4FF400411E48FEF779FE4FF4804101
:1016D0001B48FEF772FE00BF00BF4FF400411648E2
:1016E000FEF76DFE4FF400511348FEF766FE00BF93
:1016F00000BF80211248FEF762FE20211048FEF74D
:101700005CFE00BF00BF40210C48FEF758FE2021C0
:101710000A48FEF752FE00BF002000F09FFB0020A9
:1017200000F08EFB40F26C7000F0B4FB40F26C7085
:1017300000F0A2FB10BD00000014024000100240A7
:10174000000402401E4800F12001827832B1012AD3
:1017500014D0022A1CD0052A2ED125E00A78042AAA
:1017600009D005220A70174A126802F57A7242609F
:101770000122827001E0012282701EE0114B42685A
:101780001B689A4203D200220A700222827014E07F
:10179000827842B105220A700A4A126802F57A720A
:1017A00042600522827000BF064B42681B689A4265
:1017B00001D204220A7000E000BF00BF70470000A1
:1017C000E000002008000020704770477047704715
:1017D00010B504466FF00400FFF70CF9E11704EBB5
:1017E0005171C1F3C701074A11701046007800EB30
:1017F0004001C1EBC0104FF6FF7101EAC000024981
:10180000088010BD000000200200002070B50446D2
:101810004FF4077094FBF0F0C6B24FF4077094FBDE
:10182000F0F100FB114085B205E04FF4077000F0C5
:101830002FF8701EC6B2002EF7D115B1284600F061
:1018400027F870BD0146114A12784A434FF0E02351
:101850005A6100229A611A46126942F001021A6125
:1018600000BF4FF0E022106900F001021AB100F44D
:101870008032002AF5D04FF0E022126922F00102F6
:101880004FF0E0231A6100229A61704700000020A7
:101890000146114A12884A434FF0E0235A61002260
:1018A0009A611A46126942F001021A6100BF4FF0B4
:1018B000E022106900F001021AB100F48032002A1F
:1018C000F5D04FF0E022126922F001024FF0E02340
:1018D0001A6100229A6170470200002000B589B0A9
:1018E00001210846FEF7DEFF01210846FEF7FAFF58
:1018F0004FF48070079002208DF8200000208DF8B2
:10190000220003208DF8210001208DF8230007A973
:101910002948FEF7E7FC012208212748FEF72AFDA7
:10192000A720ADF80C000020ADF80E0042F21070B8
:1019300004900020ADF8140003A92048FFF77EFCB6
:101940000020ADF80000ADF802000120ADF8040061
:101950000020ADF806000320ADF8080069461748DE
:10196000FFF7A1FA012203211448FFF7D3FA01215E
:101970001248FFF778FA1B208DF8180001208DF827
:10198000190003208DF81A0001208DF81B0006A80D
:10199000FEF740FF19208DF8180001208DF819007E
:1019A00002208DF81A0001208DF81B0006A8FEF712
:1019B00031FF09B000BD00000000024000000140FE
:1019C00010B50020154B1B7803F0400323B3134BD5
:1019D0005B68190E114B5B68C3F30742D343DBB25C
:1019E0008B420BD151B90D4B9B88C3F307210B4B95
:1019F0001A79D343DBB28B4200D1084620B1074BA2
:101A00001B7803F080033BB9044B1B7823F04003A1
:101A1000024C23700023637010BD00000C000020F6
:101A200010B5FFF7CDFF0446622C0AD004DC022C6F
:101A300017D0222C19D10CE0A82C06D0C22C14D11E
:101A40000BE001200C49087213E002200A490872D9
:101A50000FE00320084908720BE0042006490872D1
:101A600007E005200449087203E0002002490872DB
:101A700000BF00BF10BD00000C00002010B5FFF734
:101A8000CFFF2248007A06283BD2DFE800F03A0375
:101A90000E19242FFFF7CAFC1D48006808B9012061
:101AA00000E000201A4908602EE0FFF70DFD1848FD
:101AB000006808B9012000E000201549086023E013
:101AC000FFF7A8FD1248006808B9012000E00020D7
:101AD0000F49086018E0FFF7E9FD0D48006808B9F4
:101AE000012000E000200A4908600DE0FFF748FDF2
:101AF0000748006808B9012000E000200449086098
:101B000002E0FFF73DFD00BF00BF10BD0C0000204C
:101B1000A88242420C4901F120000C4ACA600C4BD9
:101B20000B610C4B4B610C4B8B610C4BCB610C4A2A
:101B300042600C4B83600C4BC3600C4B03610C4B3D
:101B400083610C4B43617047E0000020451700089B
:101B5000C9170008CD170008CF170008CB170008D9
:101B60002D140008C914000815160008AD16000849
:101B700065150008811500081CB501212020FEF71D
:101B800091FE4FF4C060009001208DF80400002009
:101B90008DF8060001208DF8070003208DF8050060
:101BA00069460448FEF79EFB4FF4C0610148FEF70A
:101BB00004FC1CBD00140240002007E01C4A52F83F
:101BC00020101C4A42F82010411CC8B20428F5DB42
:101BD00018494968491C81B116498968491C61B195
:101BE0001449C968491C41B11249496829B11149D0
:101BF000896811B10F49C96819B900210E4A91735A
:101C000014E00C4991ED010A0B4981ED040A0949E0
:101C100091ED020A084981ED050A064991ED030A92
:101C2000054981ED060A0121034A917370470000BE
:101C300000000E08B8000020180000204FF4A0603B
:101C4000FEF724FEA820FFF7C3FD4FF4FA60FFF76C
:101C5000DDFDFFF791FFFFF735FB142140F2CF7058
:101C600000F036F8142140F2CF7000F08DF800211A
:101C700040F2473000F09CF9FFF780FBFFF72EFEA3
:101C8000FEF7FEFCFFF798FF00F0E0F900F0C0F966
:101C900000F00EF94FF4AF614FF08040FFF799FA72
:101CA00041F28830FFF7B2FDB7EE000A054880ED3B
:101CB000140A06E000F04AF9FFF7E0FE0420FFF7FF
:101CC000A5FDF7E71800002000B5FFF723FF00BDD2
:101CD00030B58BB004460D4601210220FEF7E2FD2F
:101CE00001210220FEF7EEFD0320099002208DF86D
:101CF000280000208DF82A0001208DF82B000320F9
:101D00008DF8290009A91E48FEF7ECFA02220021ED
:101D10001B48FEF72FFB022201211948FEF72AFB80
:101D20000020ADF82000ADF81A00A8B2ADF81800F8
:101D3000079406A91348FFF781FA6020ADF8040064
:101D40000020ADF810000120ADF8060001A90D48F3
:101D5000FFF79AF901A90B48FFF7F0F908210948A4
:101D6000FFF7E2F908210748FFF724FA01210548A7
:101D7000FFF76AF801210348FFF775F80BB030BD93
:101D8000000402400004004030B58BB004460D460C
:101D900001210846FEF786FD01210220FEF792FD93
:101DA000C020099002208DF8280000208DF82A001C
:101DB00001208DF82B0003208DF8290009A91E4869
:101DC000FEF790FA022206211B48FEF7D3FA022200
:101DD00007211948FEF7CEFA0020ADF82000ADF833
:101DE0001A00A8B2ADF81800079406A91348FFF727
:101DF00025FA6020ADF804000020ADF810000120A5
:101E0000ADF8060001A90D48FFF78EF801A90B48AF
:101E1000FFF7DAF808210948FFF7CDF8082107484D
:101E2000FFF724F901210548FFF70EF801210348C7
:101E3000FFF719F80BB030BD00000240000400406D
:101E400010B50446B4F5FA6F01D340F2CF742146C1
:101E50000148FFF7C2F910BD0004004010B5044668
:101E6000B4F5FA6F01D340F2CF7421460148FFF771
:101E7000B2F910BD0004004010B50446B4F5FA6F85
:101E800001D340F2CF7421460148FFF7A2F910BDFB
:101E90000004004010B50446B4F5FA6F01D340F2D7
:101EA000CF7421460148FFF792F910BD00040040AD
:101EB00000B58BB001210220FEF7F4FC0121084699
:101EC000FEF700FD0820099002208DF82800002070
:101ED0008DF82A0001208DF82B0003208DF82900B1
:101EE00009A91948FEF7FEF9012203211648FEF759
:101EF00041FA0020ADF82000ADF81A005320ADF8EB
:101F0000180041F28730079006A94FF08040FFF794
:101F100095F96020ADF804000020ADF81000012014
:101F2000ADF8060001A98007FFF74EF80821C806A2
:101F3000FFF79CF801218807FEF786FF012188073B
:101F4000FEF791FF0BB000BD0004024010B54FF446
:101F5000FA710807FFF73DF941F28830FFF756FCA8
:101F600040F2B6314FF08040FFF733F941F288304C
:101F7000FFF74CFC4FF4AF614FF08040FFF729F9B9
:101F800041F28830FFF742FC40F23A714807FFF710
:101F900020F941F28830FFF739FC40F6FC014FF0A0
:101FA0008040FFF716F941F28830FFF72FFC10BD93
:101FB0007FB505460C4601210420FEF783FC0295FF
:101FC000A0B2ADF804000020ADF80600ADF80C009A
:101FD00001A90E48FFF732F9012211460B48FEF71E
:101FE00099FF01210948FEF73EFF1E208DF80000F1
:101FF00001208DF8010003208DF8020001208DF8EA
:1020000003006846FEF706FC7FBD000000080040A4
:102010001CB501212020FEF745FC012000908DF821
:10202000040000208DF8060001208DF80700032031
:102030008DF8050069460448FEF754F9012102486D
:10204000FEF7BBF91CBD00000014024000B589B0CA
:1020500001210846FEF726FC01210820FEF732FC8C
:102060000120079002208DF8200000208DF822002A
:1020700003208DF8210002208DF8230007A92148B4
:10208000FEF730F9022200211E48FEF773F95320B3
:10209000ADF80C000020ADF80E004EF66020049064
:1020A0000020ADF8140003A91748FFF7C7F8002077
:1020B000ADF80000ADF802000120ADF804000020EA
:1020C000ADF80600ADF8080069460F48FEF7EBFED4
:1020D000012202210C48FEF71DFF01210A48FEF7EC
:1020E000C2FE32208DF8180000208DF819008DF8FE
:1020F0001A0001208DF81B0006A8FEF78BFB09B023
:1021000000BD000000000240000C00404FF0407095
:10211000E1EE100A7047000038210008000000209E
:102120000C000000C4010008442100080C0000203D
:1021300074070000E001000800000000000000003B
:04214000000000009B
:040000050800018965
:00000001FF
