:020000040800F2
:10000000A806002029020008C7030008BF03000853
:10001000C3030008DB020008E1090008000000003B
:10002000000000000000000000000000990400082B
:10003000DF0200080000000055040008B1050008B8
:10004000430200084302000843020008430200087C
:10005000430200084302000843020008430200086C
:10006000430200084302000843020008430200085C
:10007000430200084302000843020008430200084C
:10008000430200084302000843020008430200083C
:10009000430200084302000843020008430200082C
:1000A000430200084302000843020008430200081C
:1000B00043020008430200081D060008430200082E
:1000C00043020008430200084302000843020008FC
:1000D00043020008430200084302000843020008EC
:1000E00043020008430200084302000843020008DC
:1000F00043020008430200084302000843020008CC
:1001000043020008430200084302000843020008BB
:1001100043020008430200084302000843020008AB
:10012000430200084302000843020008430200089B
:10013000430200084302000843020008430200088B
:10014000430200084302000843020008430200087B
:10015000430200084302000843020008430200086B
:10016000430200084302000843020008430200085B
:10017000430200084302000843020008430200084B
:10018000430200084302000800F002F800F03CF8C7
:100190000AA090E8000C82448344AAF10107DA45E2
:1001A00001D100F031F8AFF2090EBAE80F0013F0F8
:1001B000010F18BFFB1A43F001031847A4100000F9
:1001C000C4100000103A24BF78C878C1FAD852078A
:1001D00024BF30C830C144BF04680C6070470000C1
:1001E0000023002400250026103A28BF78C1FBD840
:1001F000520728BF30C148BF0B6070471FB501F0E0
:1002000029F81FBD10B510BD00F031F81146FFF7F9
:10021000F5FF00F0DDFE00F04FF803B4FFF7F2FF4A
:1002200003BC00F053F80000094880470948004724
:10023000FEE7FEE7FEE7FEE7FEE7FEE7FEE7FEE796
:10024000FEE7FEE704480549054A064B70470000F3
:10025000B505000889010008A8000020A8060020B4
:10026000A8020020A802002070477047704775461A
:1002700000F028F8AE4605006946534620F0070016
:10028000854618B020B5FFF7DDFFBDE820404FF0F0
:1002900000064FF000074FF000084FF0000B21F070
:1002A0000701AC46ACE8C009ACE8C009ACE8C0093D
:1002B000ACE8C0098D4670470446AFF30080204685
:1002C000FFF7ABFF004870474400002001491820A9
:1002D000ABBEFEE726000200704700BFFEE7704796
:1002E000F0B50A4600210023002400BF3DE00125AF
:1002F00005FA01F3156805EA03049C4234D1056848
:100300004F000326BE40B543056015794E00B54049
:100310000668354305601579012D02D01579022D47
:1003200016D185684F000326BE40B54385605579D8
:100330004E00B540866835438560456801268E408D
:10034000B5434560456896798E40B6B23543456001
:10035000C5684F000326BE40B543C560D5794E0041
:10036000B540C6683543C560491C1029BFD3F0BDF0
:10037000F0B5002300244D07ED0E02FA05F3CE1070
:1003800000F1200555F826504E07F70E0F26BE4007
:10039000B543CF1000F1200646F82750CE1000F1EB
:1003A000200555F8265045EA0304CE1000F120053B
:1003B00045F82640F0BD418370470183704700BF78
:1003C000FEE700BFFEE7704770B5002100230F2253
:1003D000C4781CB3174C246804F4E064C4F5E064EA
:1003E000C4F30721C1F10404E3B20A4144789C40FC
:1003F000E1B28478144021430C07210E0E4C05789D
:100400006155047804F01F050124AC4005786D1196
:10041000AD0005F1E025C5F8004109E0047804F0DD
:100420001F050124AC40054D0678761145F826409D
:1004300070BD00000CED00E000E400E080E100E0B1
:1004400002490143024A1160704700000000FA05AA
:100450000CED00E07047000029B1064A1268024323
:10046000044B1A6004E0034A12688243014B1A608D
:10047000704700003038024029B1064A1268024332
:10048000044B1A6004E0034A12688243014B1A606D
:100490007047000040380240704700000CB5002053
:1004A000019000903448006840F480303249086080
:1004B00000BF3148006800F4003000900198401CF3
:1004C0000190009818B90198B0F5A04FF1D12A48D1
:1004D000006800F4003010B10120009001E000201D
:1004E00000900098012846D123484030006840F031
:1004F00080502149403108602048006840F4404065
:100500001E4908601C48083000681B490831086013
:100510000846006840F4004008600846006840F45F
:10052000A05008601648091F0860081F006840F0C6
:100530008070091F086000BF0F48006800F000705D
:100540000028F9D040F205700E4908600A480830CA
:10055000006820F003000849083108600846006878
:1005600040F00200086000BF03480830006800F057
:100570000C000828F8D10CBD003802400070004083
:1005800008544007003C0240042808D14FF0E02105
:10059000096941F004014FF0E022116107E04FF0DA
:1005A000E021096921F004014FF0E0221161704758
:1005B0007047000010B51548006840F470001349FA
:1005C00008601348006840F00100114908600020ED
:1005D0000F49083108600E4800680E4908400C4970
:1005E00008600D48091D0860081F006820F480207D
:1005F000091F0860002006490C310860FFF74EFF14
:100600004FF0006001498039086010BD88ED00E0BE
:1006100000380240FFFFF6FE1030002410B5012123
:10062000074800F02CF8012804D106480068401C57
:10063000044908600121024800F012F810BD0000D2
:10064000000800400400002021B1028842F080022E
:10065000028004E002884FF67F731A4002807047E0
:10066000CA430282704721B1028842F0010202802F
:1006700004E002884FF6FE731A400280704730B5DE
:100680000246002000230024158A05EA010395890B
:1006900005EA010413B10CB1012000E0002030BDD7
:1006A0001AB183890B43838102E083898B43838161
:1006B0007047000070B5002400220023058C4FF61F
:1006C000FE7635400584028C8388048B4FF68F7547
:1006D0002C40B51E2C400D882C43751E2A408D8958
:1006E0002A434D882A43104DA84202D00F4DA842FC
:1006F00013D14FF6F7752A40CD892A434FF6FB7583
:100700002A408D882A434FF6FF652B404FF6FF5550
:100710002B400D8A2B434D8A2B43838004838D68A5
:100720004563028470BD00000000014000040140E8
:100730000A460021018B4FF6F773194011430183DC
:100740007047000070B5002400220023058C4FF68E
:10075000EF7635400584028C8388048B48F6FF755C
:100760002C404FF6FF452C400D884FF6FF7606EAE9
:1007700005252C434FF6DF752A408D8906EA0515BD
:100780002A434D8806EA05152A43154DA84202D092
:10079000144DA8421DD14FF67F752A40CD894FF6E2
:1007A000FF7606EA05152A434FF6BF752A408D8865
:1007B00006EA05152A434FF6FF352B404FF2FF7529
:1007C0002B400D8A06EA85052B434D8A06EA8505EE
:1007D0002B43838004838D688563028470BD000091
:1007E00000000140000401400A460021018B4FF245
:1007F000FF7319404FF6FF7303EA02231943018385
:100800007047000070B5002400220023058C4FF6CD
:10081000FF6635400584028C8388848B4FF68F7584
:100820002C404FF6FC752C400D882C434FF6FF559D
:100830002A408D894FF6FF7606EA05252A434D8822
:1008400006EA05252A43154DA84202D0144DA842B8
:100850001DD14FF2FF752A40CD894FF6FF7606EA8B
:1008600005252A434FF6FF352A408D8806EA0525DF
:100870002A434EF6FF752B404DF6FF752B400D8A2F
:1008800006EA05152B434D8A06EA05152B4383809E
:1008900084838D68C563028470BD00000000014040
:1008A000000401400A460021818B4FF6F77319407E
:1008B000114381837047000070B50022002300249B
:1008C000058C4EF6FF7635400584038C8488828B38
:1008D00048F6FF752A404FF6FF452A400D884FF62F
:1008E000FF7606EA05252A434DF6FF752B408D89D4
:1008F00006EA05352B434D8806EA05352B430A4D9C
:10090000A84202D0094DA84208D14BF6FF752C40F1
:100910000D8A4FF6FF7606EA85152C438480828384
:100920008D680564038470BD00000140000401402F
:100930000A460021818B4FF2FF7319404FF6FF7377
:1009400003EA02231943818370474163704781633F
:100950007047C1637047016470470000002202883D
:10096000184B98420ED0184B98420BD0B0F1804FE4
:1009700008D0164B984205D0154B984202D0154B23
:10098000984204D14FF68F731A404B881A43124B8A
:10099000984207D0114B984204D04FF6FF431A40BB
:1009A0000B891A4302804B68C3620B880385054B91
:1009B000984202D0044B984201D18B7A03860123DE
:1009C00083827047000001400004014000040040A1
:1009D00000080040000C00400010004000140040DF
:1009E00000BFFEE700B587B001211020FFF734FDFE
:1009F00001210220FFF730FD01212020FFF72CFD0F
:100A00004CF2A000059001208DF8180000208DF810
:100A10001A0001208DF81B0003208DF8190005A98C
:100A20001B48FFF75DFC4CF2A0011948FFF7C3FC1F
:100A30007020039001208DF8100000208DF8120026
:100A400001208DF8130003208DF8110003A911482F
:100A5000FFF746FC70210F48FFF7ADFC4FF428402C
:100A6000019001208DF8080000208DF80A00012077
:100A70008DF80B0003208DF8090001A90648FFF747
:100A80002FFC4FF428410448FFF795FC07B000BD48
:100A900000040240001002400014024010B54FF460
:100AA00000612648FFF787FC10212548FFF783FCEB
:100AB00000BF4FF480412348FFF77DFC4FF4004115
:100AC0002048FFF778FC00BF00BF4FF400511B48DF
:100AD000FFF771FC4FF400411848FFF76CFC00BFB2
:100AE00000BF80211748FFF766FC20211548FFF75B
:100AF00062FC00BF00BF20211148FFF75CFC4021D1
:100B00000F48FFF758FC00BF002000F049FB002011
:100B100000F038FB002000F05FFB002000F04EFBEF
:100B200000F074FA04200849087100210648417158
:100B30008160042180F8201010BD000000140240E4
:100B400000100240000402400800002010B54FF4DD
:100B500000612248FFF731FC10212148FFF72DFCEE
:100B600000BF4FF400411F48FFF727FC4FF48041BE
:100B70001C48FFF720FC00BF00BF4FF4004117489E
:100B8000FFF71BFC4FF400511448FFF714FC00BFA3
:100B900000BF20211348FFF710FC80211148FFF708
:100BA0000AFC00BF00BF40210D48FFF706FC2021D2
:100BB0000B48FFF700FC00BF4FF47A7000F0F0FA2A
:100BC0004FF47A7000F0DEFA4FF47A7000F004FB14
:100BD0004FF47A7000F0F2FA10BD000000140240E9
:100BE000001002400004024010B54FF4006122489A
:100BF000FFF7E3FB10212148FFF7DFFB00BF4FF4B5
:100C000080411F48FFF7D9FB4FF400411C48FFF714
:100C1000D2FB00BF00BF4FF400511748FFF7CDFBD8
:100C20004FF400411448FFF7C6FB00BF00BF80210E
:100C30001348FFF7C2FB20211148FFF7BCFB00BFA0
:100C400000BF20210D48FFF7B8FB40210B48FFF7FC
:100C5000B2FB00BF4FF47A7000F0A2FA4FF47A7042
:100C600000F090FA4FF47A7000F0B6FA4FF47A7010
:100C700000F0A4FA10BD0000001402400010024071
:100C80000004024010B5002000F08AFA002000F0B5
:100C900079FA002000F0A0FA002000F08FFA10BDD1
:100CA00010B54FF400612048FFF785FB10211F4865
:100CB000FFF781FB00BF4FF480411D48FFF77BFB2E
:100CC0004FF400411A48FFF776FB00BF00BF4FF416
:100CD00000511548FFF76FFB4FF400411248FFF732
:100CE0006AFB00BF00BF80211148FFF764FB202191
:100CF0000F48FFF760FB00BF00BF20210B48FFF744
:100D00005AFB40210948FFF756FB00BF002000F0C6
:100D100047FA002000F036FA002000F05DFA0020CB
:100D200000F04CFA10BD0000001402400010024018
:100D30000004024010B54FF400612148FFF73DFB6D
:100D400010212048FFF739FB00BF4FF400411E4837
:100D5000FFF733FB4FF480411B48FFF72CFB00BF2C
:100D600000BF4FF400411648FFF727FB4FF4005136
:100D70001348FFF720FB00BF00BF20211248FFF7F8
:100D80001CFB80211048FFF716FB00BF00BF40216D
:100D90000C48FFF712FB20210A48FFF70CFB00BFAD
:100DA000002000F0FDF9002000F0ECF94FF4617034
:100DB00000F012FA4FF4617000F000FA10BD00006C
:100DC00000140240001002400004024010B54FF42D
:100DD00000612148FFF7F1FA10212048FFF7EDFAF2
:100DE00000BF4FF400411E48FFF7E7FA4FF480417F
:100DF0001B48FFF7E0FA00BF00BF4FF40041164860
:100E0000FFF7DBFA4FF400511348FFF7D4FA00BFA5
:100E100000BF20211248FFF7D0FA80211048FFF7C9
:100E2000CAFA00BF00BF40210C48FFF7C6FA2021D4
:100E30000A48FFF7C0FA00BF4FF4617000F0B0F944
:100E40004FF4617000F09EF9002000F0C5F9002019
:100E500000F0B4F910BD0000001402400010024080
:100E6000000402401E4800F11C01427832B1012A00
:100E700014D0022A1CD0032A2ED125E00A78042A95
:100E800009D005220A70174A126802F57A72426088
:100E90000122427001E0012242701EE0114B4268C3
:100EA0001B689A4203D200220A700222427014E0A8
:100EB000427842B105220A700A4A126802F57A7233
:100EC00042600322427000BF064B42681B689A4290
:100ED00001D204220A7000E000BF00BF704700008A
:100EE0000C000020040000207047704770477047D6
:100EF00010B504466FF00400FFF746FBE11704EB62
:100F00005171C1F3C701074A11701046007800EB18
:100F10004001C1EBC0104FF6FF7101EAC000024969
:100F2000088010BD00000020020000200C4901F1E3
:100F30001C000C4A8A600C4BCB600C4B0B610C4BB9
:100F40004B610C4B8B610C4A42600C4B83600C4B29
:100F5000C3600C4B03610C4B83610C4B43617047C6
:100F60000C000020650E0008E90E0008ED0E0008D8
:100F7000EF0E0008EB0E00084D0B0008E90B00080F
:100F8000350D0008CD0D0008850C0008A10C0008E7
:100F90001CB501212020FFF75FFA4FF4C0600090DC
:100FA00001208DF8040000208DF8060001208DF846
:100FB000070003208DF8050069460448FFF790F903
:100FC0004FF4C0610148FFF7F6F91CBD0014024060
:100FD0004FF4A060FFF734FAA820FFF789FFFFF76E
:100FE000D7FFFFF7FFFC152140F2CF7000F012F899
:100FF000152140F2CF7000F069F82A2140F2CF703D
:1010000000F0F8F8FFF74AFD00BFFEE700B5FFF774
:101010008DFF00BD30B58BB004460D460121022086
:10102000FFF71AFA01210220FFF726FA03200990A0
:1010300002208DF8280000208DF82A0001208DF86C
:101040002B0003208DF8290009A91E48FFF748F955
:10105000022200211B48FFF78BF9022201211948C7
:10106000FFF786F90020ADF82000ADF81A00A8B20D
:10107000ADF81800079406A91348FFF76FFC60202D
:10108000ADF804000020ADF810000120ADF8060016
:1010900001A90D48FFF7B6FB01A90B48FFF70CFCAF
:1010A00008210948FFF7FEFB08210748FFF740FC2D
:1010B00001210548FFF7C8FA01210348FFF7D3FAD9
:1010C0000BB030BD000402400004004030B58BB0CE
:1010D00004460D4601210846FFF7BEF90121022012
:1010E000FFF7CAF9C020099002208DF828000020DF
:1010F0008DF82A0001208DF82B0003208DF829009F
:1011000009A91E48FFF7ECF8022206211B48FFF749
:101110002FF9022207211948FFF72AF90020ADF81C
:101120002000ADF81A00A8B2ADF81800079406A97F
:101130001348FFF713FC6020ADF804000020ADF861
:1011400010000120ADF8060001A90D48FFF7B2FA22
:1011500001A90B48FFF7F6FA08210948FFF7E8FA5A
:1011600008210748FFF740FB01210548FFF76CFA0B
:1011700001210348FFF777FA0BB030BD00000240B1
:101180000004004010B50446B4F5FA6F01D340F2F4
:10119000CF7421460148FFF7DEFB10BD000400407C
:1011A00010B50446B4F5FA6F01D340F2CF7421466E
:1011B0000148FFF7CEFB10BD0004004010B5044607
:1011C000B4F5FA6F01D340F2CF7421460148FFF71E
:1011D000BEFB10BD0004004010B50446B4F5FA6F24
:1011E00001D340F2CF7421460148FFF7AEFB10BD9A
:1011F000000400407FB505460C4601210420FFF79E
:101200003BF90295A0B2ADF804000020ADF806004D
:10121000ADF80C0001A90E48FFF7A0FB0122114612
:101220000B48FFF73DFA01210948FFF71CFA1E2081
:101230008DF8000001208DF8010003208DF80200D8
:1012400001208DF803006846FFF7BEF87FBD00005F
:10125000000800404FF04070E1EE100A70470000B7
:10126000801200080000002008000000C4010008EF
:101270008812000808000020A0060000E001000815
:08128000000000000000000066
:040000050800018965
:00000001FF
