:020000040800F2
:1000000020080020290200080310000889050008C4
:10001000FF0F0008FB020008311A00080000000072
:10002000000000000000000000000000F5100008C3
:10003000FF02000800000000911000080D120008E7
:10004000430200084302000843020008430200087C
:10005000430200084302000843020008430200086C
:10006000430200084302000843020008430200085C
:10007000430200084302000843020008430200084C
:10008000430200084302000843020008430200083C
:10009000430200084302000843020008430200082C
:1000A000430200088D140008430200089D13000855
:1000B0004302000843020008F1140008430200084C
:1000C00043020008430200084302000843020008FC
:1000D00043020008430200084302000843020008EC
:1000E00043020008430200084302000843020008DC
:1000F00043020008430200084302000843020008CC
:10010000430200084302000861150008430200088A
:1001100043020008430200084302000843020008AB
:10012000430200084302000843020008430200089B
:10013000430200084302000843020008430200088B
:10014000430200084302000843020008430200087B
:10015000430200084302000843020008430200086B
:10016000430200084302000843020008430200085B
:10017000430200084302000843020008430200084B
:10018000430200084302000800F002F800F03CF8C7
:100190000AA090E8000C82448344AAF10107DA45E2
:1001A00001D100F031F8AFF2090EBAE80F0013F0F8
:1001B000010F18BFFB1A43F0010318470C3F000062
:1001C0002C3F0000103A24BF78C878C1FAD85207F3
:1001D00024BF30C830C144BF04680C6070470000C1
:1001E0000023002400250026103A28BF78C1FBD840
:1001F000520728BF30C148BF0B6070471FB503F0DE
:100200002EFF1FBD10B510BD00F044F81146FFF7DA
:10021000F5FF02F02FFD00F062F803B4FFF7F2FFE4
:1002200003BC00F063F80000094880470948004714
:10023000FEE7FEE7FEE7FEE7FEE7FEE7FEE7FEE796
:10024000FEE7FEE704480549054A064B70470000F3
:100250001112000889010008200200202008002057
:10026000200400202004002070477047704710B51C
:1002700000F008F8006810BD10B5044600F002F860
:10028000046010BD00487047BC0100200048704762
:10029000BC0100207546FFF7F9FFAE460500694630
:1002A000534620F00700854618B020B5FFF7CAFF77
:1002B000BDE820404FF000064FF000074FF0000867
:1002C0004FF0000B21F00701AC46ACE8C009ACE8E8
:1002D000C009ACE8C009ACE8C0098D4670470446C7
:1002E000AFF300802046FFF798FF00000149182077
:1002F000ABBEFEE726000200704700BFFEE7704776
:1003000030B10749096841F48061054A116005E090
:100310000349096821F48061014A116070470000B7
:10032000003C024070B504460A460026092502B981
:1003300009E0012A01D1160205E0022A01D11602C4
:1003400001E04FF4407600F09FF80546092D28D1D2
:100350001548006820F4407013490860084600689A
:10036000304308600846006820F0F800086008463E
:10037000006844F0020108430B4908600846006821
:1003800040F48030086000F07FF8054606480068B9
:1003900020F00200044908600846006820F0F800D8
:1003A0000860284670BD0000103C02400920134937
:1003B000096801F48031B1F5803F01D101201CE0D2
:1003C0000E49096801F0100109B1062015E00B493A
:1003D000096801F4807109B102200EE0074909683B
:1003E00001F0EF0109B1072007E00449096801F0B5
:1003F000020109B1082000E0092070470C3C0240CE
:100400000348006840F00040014908607047000060
:10041000103C024030B502460C46092500F034F885
:100420000546092D19D10E48006820F440700C498A
:1004300008600846006840F40070086008460068DC
:1004400040F001000860146000F01EF80546044802
:10045000006820F0010002490860284630BD000015
:10046000103C02400548006800F0004028B10448F4
:1004700002490C390860034808607047103C02408C
:1004800023016745AB89EFCD08B509200090FFF740
:100490008DFF009002E0FFF789FF00909DF80000BB
:1004A0000128F8D09DF8000008BDF0B50A460021EB
:1004B0000023002400BF3DE0012505FA01F3156883
:1004C00005EA03049C4234D105684F000326BE4070
:1004D000B543056015794E00B540066835430560A3
:1004E0001579012D02D01579022D16D185684F009E
:1004F0000326BE40B543856055794E00B5408668F9
:1005000035438560456801268E40B54345604568A2
:1005100096798E40B6B235434560C5684F000326D4
:10052000BE40B543C560D5794E00B540C668354379
:10053000C560491C1029BFD3F0BDF0B500230024CD
:100540004D07ED0E02FA05F3CE1000F1200555F827
:1005500026504E07F70E0F26BE40B543CF1000F1D0
:10056000200646F82750CE1000F1200555F82650F9
:1005700045EA0304CE1000F1200545F82640F0BD01
:10058000418370470183704700BFFEE710B500202C
:100590000F4908600F48006820F440200D490860AA
:1005A0000846006840F48020086000200A49C1F82D
:1005B000A402022002F050F8012005490860022040
:1005C00002F04AF800200449C1F8A00210BD000062
:1005D000A082404200040240008040421CB501213C
:1005E000022000F057FD4FF44070009001208DF87C
:1005F000040000208DF8060003208DF8050001207E
:100600008DF8070069460548FFF74FFF01200449B0
:1006100008600449C1F8A4021CBD000000040240A7
:10062000A08240420080404210B500200F4908607F
:100630000F48006820F440200D4908600846006813
:1006400040F48020086001200A49C1F8A402022079
:1006500002F002F8012005490860022001F0FCFFC9
:1006600000200449C1F8A00210BD0000A082404251
:10067000000402400080404270B505460024164840
:10068000006820F4402014490860084600680860AB
:10069000002616E0002011490860022001F0DCFF6E
:1006A00001200F49C1F8A0026006040E0B487C38F7
:1006B000006808B1601CC4B2012001F0CDFF701CBD
:1006C000C6B2082EE6DB15B9FFF7AEFF01E0FFF773
:1006D0005DFF204670BD000000040240A082404241
:1006E0000080404270B504461548006820F4402060
:1006F000134908600846006840F480200860002024
:1007000010490860002517E0E0090E49091D08603E
:100710006006040E022001F09FFF01200A49C1F883
:10072000A002022001F098FF002006490860022084
:1007300001F092FF681CC5B2082DE5DB70BD00001A
:1007400000040240A08240420080404210B50F48A1
:10075000006820F440200D4908600846006840F415
:100760008020086001200A4908600A49C1F8A002F7
:10077000042001F071FF002005490860042001F009
:100780006BFF00200349C1F8A00210BD0004024025
:10079000A48240420080404210B50F48006820F417
:1007A00040200D4908600846006840F48020086039
:1007B00000200A4908600A49C1F8A402042001F097
:1007C0004BFF0120054908600549C1F8A402042037
:1007D00001F042FF10BD000000040240A082404230
:1007E0000080404210B500241348006820F44020E7
:1007F0001149086008460068086001200F49086038
:1008000001F02AFF01200E49C1F8A00201F024FFE7
:1008100007E0601CC4B2FA2C03DDFFF7BDFF012026
:1008200010BD0648803800680028F2D10349091F2E
:10083000086000BFF4E7000000040240A4824042C8
:100840000080404210B52DED108B86B0F0EE409A3E
:10085000B0EE60AAF0EE41AAB0EE61BAB0EE428A04
:10086000F0EE628AF0EE43FAE44C6BEE0B0A48EECF
:10087000080A48EEA80AB0EE600A02F085F9B0EE68
:10088000409A2BEE090AB0EE40BA28EE090AB0EE03
:10089000408A28EE890AF0EE408A94ED150AD4EDDC
:1008A000170A20EE200AD4ED140A94ED161A00EE71
:1008B000C10AF0EE000A20EE200AF0EE40BA94EDF4
:1008C000140AD4ED150A20EE200AD4ED160A94ED90
:1008D000171A00EE810AF0EE000A20EE200AB0EEB0
:1008E00040DA94ED140A20EE000AD4ED150A94EDD6
:1008F000151A00EEC10AD4ED160A94ED161A00EE90
:10090000C10AD4ED170A94ED171A00EE810AF0EE31
:1009100040DA84ED20BA84ED218AC4ED228AC4ED48
:1009200023BA84ED24DAC4ED25DA28EE2D0A08EE88
:10093000CD0AB0EE40EA28EEAB0A0BEE6D0AF0EEFF
:1009400040EA2BEE0D0A08EE6B0AB0EE40FA94ED89
:10095000180ADFEDAB0A0EEE200A84ED180A94EDBA
:10096000190ADFEDA70A0EEEA00A84ED190A94ED2C
:100970001A0ADFEDA30A0FEE200A84ED1A0AF0EE40
:10098000000AB0EE690A00EE8E0AD4ED180A30EEC5
:10099000200AF0EE409AF0EE000AB0EE4A0A00EEAD
:1009A000AE0AD4ED190A30EE200AB0EE40AAF0EEFD
:1009B000000AB0EE6A0A00EE8F0AD4ED1A0A30EE91
:1009C000200AF0EE40AA94ED150AB1EE400A20EE9E
:1009D000290AD4ED160A00EECA0AD4ED170A00EE71
:1009E000EA0AD4ED140A9FED871A40EE010AC4ED1D
:1009F000140A94ED140A20EE290AD4ED160A00EE2A
:100A0000AA0AD4ED170A00EECA0AD4ED150A9FED22
:100A10007D1A40EE010AC4ED150A94ED140A20EE89
:100A20000A0AD4ED150A00EEEA0AD4ED170A00EE20
:100A3000A90AD4ED160A9FED731A40EE010AC4ED1F
:100A4000160A94ED140A20EE2A0AD4ED150A00EED7
:100A50008A0AD4ED160A00EEE90AD4ED170A9FEDD2
:100A6000691A40EE010AC4ED170AD4ED140A60EECB
:100A7000A00A94ED151AD4ED151A41EE210A94ED51
:100A8000161AD4ED161A41EE210A94ED171AD4ED78
:100A9000171A41EE210AB0EE600A02F075F8B0EEC6
:100AA000409A94ED140A20EE090A84ED140A94ED9C
:100AB000150A20EE090A84ED150A94ED160A20EEB7
:100AC000090A84ED160A94ED170A20EE090A84ED4E
:100AD000170A1DEE900A03F051FACDE900019DEDD1
:100AE000000B00F0C1FFB0EE40CAF0EE60CA51EC5E
:100AF0001C0B02F031FD9FED440B53EC102BCDE9A4
:100B000002019DED020B51EC100B02F077FFCDE9D5
:100B100004019DED040B51EC100B02F029FD00EED9
:100B2000100A84ED1E0ABDEEC00A10EE100A01B2D2
:100B3000702001531DEE100A03F020FACDE90201E6
:100B40009DED020B00F090FFB0EE40CAF0EE60CADF
:100B50009FED2D0B53EC102B51EC1C0B02F04EFFB4
:100B6000CDE904019DED040B51EC100B02F000FDEA
:100B700000EE100A84ED1D0ABDEEC00A10EE100A48
:100B800001B26E2001531BEE900A03F0F7F941EC1D
:100B90001C0BB0EE4C0AF0EE6C0A00F065FF8DED18
:100BA000020B9FED190B53EC102B9DED020B51EC3A
:100BB000100B02F023FFCDE904019DED040B51EC75
:100BC000100B02F0D5FCE06794ED1F0AF2EE040A68
:100BD00020EE200ABDEEC00A10EE100A01B272200B
:100BE0000153B4F9200041109A200153E18B9C205D
:100BF000015306B0BDEC108B10BD00006800002052
:100C00000AD7A33B6F12033B00000020DCA54C4039
:100C100010B5924CE078A17800EB0120404201B27F
:100C200061846079217900EB012001B2A1846078B0
:100C3000217800EB0120404201B2E184E07AA17A00
:100C400000EB0120404200B2A083607B217B00EBDF
:100C5000012001B2E183607A217A00EB0120404259
:100C600001B22184B4F91C0000EE100AB8EEC00AEB
:100C7000D4ED040A30EE600ADFED790A20EE200A96
:100C800084ED0C0AB4F91E0000EE100AB8EEC00A9A
:100C9000D4ED050A30EE600ADFED710A20EE200A7D
:100CA00084ED0D0AB4F9200000EE100AB8EEC00A77
:100CB000D4ED060A30EE600ADFED690A20EE200A64
:100CC00084ED0E0AB4F9220000EE100AB8EEC00A54
:100CD00084ED0F0AB4F9240000EE100AB8EEC00A41
:100CE00084ED100AB4F9260000EE100AB8EEC00A2E
:100CF00084ED110AA07B00B394ED113AF0EE432A83
:100D000094ED103AB0EE432A94ED0F3AF0EE431A08
:100D100094ED0E3AB0EE431A94ED0D3AF0EE430A1C
:100D200094ED0C3AB0EE430AB7EE004AF7EE003A03
:100D3000B7EE003AFFF786FD8FE0B4F9201049487E
:100D4000B0F900009638814217DDB4F9201045480B
:100D5000B0F90000963081420FDAB4F92000B0F506
:100D6000967F0ADAB4F9200010F5967F05DD3E483B
:100D70000088401C3C4908800EE000203A49088069
:100D80009FED3A0A84ED040A9FED380A84ED050AC6
:100D90009FED360A84ED060A33480088C82828DD0E
:100DA00031480088B0F5167F23DCD4ED040AB4F98D
:100DB0001C0000EE100AB8EEC00A30EE800A84ED86
:100DC000040AD4ED050AB4F91E0000EE100AB8EECC
:100DD000C00A30EE800A84ED050AD4ED060AB4F9A3
:100DE000200000EE100AB8EEC00A30EE800A84ED52
:100DF000060A208C1B4908801B480088B0F5167F26
:100E00002BDD0120A07394ED040ADFED190A80EEBA
:100E1000201A84ED041A94ED050ADFED150A80EE20
:100E2000201A84ED051A94ED060ADFED110A80EE12
:100E3000201A84ED061A94ED040A0E4880ED010A8A
:100E400094ED050A80ED020A94ED060A80ED030A8E
:100E500002F06EFA00200449088010BD68000020EE
:100E6000A8B38B39200000201E00002000000000E5
:100E70000000C8434801002070B50446FFF766FC37
:100E8000D020FFF72FFCFFF7ADFC2046FFF72AFC30
:100E9000FFF7A8FCFFF75AFCD120FFF723FCFFF770
:100EA000A1FC0020FFF7E8FB0546FFF775FC28468C
:100EB00070BD2DE9F04106460F4614461D46FFF76A
:100EC00045FC002141EA4601C8B2FFF70BFCFFF7E1
:100ED00089FC20B1FFF760FC0120BDE8F0813846B5
:100EE000FFF700FCFFF77EFCFFF730FC012101EB70
:100EF0004601C8B2FFF7F6FBFFF774FC0DE0012CCA
:100F000004D10020FFF7B8FB287003E00120FFF7B1
:100F1000B3FB2870601EC4B26D1C002CEFD1FFF72C
:100F20003BFC0020D9E710B50446E006010E1C206A
:100F300000F043F810BD10B50446E006010E1B207A
:100F400000F03BF810BD70B504460025BC2C01DB59
:100F5000012510E0622C01DB02250CE02A2C01DBCC
:100F6000032508E0142C01DB042504E00A2C01DB36
:100F7000052500E0062529461A2000F01EF870BD60
:100F800070B50446B4F57A7F01DD4FF47A74042C11
:100F900000DA04244FF47A7090FBF4F0401EC5B2DE
:100FA0002946192000F009F80546264604EBD671BB
:100FB000C1F34F00FFF7C7FF70BD70B505460C4683
:100FC000FFF7C4FBD020FFF78DFBFFF70BFC18B138
:100FD000FFF7E2FB012070BD2846FFF783FBFFF718
:100FE00001FC2046FFF77EFBFFF7FCFB18B1FFF783
:100FF000D3FB0120EFE7FFF7CFFB0020EBE700BFBB
:10100000FEE7704770B5002100230F22C4781CB39F
:10101000174C246804F4E064C4F5E064C4F30721C9
:10102000C1F10404E3B20A4144789C40E1B28478FF
:10103000144021430C07210E0E4C057861550478AD
:1010400004F01F050124AC4005786D11AD0005F1D9
:10105000E025C5F8004109E0047804F01F050124EB
:10106000AC40054D0678761145F8264070BD00006D
:101070000CED00E000E400E080E100E00249014303
:10108000024A1160704700000000FA050CED00E014
:101090007047000029B1064A12680243044B1A60E7
:1010A00004E0034A12688243014B1A607047000053
:1010B0003038024029B1064A12680243044B1A60D4
:1010C00004E0034A12688243014B1A607047000033
:1010D0004038024029B1064A12680243044B1A60A4
:1010E00004E0034A12688243014B1A607047000013
:1010F00044380240704700000CB500200190009079
:101100003448006840F480303249086000BF3148FC
:10111000006800F4003000900198401C0190009895
:1011200018B90198B0F5A04FF1D12A48006800F431
:10113000003010B10120009001E0002000900098E4
:10114000012846D123484030006840F080502149B2
:10115000403108602048006840F440401E49086063
:101160001C48083000681B490831086008460068C0
:1011700040F4004008600846006840F4A050086051
:101180001648091F0860081F006840F08070091F9A
:10119000086000BF0F48006800F000700028F9D018
:1011A00040F205700E4908600A480830006820F0D7
:1011B00003000849083108600846006840F0020052
:1011C000086000BF03480830006800F00C000828E1
:1011D000F8D10CBD003802400070004008544007B0
:1011E000003C0240042808D14FF0E021096941F099
:1011F00004014FF0E022116107E04FF0E02109699E
:1012000021F004014FF0E0221161704770470000A7
:1012100010B51548006840F4700013490860134881
:10122000006840F001001149086000200F490831B2
:1012300008600E4800680E4908400C4908600D48D7
:10124000091D0860081F006820F48020091F08603D
:10125000002006490C310860FFF74EFF4FF0006098
:1012600001498039086010BD88ED00E00038024077
:10127000FFFFF6FE10300024F0B50C4615460021A5
:101280000022068C4FF6FE773E400684018B028CCE
:101290004FF60C7631407E1C06EA03162E4331438E
:1012A0004FF6F576324044F0010632430183028462
:1012B000F0BDF0B50C461546002100220026078C33
:1012C0004FF6EF7C07EA0C070784018B028C4FF680
:1012D000FF7707EA041640F6FF4739404FF6FF77DD
:1012E00007EA033739434FF6FF7707EA0527394303
:1012F0004FF65F773A4046F010073A430183028485
:10130000F0BDF0B50C461546002100220026078CE2
:101310004FF6FF6C07EA0C070784818B028C4FF6AF
:10132000FF7707EA04264FF60C7739404FF6FF7730
:1013300007EA03172F4339434FF2FF573A4046F469
:1013400080773A4381830284F0BDF0B50C461546A0
:10135000002100220026078C4EF6FF7C07EA0C07CE
:101360000784818B028C4FF6FF7707EA043640F63C
:10137000FF4739404FF6FF7707EA052739434FF615
:10138000FF7707EA0337394345F6FF773A4046F4DB
:1013900080573A4381830284F0BD000010B5384C79
:1013A0000221384800F026F9012864D13648006847
:1013B00060B10221334800F0ADF90021314800F05E
:1013C000C6FA207840F01000207054E02D4800F05C
:1013D0000EF9608000212B4800F09CF9207800F085
:1013E000100000B3207800F0800078B36088B0F57A
:1013F000967F09DD6088B0F5487F05DA60684000B7
:1014000060606068606032E06088B0F5AF6F0BDDEF
:101410006088B0F5E16F07DA60684000606060687E
:1014200040F00100606022E0608840F69801884248
:101430001DDD608840F62821884218DA6078401C5B
:101440006070207800F0F000207010E0FFE7608806
:1014500041F2680188420ADD608841F25C218842DD
:1014600005DA207840F0800020700020607020783D
:1014700020F0100020700221024800F0A9F810BDF1
:1014800020010020000001402002404210B5164C0F
:101490000121164800F0AEF8012820D1207800F094
:1014A0008000E0B1207820F010002070207800F05B
:1014B0000F0018B9207840F040002070207800F02C
:1014C0000F000E2803DA2078401C207007E02078F7
:1014D00020F080002070207800F0F00020700121C2
:1014E000024800F075F810BD200100200000014006
:1014F00010B50121164800F07DF8012822D11548C9
:101500000068401C13490860084600686421B0FB6D
:10151000F1F201FB120020B90F480068401C0E498F
:1015200008600C4800684FF4C871B0FBF1F201FB91
:10153000120028B90948007880F0010007490870B6
:1015400001F044F90121024800F042F810BD00000A
:101550000008004014000020180000201D0000209A
:1015600010B5124C0221124800F044F8012817D19E
:101570001048006850B102210D4800F0CBF800215E
:101580000B4800F0E4F90120A07009E0A07838B120
:10159000074800F02CF8E060012060700020A07087
:1015A0000221034800F014F810BD000008010020DB
:1015B000000C00400002404221B1028842F080024B
:1015C000028004E002884FF67F731A400280704761
:1015D000CA430282704721B1028842F001020280B0
:1015E00004E002884FF6FE731A40028070470146FD
:1015F000486B704730B50246002000230024158A4E
:1016000005EA0103958905EA010413B10CB1012033
:1016100000E0002030BD70B505460C46208850B96A
:101620002389A28861882846FFF726FEE18828469C
:1016300000F08FF925E0208804280AD12389A288A8
:1016400061882846FFF735FEE188284600F08AF9D0
:1016500017E0208808280AD12389A28861882846B3
:10166000FFF74FFEE188284600F089F909E0238959
:10167000A28861882846FFF768FEE188284600F0C6
:1016800087F970BD1AB183890B43838102E0838996
:101690008B4383817047000070B500240022002333
:1016A000058C4FF6FE7635400584028C8388048BCA
:1016B0004FF68F752C40B51E2C400D882C43751E9F
:1016C0002A408D892A434D882A43104DA84202D0D2
:1016D0000F4DA84213D14FF6F7752A40CD892A4302
:1016E0004FF6FB752A408D882A434FF6FF652B4045
:1016F0004FF6FF552B400D8A2B434D8A2B43838099
:1017000004838D684563028470BD000000000140C1
:10171000000401400A460021018C4FF6FD73194078
:101720001143018470470A460021018B4FF6F7737D
:10173000194011430183704770B500240022002333
:10174000058C4FF6EF7635400584028C8388048B38
:1017500048F6FF752C404FF6FF452C400D884FF69C
:10176000FF7606EA05252C434FF6DF752A408D8962
:1017700006EA05152A434D8806EA05152A43154D44
:10178000A84202D0144DA8421DD14FF67F752A40C1
:10179000CD894FF6FF7606EA05152A434FF6BF7549
:1017A0002A408D8806EA05152A434FF6FF352B405F
:1017B0004FF2FF752B400D8A06EA85052B434D8AB3
:1017C00006EA85052B43838004838D688563028444
:1017D00070BD000000000140000401400A460021E5
:1017E000018B4FF2FF7319404FF6FF7303EA022398
:1017F000194301837047000070B5002400220023C4
:10180000058C4FF6FF6635400584028C8388848BF7
:101810004FF68F752C404FF6FC752C400D882C43ED
:101820004FF6FF552A408D894FF6FF7606EA0525CB
:101830002A434D8806EA05252A43154DA84202D0C1
:10184000144DA8421DD14FF2FF752A40CD894FF6A5
:10185000FF7606EA05252A434FF6FF352A408D8894
:1018600006EA05252A434EF6FF752B404DF6FF7517
:101870002B400D8A06EA05152B434D8A06EA05150D
:101880002B43838084838D68C563028470BD000010
:1018900000000140000401400A460021818B4FF600
:1018A000F7731940114381837047000070B500221F
:1018B00000230024058C4EF6FF7635400584038C0A
:1018C0008488828B48F6FF752A404FF6FF452A40F0
:1018D0000D884FF6FF7606EA05252A434DF6FF757B
:1018E0002B408D8906EA05352B434D8806EA0535E0
:1018F0002B430A4DA84202D0094DA84208D14BF60D
:10190000FF752C400D8A4FF6FF7606EA85152C43AD
:10191000848082838D680564038470BD000001406B
:10192000000401400A460021818B4FF2FF731940E9
:101930004FF6FF7303EA0223194381837047416323
:10194000704781637047C1637047016470474162AB
:101950007047028B4FF6F3731A400283028B0A43DF
:1019600002837047028B4FF2FF331A400283028BCF
:101970004FF6FF7303EA01231A4302837047828BF9
:101980004FF6F3731A408283828B0A438283704737
:10199000828B4FF2FF331A408283828B4FF6FF73A4
:1019A00003EA01231A438283704700000022028861
:1019B000184B98420ED0184B98420BD0B0F1804F84
:1019C00008D0164B984205D0154B984202D0154BC3
:1019D000984204D14FF68F731A404B881A43124B2A
:1019E000984207D0114B984204D04FF6FF431A405B
:1019F0000B891A4302804B68C3620B880385054B31
:101A0000984202D0044B984201D18B7A038601237D
:101A10008382704700000140000401400004004040
:101A200000080040000C004000100040001400407E
:101A300000BFFEE703B401984100009850EAC120BE
:101A400018BF04204A0D18BF40F0010040F2FF7299
:101A5000B2EB515F08BF40F00200012808BF05202B
:101A600002B070470000000070B5C1482DED020BB8
:101A70002DED0E8B82B0119D25F000449FEDBEDB55
:101A80009FEDBFEB84423EDBA4F140511098A1F1E1
:101A90007F6108430FD0BC48844202DC28D11098F3
:101AA00030B39DED100B02B0BDEC0E8B02B0BDE863
:101AB000704000F005BA9DED100B53EC1D2B51EC5E
:101AC000100B01F09BFF9DED100B41EC180B53EC3C
:101AD0001E2B51EC100B01F091FF53EC182B01F071
:101AE00079FD41EC100B02B0BDEC0E8B02B070BD65
:101AF0000120FEF7C1FB02B0BDEC0E8B02B0BDE8C9
:101B0000704000F0E9B9A1489FEDA18B844256DAFC
:101B10009DED100BB4F1795F0ADA51EC100BFFF771
:101B200089FF042808BF00F0E7F99DED100BDAE704
:101B300053EC102B51EC100B01F060FF41EC190B32
:101B400095480621B0EE490AF0EE690A784400F0A3
:101B50003BF953EC192B51EC100B01F04FFF41EC0A
:101B60001A0B8E48B0EE490AF0EE690A0421784457
:101B700000F02AF953EC192B51EC100B01F03EFF49
:101B800053EC182B01F026FD41EC100B51EC1A0B15
:101B900053EC102B01F0C6FDCDE900019DED000BCB
:101BA00053EC102B9DED100B51EC100B01F026FFA8
:101BB0009DED101B53EC112B01F00CFDD2E09DEDBF
:101BC000100B51EC100B00F093FD53EC182B02F0AE
:101BD00013F89FED730BCDE9000153EC102B9DED35
:101BE000000B51EC100B01F009FF41EC190B6E4892
:101BF0000621B0EE490AF0EE690A784400F0E4F8F4
:101C000053EC192B51EC100B01F0F8FE41EC1B0BBF
:101C10006648B0EE490AF0EE690A0421784400F003
:101C2000D3F853EC192B51EC100B01F0E7FE53ECF9
:101C3000182B01F0CFFC41EC1C0B51EC190B01F0FF
:101C4000B3FA41EC180B5A489FED5BABA04222DC83
:101C500053EC1C2B51EC1B0B01F064FDCDE9000192
:101C60009DED000B51EC180B53EC102B01F0C6FE50
:101C700053EC182B01F0AEFC53EC1A2B01F0BEFE16
:101C800053EC1D2B02F090F853EC1E2B01F0B4FF27
:101C900041EC100B5FE08DED008B002000909DED7E
:101CA000000B51EC180B53EC102B01F093FC9DED45
:101CB000000B41EC1E0B53EC102B51EC100B01F000
:101CC0009DFE53EC192B01F097FF53EC1E2B01F0F6
:101CD00029FD41EC190B53EC1C2B51EC1B0B01F0B3
:101CE00021FD41EC1B0B53EC1A2B51EC190B01F0AD
:101CF00085FE53EC1D2B01F07FFF41EC190B53ECDB
:101D00001A2B51EC180B01F079FE53EC1B2B01F050
:101D100075FE53EC192B02F047F89DED000B41ECDA
:101D2000180B53EC1A2B51EC100B01F067FE9FEDD2
:101D3000249B53EC192B01F05FFF41EC100B51EC8D
:101D4000180B53EC102B02F02FF853EC192B01F069
:101D500053FF41EC100B002D3FF7C5AE51EC100BBB
:101D600001F0FAFB41EC100BBDE6000000000000A2
:101D70000000F03F00000000075C143326A6913CF1
:101D8000182D4454FB21F93F0000F07F0000E03F94
:101D9000000000000000F03F28250000362500006C
:101DA000000000000000E03F7A24000088240000CA
:101DB0003333EF3F0000000000000000000000404F
:101DC000182D4454FB21E93F70B504462DED028BDC
:101DD0004D1E00EBC500B0EE408AF0EE608A90ED3B
:101DE000000B35F0060017D053EC182B51EC100BFC
:101DF00001F004FE41EC100B6D1E04EBC50090EDEC
:101E0000001B51EC100B53EC112B01F0E3FB41ECE8
:101E1000100B35F00600E7D1022D36D0042D1CD072
:101E2000062D1CBFBDEC028B70BD53EC182B51EC82
:101E3000100B01F0E3FD94ED0A1B53EC112B01F0A4
:101E4000C9FB53EC182B01F0D9FD94ED081B53ECA2
:101E5000112B01F0BFFB41EC100B53EC182B51EC94
:101E6000100B01F0CBFD94ED061B53EC112B01F090
:101E7000B1FB53EC182B01F0C1FD94ED040B53ECB6
:101E8000102B01F0A7FB41EC100B53EC182B51EC7D
:101E9000100B01F0B3FD94ED021B53EC112B01F07C
:101EA00099FB53EC182B01F0A9FD94ED001B53ECAA
:101EB000112B01F08FFBBDEC028B41EC100B70BDC0
:101EC00010B553EC102B51EC100B01F083FB41ECDF
:101ED000100B10BD000000009FED050B10B553EC7A
:101EE000102B51EC100B01F01DFC41EC100B10BD40
:101EF00000000000000000009FED050B10B553EC42
:101F0000102B51EC100B01F079FD41EC100B10BDC2
:101F100000000000000000107047000010B50848E5
:101F20004078022803D10221032000F01DFC044860
:101F30004078012803D10121032000F015FC10BDD9
:101F40009001002000B587B001211020FFF7A2F812
:101F500001210220FFF79EF801212020FFF79AF8C7
:101F60004CF2A000059001208DF8180000208DF89B
:101F70001A0001208DF81B0003208DF8190005A917
:101F80001B48FEF792FA4CF2A0011948FEF7F8FA46
:101F90007020039001208DF8100000208DF81200B1
:101FA00001208DF8130003208DF8110003A91148BA
:101FB000FEF77BFA70210F48FEF7E2FA4FF4284053
:101FC000019001208DF8080000208DF80A00012002
:101FD0008DF80B0003208DF8090001A90648FEF7D3
:101FE00064FA4FF428410448FEF7CAFA07B000BD6E
:101FF00000040240001002400014024010B500F03E
:102000008DFD00F051FF01203149087031484860D2
:102010004FF400613048FEF7B3FA10212F48FEF765
:10202000AFFA00BF4FF480412D48FEF7A9FA4FF4F4
:1020300000412B48FEF7A4FA00BF00BF4FF4005147
:102040002548FEF79DFA4FF400412348FEF798FA21
:1020500000BF00BF80212248FEF792FA20212048CD
:10206000FEF78EFA00BF00BF20211C48FEF788FA59
:1020700040211A48FEF784FA00BF002001F030F832
:10208000002001F01FF8002001F050F8002001F0BE
:102090003FF804200E49087200210D488172C1608A
:1020A000042180F828109FED0F0A80ED420A4FF4BA
:1020B000AF61A0F80C11002180F8111180F81C11FB
:1020C000052180F80411B7EE000A80ED250A10BD45
:1020D000240000205801002000140240001002409B
:1020E000000402400000B44210B500F045FC10BDF1
:1020F00010B54FF400612248FEF744FA1021214840
:10210000FEF740FA00BF4FF400411F48FEF73AFACD
:102110004FF480411C48FEF733FA00BF00BF4FF474
:1021200000411748FEF72EFA4FF400511448FEF70D
:1021300027FA00BF00BF20211348FEF723FA8021B1
:102140001148FEF71DFA00BF00BF20210D48FEF721
:1021500019FA40210B48FEF713FA00BF4FF49660BE
:1021600000F0BEFF4FF4966000F0ACFF4FF49660B5
:1021700000F0DCFF4FF4966000F0CAFF10BD0000D5
:1021800000140240001002400004024010B54FF459
:1021900000612248FEF7F6F910212148FEF7F2F916
:1021A00000BF4FF480411F48FEF7ECF94FF40041A7
:1021B0001C48FEF7E5F900BF00BF4FF40051174877
:1021C000FEF7E0F94FF400411448FEF7D9F900BFDB
:1021D00000BF80211348FEF7D5F920211148FEF7F2
:1021E000CFF900BF00BF40210D48FEF7CBF92021F9
:1021F0000B48FEF7C5F900BF4FF4966000F070FF82
:102200004FF4966000F05EFF4FF4966000F08EFF92
:102210004FF4966000F07CFF10BD000000140240F7
:10222000001002400004024010B5002000F058FFEA
:10223000002000F047FF002000F078FF002000F0B1
:1022400067FF10BD10B54FF400612048FEF798F904
:1022500010211F48FEF794F900BF4FF480411D483C
:10226000FEF78EF94FF400411A48FEF789F900BFD6
:1022700000BF4FF400511548FEF782F94FF40041BA
:102280001248FEF77DF900BF00BF80211148FEF71C
:1022900077F920210F48FEF773F900BF00BF202116
:1022A0000B48FEF76DF940210948FEF769F900BFB8
:1022B000002000F015FF002000F004FF002000F0D7
:1022C00035FF002000F024FF10BD00000014024084
:1022D000001002400004024010B54FF40061214894
:1022E000FEF750F910212048FEF74AF900BF4FF4DD
:1022F00080411E48FEF746F94FF400411B48FEF7A7
:102300003FF900BF00BF4FF400511648FEF73AF9FD
:102310004FF400411348FEF733F900BF00BF2021FE
:102320001248FEF72FF980211048FEF729F900BF67
:1023300000BF20210C48FEF725F940210A48FEF78E
:102340001FF900BF40F26C7000F0CAFE40F26C70E2
:1023500000F0B8FE002000F0E9FE002000F0D8FEFA
:1023600010BD0000001402400010024000040240B2
:1023700010B54FF400612148FEF702F91021204802
:10238000FEF700F900BF4FF400411E48FEF7FAF8CF
:102390004FF480411B48FEF7F3F800BF00BF4FF435
:1023A00000411648FEF7EEF84FF400511348FEF7CF
:1023B000E7F800BF00BF80211248FEF7E3F82021B4
:1023C0001048FEF7DDF800BF00BF40210C48FEF7C3
:1023D000D9F820210A48FEF7D3F800BF002000F00A
:1023E0007FFE002000F06EFE40F26C7000F09EFE5A
:1023F00040F26C7000F08CFE10BD00000014024032
:10240000001002400004024070B5074C04F12005A2
:10241000227804F10C0151F8220080472A78291D06
:1024200051F82200804770BD2C000020134800F1B5
:102430002001827822B1012A12D0062A1BD119E08C
:102440000A78042A09D005220A700D4A126802F59A
:102450007A7242600122827001E0012282700BE0F8
:10246000074B42681B689A4203D200220A70062278
:10247000827001E000E000BF00BF70472C00002028
:1024800018000020134800F12001827822B1022AAE
:1024900012D0062A1BD119E00A78042A09D0052295
:1024A0000A700D4A126802F57A7242600222827046
:1024B00001E0022282700BE0074B42681B689A42DF
:1024C00003D201220A700622827001E000E000BF00
:1024D00000BF70472C00002018000020134800F1B6
:1024E0002001827822B1052A12D0062A1BD119E0D8
:1024F0000A78042A09D005220A700D4A126802F5EA
:102500007A7242600522827001E0052282700BE03F
:10251000074B42681B689A4203D204220A700622C3
:10252000827001E000E000BF00BF70472C00002077
:1025300018000020134800F12001827822B1032AFC
:1025400012D0062A1BD119E00A78042A09D00522E4
:102550000A700D4A126802F57A7242600322827094
:1025600001E0032282700BE0074B42681B689A422D
:1025700003D202220A700622827001E000E000BF4E
:1025800000BF70472C00002018000020134800F105
:102590002001827822B1042A12D0062A1BD119E028
:1025A0000A78042A09D005220A700D4A126802F539
:1025B0007A7242600422827001E0042282700BE091
:1025C000074B42681B689A4203D203220A70062214
:1025D000827001E000E000BF00BF70472C000020C7
:1025E0001800002010B504466FF00400FEF7FAFD55
:1025F000E11704EB5171C1F3C701074A117010468E
:10260000007800EB4001C1EBC0104FF6FF7101EA0A
:10261000C0000249088010BD1000002012000020F8
:1026200070B504464FF4077094FBF0F0C6B24FF457
:10263000077094FBF0F100FB114085B205E04FF408
:10264000077000F02FF8701EC6B2002EF7D115B13A
:10265000284600F027F870BD0146114A12784A4317
:102660004FF0E0235A6100229A611A46126942F043
:1026700001021A6100BF4FF0E022106900F0010270
:102680001AB100F48032002AF5D04FF0E02212692E
:1026900022F001024FF0E0231A6100229A61704794
:1026A000100000200146114A12884A434FF0E023EF
:1026B0005A6100229A611A46126942F001021A61B7
:1026C00000BF4FF0E022106900F001021AB100F4DF
:1026D0008032002AF5D04FF0E022126922F0010288
:1026E0004FF0E0231A6100229A6170471200002027
:1026F00082B0CDE9000121F0004001909DED000B7A
:1027000002B051EC100B704710B50A480078012850
:1027100004D0022805D0032809D105E000F010FA02
:1027200006E000F027FB03E0FFF7F6FB00E000BF48
:1027300000BF10BD2400002010B50A480078012811
:1027400004D0022805D0032809D105E000F0FAF9E9
:1027500006E000F08FFB03E0FFF7E0FB00E000BFC6
:1027600000BF10BD2400002070B505460C4615487A
:102770004068406920B11348406841692046884755
:1027800010480470204600F04FF80E494860084693
:102790004068C5700C4800684968C8600020094955
:1027A00049688871074949688870064949684870CE
:1027B00004484068806920B1024840688169284621
:1027C000884770BD240000201800002010B5124C6E
:1027D0002078F8B1E07870B110480068C01C6060E3
:1027E00001210F48FDF7CEFE00210E48FEF792FFB3
:1027F0000020E0700EE0094960680968884209D845
:1028000001210748FDF7BCFE002020706070A07019
:102810000120E07010BD000008010020140000201D
:1028200000140240000C00400146024850F821000C
:1028300070470000AC010020014890ED420A70474B
:102840002400002000B589B001210846FEF722FCD3
:1028500001210846FEF73EFC4FF4807007900220ED
:102860008DF8200000208DF8220003208DF8210033
:1028700001208DF8230007A92948FDF716FE012243
:1028800008212748FDF759FEA720ADF80C000020CD
:10289000ADF80E0042F2107004900020ADF8140064
:1028A00003A92048FFF782F80020ADF80000ADF83A
:1028B00002000120ADF804000020ADF8060003205E
:1028C000ADF8080069461748FEF7A5FE012203216E
:1028D0001448FEF7D7FE01211248FEF77CFE1B20AC
:1028E0008DF8180001208DF8190003208DF81A00CA
:1028F00001208DF81B0006A8FEF784FB19208DF837
:10290000180001208DF8190002208DF81A0001200E
:102910008DF81B0006A8FEF775FB09B000BD00008E
:10292000000002400000014010B5002011490C7861
:1029300004F04004ECB14C68220E4C68C4F3074329
:10294000DC43E4B2944209D142B98C88C4F3072233
:102950000B79DC43E4B2944200D1104618B10C78F4
:1029600004F080042CB90C7824F040040C7000248E
:102970004C7010BD2001002030B5FFF7D5FF054693
:102980004B4C982D24D00CDC622D3DD004DC022D64
:1029900066D0222D6FD14DE0682D0BD0902DF9D14E
:1029A00075E0A82D3BD0B02D20D0C22D4DD0E02D0C
:1029B00078D161E001203E49FC39496848703D48C2
:1029C000006808B9012000E000203A4908606CE086
:1029D00002203749FC39496848703648006808B910
:1029E000012000E00020334908605EE00320304908
:1029F000FC39496848702F48006808B9012000E098
:102A000000202C49086050E001202072294800680D
:102A100008B9012000E000202649086045E00220B6
:102A200020722448006808B9012000E000202149F4
:102A300008603AE0032020721E48006808B90120AF
:102A400000E000201B4908602FE004202072194894
:102A5000006808B9012000E000201649086024E061
:102A6000052020721348006808B9012000E000200A
:102A70001049086019E015E0062020720D48006832
:102A800008B9012000E000200A4908600DE0072095
:102A900020720848006808B9012000E000200549BC
:102AA000086002E00020207200BF00BF30BD0000BF
:102AB00020010020A48242420C4901F120000C4A6E
:102AC000CA600C4B0B610C4B4B610C4B8B610C4B7C
:102AD000CB610C4A42600C4B83600C4BC3600C4BC7
:102AE00003610C4B83610C4B436170472C00002049
:102AF0002D24000885240008352500088D250008B0
:102B0000DD240008F12000088D210008D9220008EA
:102B100071230008292200084522000800200449EA
:102B2000086004484860044888600448C8607047EA
:102B3000AC01002058010020740100209001002009
:102B40007047000010B508484078022803D10221E0
:102B50000120FFF709FE04484078032803D1032130
:102B60000120FFF701FE10BD58010020034800F1CD
:102B70000C01034A8260034A4A6070473401002016
:102B80005532000819320008B6EE001A20EE011A7C
:102B9000F0EE410A10EE100A0749A1EB600000EECA
:102BA000100A60EE801AB7EE081A01EEC01A21EE84
:102BB000001AB0EE410A7047865A375F1CB50121F2
:102BC0002020FEF767FA4FF4C060009001208DF8D6
:102BD000040000208DF8060001208DF80700032076
:102BE0008DF8050069460448FDF75FFC4FF4C061AD
:102BF0000148FDF7C5FC1CBD001402401A48002125
:102C000007E01A4B53F82120194B43F821204A1CA6
:102C1000D1B20429F5DB164A5268521C82B1144A1B
:102C20009268521C62B1124AD268521C42B1104AD8
:102C300052682AB10E4A926812B10D4AD26812B98E
:102C4000002282730EE00A4A92ED010A80ED040A26
:102C500092ED020A80ED050A92ED030A80ED060A64
:102C600001228273704700006800002000000E08F7
:102C70004801002010B54FF4A060FEF7FFF9A8202E
:102C8000FFF7B0FC4FF4FA60FFF7CAFCFFF796FFBE
:102C9000FFF758F9142140F2CF7000F00BF914211E
:102CA00040F2CF7000F062F9002140F2473000F0AE
:102CB0006DFBFFF7C7FD00F0B5F9FFF79FFF00F0D0
:102CC000E3FB00F093FB00F0E5FA4FF4AF614FF047
:102CD0008040FEF736FE4FF4FA60FFF7A1FCFFF7E5
:102CE0008DF935E01C4800781C49097888422FD0BE
:102CF0001B4800681B4908601B48006818490860A9
:102D00000846006817490968401AB0F5C87F05D021
:102D100016480068B0F57A7F00D91AE013480068B9
:102D2000401C124908600D4800780B490870FFF7F5
:102D3000DBF900F009FCFFF7FFFCFFF7E5FC00F012
:102D4000ADF80948006806490968401A0849086052
:102D5000C8E700BF002010BD1C0000201D0000209F
:102D600004000020000000201400002008000020C3
:102D70000C00002010B52DED028B3C4C207A082869
:102D80006BD2DFE800F06A04101C283440550020A4
:102D900000F0B4F93648006808B9012000E00020CE
:102DA000334908605DE0012000F0A8F93048006870
:102DB00008B9012000E000202D49086051E0022000
:102DC00000F09CF92A48006808B9012000E00020C2
:102DD0002749086045E0032000F090F92448006886
:102DE00008B9012000E000202149086039E00420F2
:102DF00000F084F91E48006808B9012000E00020B6
:102E00001B4908602DE0FFF717FDB0EE408AF2EE97
:102E1000040A78EE200AB0EE600A00F095F9144832
:102E2000006808B9012000E000201149086018E09E
:102E3000FFF702FDB0EE408AF2EE040A78EE600A77
:102E4000B0EE600A00F080F90948006808B9012076
:102E500000E000200649086003E0042000F04EF97D
:102E600000BF00BFBDEC028B10BD000020010020A0
:102E7000A882424210B508484078012803D10121B8
:102E80000220FFF771FC04484078032803D1032196
:102E90000220FFF769FC10BD7401002010B5FFF798
:102EA000B3FA00F0C5F910BD10B5FFF705FEFFF746
:102EB0005DFE10BD30B58BB004460D4601210220E9
:102EC000FEF7E8F801210220FEF7F4F8032009904C
:102ED00002208DF8280000208DF82A0001208DF8AE
:102EE0002B0003208DF8290009A91E48FDF7DDFA03
:102EF000022200211B48FDF720FB02220121194874
:102F0000FDF71BFB0020ADF82000ADF81A00A8B2B9
:102F1000ADF81800079406A91348FEF747FD602096
:102F2000ADF804000020ADF810000120ADF8060057
:102F300001A90D48FEF760FC01A90B48FEF7B6FC9D
:102F400008210948FEF7A8FC08210748FEF7EAFC1B
:102F500001210548FEF730FB01210348FEF73BFB4A
:102F60000BB030BD000402400004004030B58BB00F
:102F700004460D4601210846FEF78CF80121022087
:102F8000FEF798F8C020099002208DF82800002054
:102F90008DF82A0001208DF82B0003208DF82900E0
:102FA00009A91E48FDF781FA022206211B48FDF7F8
:102FB000C4FA022207211948FDF7BFFA0020ADF834
:102FC0002000ADF81A00A8B2ADF81800079406A9C1
:102FD0001348FEF7EBFC6020ADF804000020ADF8CC
:102FE00010000120ADF8060001A90D48FEF754FBC2
:102FF00001A90B48FEF7A0FB08210948FEF793FB47
:1030000008210748FEF7EAFB01210548FEF7D4FA3C
:1030100001210348FEF7DFFA0BB030BD000002408B
:103020000004004010B5FDF7D9FA80216B20FDF7B0
:10303000C4FF6420FFF7F4FA00216B20FDF7BDFF09
:103040000120FDF778FF0020FDF76DFF3220FDF72E
:1030500097FF00213820FDF7B0FF00216A20FDF71F
:10306000ACFF00212320FDF7A8FF80213720FDF7CA
:10307000A4FF7520FDF700FF0446682C0BD1012149
:103080006B20FDF79AFF00216C20FDF796FF3220A0
:10309000FDF776FF01E0012010BD0020FCE710B530
:1030A00000F002F810BD000010B5054C23460E22BA
:1030B0003B216820FDF7FDFEFDF7AAFD10BD0000D5
:1030C0006800002010B50446B4F5FA6F01D340F251
:1030D000CF7421460148FEF738FC10BD00040040C3
:1030E00010B50446B4F5FA6F01D340F2CF7421460F
:1030F0000148FEF728FC10BD0004004003490A788F
:10310000824202D0087000228A7070472C00002092
:1031100010B50446B4F5FA6F01D340F2CF742146DE
:103120000148FEF70EFC10BD0004004010B5044637
:10313000B4F5FA6F01D340F2CF7421460148FEF78F
:10314000FEFB10BD000400401348DFED140AB4EE8E
:10315000E00AF1EE10FA03DDDFED100AB0EE600ACE
:10316000B5EEC00AF1EE10FA03D2DFED0D0AB0EEB3
:10317000600A017A02290ED180ED000ADFED090A0A
:10318000B2EE041A40EE010AFDEEE00A10EE901ACB
:1031900081800021017270472C010020000034431F
:1031A000000000000000FA4300B52DED048B83B051
:1031B00041EC190B00F02CFD41EC180B18EE100A35
:1031C00018EE901A8DED008B002818BF01200843DF
:1031D00020F00040C0F17F6000F1E040C00F14D04B
:1031E00019EE101A19EE900A8DED009B002918BFF8
:1031F0000121084320F00040C0F17F6000F1E04071
:10320000C00F04BF0120FDF737F851EC180B03B0D5
:10321000BDEC048B00BD000010B50448B0F80C11E3
:103220004FF08040FEF78DFB10BD00002400002011
:1032300070B5074C04F10C05627804F1080151F8EF
:10324000220080472A78291D51F82200804770BD4E
:10325000340100200D48017821B101290AD002294A
:1032600011D10FE00A49096801F57A714160012125
:10327000017009E0064A41681268914201D20221B8
:10328000017001E000E000BF00BF70473401002082
:103290001800002000B58BB001210220FDF7FAFED6
:1032A00001210846FDF706FF0820099002208DF84D
:1032B000280000208DF82A0001208DF82B00032023
:1032C0008DF8290009A91948FDF7EFF8012203211B
:1032D0001648FDF732F90020ADF82000ADF81A00CD
:1032E0005320ADF8180041F28730079006A94FF03F
:1032F0008040FEF75BFB6020ADF804000020ADF8D5
:1033000010000120ADF8060001A98007FEF714FAAD
:103310000821C806FEF762FA01218807FEF74CF97A
:1033200001218807FEF757F90BB000BD00040240E9
:1033300070B50925FDF796F80020FCF7E1FF0221A2
:103340005820FCF7EFFF0546092D00D070BD092D70
:1033500011D100240CE00B4A52F824100A4A02EB67
:103360008400FDF757F8092800D003E0601CC4B2C0
:10337000042CF0DB00BF0120FCF7C2FFFDF740F892
:1033800000BFE3E74801002000000E087FB50546B6
:103390000C4601210420FDF78DFE0295A0B2ADF888
:1033A00004000020ADF80600ADF80C0001A90E489D
:1033B000FEF7FCFA012211460B48FEF763F90121E2
:1033C0000948FEF708F91E208DF8000001208DF84D
:1033D000010003208DF8020001208DF803006846EB
:1033E000FDF710FE7FBD0000000800401CB5012164
:1033F0002020FDF74FFE012000908DF804000020F2
:103400008DF8060001208DF8070003208DF80500D7
:1034100069460448FDF749F801210248FDF7B0F874
:103420001CBD00000014024010B52DED048B124CA1
:103430001249A0680968081A642805D30120207081
:10344000E0700E480068A060607888B1002060706D
:10345000E06800F0BFFA41EC190B9FED090B53EC4B
:10346000102B00F0CBFA41EC180B00F081F86061F2
:10347000BDEC048B10BD00000801002018000020E6
:103480009CC420B07268913F00B589B00121084604
:10349000FDF700FE01210820FDF70CFE012007903A
:1034A00002208DF8200000208DF8220003208DF8E6
:1034B000210002208DF8230007A92148FCF7F5FF21
:1034C000022200211E48FDF738F85320ADF80C0009
:1034D0000020ADF80E004EF6602004900020ADF8FC
:1034E000140003A91748FEF761FA0020ADF80000A8
:1034F000ADF802000120ADF804000020ADF8060090
:10350000ADF8080069460F48FEF785F80122022150
:103510000C48FEF7B7F801210A48FEF75CF83220A4
:103520008DF8180000208DF819008DF81A00012080
:103530008DF81B0006A8FDF765FD09B000BD000071
:1035400000000240000C004010B5FFF76DFFFFF7D0
:10355000A6FDFFF7A4FD10BD81F00041704780F08B
:103560000040704721F00041704720F00040704754
:1035700021F00042A2F16052B2F5801F01F0004339
:1035800028BFD2F17F6C0BD95FEA001C43EAC2026C
:1035900042EB507018BF704728BF20F00100704701
:1035A000B2F5801FBCBF184670474FEA410C1CF5AE
:1035B000001F02D2084600F057BD70B500F0C8FAEF
:1035C00000000089FFF7F6BF4FF00040A0F5800033
:1035D0007047000010B591EA030F48BF83F0004325
:1035E00000F1EA83841A71EB030C05D2121943EB44
:1035F0000C03001B61EB0C01DFF824E14FEA1154CE
:10360000A4EB135C1EEA430F18BF9EEA445F73D01D
:1036100023EA0E03DCF1200E21EA045143F4801367
:1036200032D322FA0CFE10EB0E0023FA0CFE41EB13
:103630000E01CCF1200E03FA0EFE10EB0E0051F13C
:103640000001B1F5801FCCF1200E32D201EB045104
:1036500012FA0EF2BDE8104058BF7047401C38BF48
:103660005FEA420218BF7047002814BF20F0010033
:1036700041F100014FEA410313F5001F38BF7047C5
:10368000A1F1C04100F0B2BA012A43EB0302ACF150
:10369000200CDCF11F0E32BF4FF0000E23FA0CF3AA
:1036A00010EB030041EB0451B4EB115FD0D0A1EB60
:1036B000045101F5801149085FEA300001EB045123
:1036C0000ED350F1000038BF12FA0EFE08D1BDE84B
:1036D0001040C9E7401C38BF5FEA4202CAD1C3E7C5
:1036E000BDE810404FEA410313F5001F38BF704793
:1036F000A1F1C04100F07ABA9EEA445F08D011EA15
:103700005E0FBDE8104004BF01F00041002070478B
:10371000BDE8104070B500F01BFA00BF64FBBE3E70
:103720000000E0FF2DE9C04130B4DFF8A0C23CEA60
:10373000111418BF3CEA131400F0EC8081EA030571
:103740001CEA111444EAD57418BF1CEA131500F0E2
:10375000C780A4EB05044FF0004545EAC12145EAC6
:10376000C32341EA505143EA525304F17F74994212
:1037700004F500344FEAC0204FEAC22208BF90424D
:1037800000F09C804FEA13650FF24016765D4FEA19
:10379000134506FB05F7C7F1807706FB07F74FEAED
:1037A000D737A7FB03687642C8F58038A7FB06CE5B
:1037B00038BFA8F1010807FB08E64FF0000EA6FB92
:1037C000028CE6FB03CEDCF1000CCEF1004E38BFDC
:1037D000AEF1010EA6FB0C584FF000074FF00005AC
:1037E000E6FB0E87A1FB08C6A0FB07CE16EB0E0674
:1037F00045F10005E1FB076515F1E04E7EBFA4F53C
:1038000080345FEA46066D4116F1800745F10005F8
:103810004FEA17274FEA066647EA0567A6F1DE4634
:10382000B6F1805F4FEA15251FD9384624F0010C08
:1038300005EBC471BCF1FE6F01EB0C1102D8F0BCBA
:10384000BDE8008124425CBF01F5801E9EEAC47F72
:1038500002D4F0BCBDE80081244238D4F0BCA1F110
:10386000C041BDE8004100F0C1B94FEAD22242EAAE
:1038700043524FEAD323A7FB02864FEAD02040EA07
:10388000415007FB03661EEA0E0F4FEAD12105FBEC
:10389000026658BFA6EB0056B6EB00564FEA520E32
:1038A0004EEAC37E18EB0E0E56EB530EBDD518EB49
:1038B00002085E417F1C55F10005B6E74FF4801504
:1038C0004FF000074FF000064FF00008ADE7F0BCE6
:1038D0004FF0000001F1C04101F00041BDE800815E
:1038E00011EA0C1F0CEA131500D00CE013EA0C1FB0
:1038F00000F025804FF00000F0BC81EA030101F0E8
:103900000041BDE80081F0BCBDE8004181EA03014F
:1039100000F06CB9F0BCBDE8004170B500F018F9DA
:10392000097EFC3E00F007B881EA03014FF0000079
:1039300001F00041704781EA030100F057B9F0BC83
:10394000BDE800414FF0000021497047FFFDFBF941
:10395000F7F5F4F2F0EEEDEBE9E8E6E4E3E1E0DEC2
:10396000DDDBDAD8D7D5D4D3D1D0CFCDCCCBCAC834
:10397000C7C6C5C4C2C1C0BFBEBDBCBBBAB9B8B75B
:10398000B6B5B4B3B2B1B0AFAEADACABAAA9A8A84E
:10399000A7A6A5A4A3A3A2A1A09F9F9E9D9C9C9B1C
:1039A0009A999998979796959594939392919190C7
:1039B0008F8F8E8E8D8C8C8B8B8A89898888878758
:1039C0008685858484838382828181800000FF07CD
:1039D0000000F87FB0FA80F310FA03F10AD0C3F1C7
:1039E0001D0303F580634FEA41504FEA035202EB97
:1039F000D12170474FF0000070470000DFF848C148
:103A000070B51CEA111E1EBF1CEA13159EEA0C0FAE
:103A100095EA0C0F00F06F8081EA030423EA4C134F
:103A20004EEAD47E21EA4C1141F4801143F4801314
:103A3000AE44A1FB024CA0FB0365AEF17F7E3619BC
:103A400055EB0C05A1FB034C4CF10003A0FB021C41
:103A500016EB0C06654153F10003094218BF46F00E
:103A6000010613F4007F0BD14FEA03314FEA053012
:103A7000340341EA155140EA16506FF003020AE0A0
:103A80004FEAC3214FEAC520F40241EA555140EA0A
:103A900056506FF0020202EB2E4201EB025585EA0E
:103AA000CE710AD05FEA440C18BF24F0004450F1F4
:103AB000000041F1000120EAD47040F2FE7C624532
:103AC00000D270BDA84214BF4FF080444FF0404474
:103AD000002E08BF0024BEF1806FA8BFA1F1C04135
:103AE000BDE8704080F282804FF0000001F1C041DB
:103AF00001F0004170479EEA0C0F0CEA131518BF45
:103B000095EA0C0F06D04FF0000081EA030E0EF08C
:103B1000004170BD00F01CF88900013E00F007B8BC
:103B200000F009B84FEA430C5FEA5C5C08D081EA18
:103B3000030100F05BB84FEA410C5FEA5C5CF6D130
:103B40004FF00000014970470000FF070000F87FB8
:103B50000EF1020E2EF0030E5EF8046B364205D411
:103B6000012A43EB030515F5001F12D8012841EB8C
:103B7000010C1CF5001F0CD80ED14FEAD17C15F5B5
:103B8000001F0CEB4C0C0CF1020C08BF4CEBD37C6F
:103B900004E04FF0080C01E04FEAD37C0CEB4C053D
:103BA00026FA05F606F00706B6F1040C06D20EEB6F
:103BB000860CBDE870404CF0010C6047DFE80CF06B
:103BC000090B02024FF000414FF00000A1F5002167
:103BD00070BD19461046012851EB010418BFD4F5F9
:103BE000001484BF002001F0004170BD0808A0F55A
:103BF00000114FEA3101704791EA030F10B581F0CF
:103C000000413FF5EFAC83F0004300F0D5B8000071
:103C10002DE9F04101F5801CBCF5001FC0F2A98020
:103C20004FEA115C21EA0C510CF1FD0C41F48011BA
:103C30005FEA5C0C0CF5C07C01D34000494130A424
:103C4000890241EA905187028E0E0A0CA45D04FBA2
:103C500004F602FB06F6C6F14046A4FB0662F60D2A
:103C600046EA422606FB06F4A4FB01235242C3F1B6
:103C7000404338BF5B1EA6FB02420024E6FB032440
:103C8000D20B42EA4446A6FB0623A1FB02E2A3FBB9
:103C900007E4E3FB61426442C2F1404E38BFAEF13B
:103CA000010EA6FB04234FF00002E6FB0E32A2FB3E
:103CB00003463400E2FB6264A1FB06E6A4FB07E8CE
:103CC000E4FB61687642C8F1405838BFA8F10108AA
:103CD000A2FB06E4A3FB08E5E2FB6854A1FB05E6B2
:103CE000A7FB04E8E1FB648618F1200556F1000605
:103CF000A809A8F11B08B10908F03F08B8F10A0F9C
:103D000040EA86601CD901EB0C51BDE8F08100BF90
:103D1000FCF5EEE8E2DDD8D3CFCBC7C3C0BDB9B662
:103D2000B4B1AEACA9A7A5A3A19F9D9B9A98969567
:103D30009392908F8D8C8B898887868584838281EE
:103D4000A0FB006800FB01F208EB4208B8EB8728F3
:103D500007D5341858EB0104D5D5401C51F10001AA
:103D6000D1E7341A78EB0104CDD4401E71F1000183
:103D7000C9E75FEA4C0C5FEA9C5C0DD105D34FF0BC
:103D8000000001F00041BDE8F081BDE8F04170B5F0
:103D9000FFF7DEFE6DDBFFBEBDE8F0414FF0000037
:103DA000004970470000F87F10B591EA030F48BF43
:103DB00083F000433FF516AC841A71EB030C07D275
:103DC00012198CF0004C43EB0C03001B61EB0C014F
:103DD000DFF8A4E14FEA1154A4EB135C1EEA430F91
:103DE00018BF9EEA445F00F0B08023EA6E0352429F
:103DF00021EA0451C3EB6E0338BF5B1EDCF1200ED9
:103E000025D322FA0CFE10EB0E0043FA0CFE41EB18
:103E10000E01CCF1200E03FA0EFE10EB0E0051F154
:103E20000001CCF1200E29D412FA0EF201EB04515C
:103E3000BDE8104058BF7047401C1CBFB2F1004F96
:103E4000704700280CBF491C20F00100704712EB9E
:103E5000020E43EB030218BF4FF0010E4EEA42027E
:103E6000ACF1200CDCF11E0E54D943FA0CFE10EB21
:103E70000E0051F1FF31CCF11E0ED5D50EF1010E21
:103E800012FA0EFE404141EB010101EB445C5FEA96
:103E90005C5C10D910EBDE7001EB045138BFBEF151
:103EA000004FBDE8104018BF704700280CBF491CE8
:103EB00020F00100704730D24FEAD42C11F50011E8
:103EC00024F400641BD0B1FA81F20B3AA41AA41EA8
:103ED000D2F12003914030FA03F31943904001EBF3
:103EE000CC71002C01EB0451BDE81040A8BF704715
:103EF00001F1C0414FF0000001F000417047B0FAFD
:103F000080F310FA03F100D110BDE41A173C480504
:103F1000C90AE4E701EB045110BD491001EB04515B
:103F2000BDE810404FEA300002E04FF0000170475A
:103F30004A0008BF0042F8D0B2F5001F28BF704702
:103F400001F000414FF0000070479EEA445F07D047
:103F500011EA5E0FBDE8104004BF00210020704749
:103F6000BDE8104070B5FFF7F3FD00BF40DFF63E3F
:103F700083F00041104670470000E0FF43004FEA25
:103F8000D30C4FEA3C0C43401FBF40070CF160517B
:103F900013F0FE4F70471CF0006F03D100200CF0AF
:103FA000004170470CF0004343EA507010B540EAFE
:103FB000CC0000F00EF800BF000000924FEA0001B4
:103FC000FFF714BE4FF000414FF00000A1F50021B3
:103FD00070470EF1020E2EF0030E5EF8044B2442E1
:103FE00004D44FEA4102B2F17F4F11D84FEA4003A7
:103FF000B3F17F4F0CD80ED14FEAD07CB2F17F4F96
:104000000CEB4C0C0CF1020C08BF4CEBD17C04E027
:104010004FF0080C01E04FEAD17C0CEB4C0324FA82
:1040200003F404F00704B4F1040C06D20EEB840C84
:10403000BDE810404CF0010C6047DFE80CF00708C9
:1040400002024FF00040A0F5800010BD084642007B
:1040500018BFD2F1807288BF00F0004010BD4FF051
:104060004070E1EE100A7047FF2141EAD050C005D0
:104070007047000000000000555555555555C53F87
:104080007D6FEB0312D6D4BF5544880E55C1C93F8E
:104090003B8F68B52882A4BF88B20175E0EF493F25
:1040A00009F7FD0DE13D023F4B2D8A1C273A03C065
:1040B000C88A599CE52A004059018D1B6C06E6BF51
:1040C00082922EB1C5B8B33FE8400008000000203E
:1040D00024000000C40100080C4100082400002056
:1040E000FC070000E0010008000000009001000053
:1040F00000000000000000000000000000000000C0
:0C410000000000000000000000000000B3
:040000050800018965
:00000001FF
