:020000040800F2
:10000000900700202902000897070008C303000892
:1000100093070008DF020008ED110008000000004F
:100020000000000000000000000000008908000837
:10003000E30200080000000025080008A1090008EC
:10004000430200084302000843020008430200087C
:10005000430200084302000843020008430200086C
:10006000430200084302000843020008430200085C
:10007000430200084302000843020008430200084C
:10008000430200084302000843020008430200083C
:10009000430200084302000843020008430200082C
:1000A00043020008550C000843020008310B000809
:1000B0004302000843020008CD0C00084302000878
:1000C00043020008430200084302000843020008FC
:1000D00043020008430200084302000843020008EC
:1000E00043020008430200084302000843020008DC
:1000F00043020008430200084302000843020008CC
:100100004302000843020008190D000843020008DA
:1001100043020008430200084302000843020008AB
:10012000430200084302000843020008430200089B
:10013000430200084302000843020008430200088B
:10014000430200084302000843020008430200087B
:10015000430200084302000843020008430200086B
:10016000430200084302000843020008430200085B
:10017000430200084302000843020008430200084B
:10018000430200084302000800F002F800F03CF8C7
:100190000AA090E8000C82448344AAF10107DA45E2
:1001A00001D100F031F8AFF2090EBAE80F0013F0F8
:1001B000010F18BFFB1A43F00103184798230000F2
:1001C000B8230000103A24BF78C878C1FAD8520783
:1001D00024BF30C830C144BF04680C6070470000C1
:1001E0000023002400250026103A28BF78C1FBD840
:1001F000520728BF30C148BF0B6070471FB502F0DF
:100200009FF91FBD10B510BD00F036F81146FFF77D
:10021000F5FF01F0DBFC00F054F803B4FFF7F2FF48
:1002200003BC00F055F80000094880470948004722
:10023000FEE7FEE7FEE7FEE7FEE7FEE7FEE7FEE796
:10024000FEE7FEE704480549054A064B70470000F3
:10025000A5090008890100089001002090070020EE
:100260009003002090030020704770477047000003
:1002700000487047300100207546FFF7F9FFAE4691
:1002800005006946534620F00700854618B020B5A2
:10029000FFF7D8FFBDE820404FF000064FF0000701
:1002A0004FF000084FF0000B21F00701AC46ACE81E
:1002B000C009ACE8C009ACE8C009ACE8C0098D468B
:1002C00070470446AFF300802046FFF7A6FF00000A
:1002D00001491820ABBEFEE726000200704700BFB0
:1002E000FEE77047F0B50A4600210023002400BF56
:1002F0003DE0012505FA01F3156805EA03049C4277
:1003000034D105684F000326BE40B543056015791A
:100310004E00B5400668354305601579012D02D0C1
:100320001579022D16D185684F000326BE40B543CE
:10033000856055794E00B5408668354385604568CF
:1003400001268E40B5434560456896798E40B6B229
:1003500035434560C5684F000326BE40B543C560C0
:10036000D5794E00B540C6683543C560491C102993
:10037000BFD3F0BDF0B5002300244D07ED0E02FA07
:1003800005F3CE1000F1200555F826504E07F70E64
:100390000F26BE40B543CF1000F1200646F8275087
:1003A000CE1000F1200555F8265045EA0304CE1082
:1003B00000F1200545F82640F0BD418370470183D8
:1003C000704700BFFEE7000010B500200F4908602D
:1003D0000F48006820F440200D4908600846006876
:1003E00040F48020086000200A49C1F8A4020220DD
:1003F00001F0BEF9012005490860022001F0B8F9BA
:1004000000200449C1F8A00210BD0000A0824042B3
:1004100000040240008040421CB50121022000F08F
:1004200003FA4FF44070009001208DF80400002082
:100430008DF8060003208DF8050001208DF80700D7
:1004400069460548FFF74EFF01200449086004494A
:10045000C1F8A4021CBD000000040240A08240427A
:100460000080404210B500200F4908600F48006826
:1004700020F440200D4908600846006840F48020C0
:10048000086001200A49C1F8A402022001F070F9B5
:10049000012005490860022001F06AF900200449A2
:1004A000C1F8A00210BD0000A0824042000402403A
:1004B0000080404270B5054600241648006820F4CC
:1004C000402014490860084600680860002616E0CD
:1004D000002011490860022001F04AF901200F496B
:1004E000C1F8A0026006040E0B487C38006808B111
:1004F000601CC4B2012001F03BF9701CC6B2082E8A
:10050000E6DB15B9FFF7AEFF01E0FFF75DFF204620
:1005100070BD000000040240A082404200804042C2
:1005200070B504461548006820F44020134908605F
:100530000846006840F480200860002010490860E8
:10054000002517E0E0090E49091D08606006040E49
:10055000022001F00DF901200A49C1F8A002022091
:1005600001F006F9002006490860022001F000F9B8
:10057000681CC5B2082DE5DB70BD00000004024018
:10058000A08240420080404210B50F48006820F42D
:1005900040200D4908600846006840F4802008604B
:1005A00001200A4908600A49C1F8A002042001F0AC
:1005B000DFF8002005490860042001F0D9F8002088
:1005C0000349C1F8A00210BD00040240A4824042C9
:1005D0000080404210B50F48006820F440200D49CB
:1005E00008600846006840F48020086000200A493E
:1005F00008600A49C1F8A402042001F0B9F80120FA
:10060000054908600549C1F8A402042001F0B0F8CA
:1006100010BD000000040240A08240420080404221
:1006200010B500241348006820F4402011490860E8
:1006300008460068086001200F49086001F098F83A
:1006400001200E49C1F8A00201F092F807E0601CF9
:10065000C4B2FA2C03DDFFF7BDFF012010BD064830
:10066000803800680028F2D10349091F086000BFE4
:10067000F4E7000000040240A482404200804042AF
:1006800070B50446FFF780FFD020FFF749FFFFF762
:10069000C7FF2046FFF744FFFFF7C2FFFFF774FFD5
:1006A000D120FFF73DFFFFF7BBFF0020FFF702FF60
:1006B0000546FFF78FFF284670BD10B50446E006DB
:1006C000010E1C2000F043F810BD10B50446E006F2
:1006D000010E1B2000F03BF810BD70B5044600254C
:1006E000BC2C01DB012510E0622C01DB02250CE0B3
:1006F0002A2C01DB032508E0142C01DB042504E08F
:100700000A2C01DB052500E0062529461A2000F009
:100710001EF870BD70B50446B4F57A7F01DD4FF464
:100720007A74042C00DA04244FF47A7090FBF4F00D
:10073000401EC5B22946192000F009F80546264694
:1007400004EBD671C1F34F00FFF7C7FF70BD70B562
:1007500005460C46FFF718FFD020FFF7E1FEFFF734
:100760005FFF18B1FFF736FF012070BD2846FFF785
:10077000D7FEFFF755FF2046FFF7D2FEFFF750FFE9
:1007800018B1FFF727FF0120EFE7FFF723FF002055
:10079000EBE700BFFEE7704770B5002100230F2292
:1007A000C4781CB3174C246804F4E064C4F5E06416
:1007B000C4F30721C1F10404E3B20A4144789C4028
:1007C000E1B28478144021430C07210E0E4C0578C9
:1007D0006155047804F01F050124AC4005786D11C3
:1007E000AD0005F1E025C5F8004109E0047804F00A
:1007F0001F050124AC40054D0678761145F82640CA
:1008000070BD00000CED00E000E400E080E100E0DD
:1008100002490143024A1160704700000000FA05D6
:100820000CED00E07047000029B1064A126802434F
:10083000044B1A6004E0034A12688243014B1A60B9
:10084000704700003038024029B1064A126802435E
:10085000044B1A6004E0034A12688243014B1A6099
:10086000704700004038024029B1064A126802432E
:10087000044B1A6004E0034A12688243014B1A6079
:100880007047000044380240704700000CB500205B
:10089000019000903448006840F48030324908608C
:1008A00000BF3148006800F4003000900198401CFF
:1008B0000190009818B90198B0F5A04FF1D12A48DD
:1008C000006800F4003010B10120009001E0002029
:1008D00000900098012846D123484030006840F03D
:1008E00080502149403108602048006840F4404071
:1008F0001E4908601C48083000681B490831086020
:100900000846006840F4004008600846006840F46B
:10091000A05008601648091F0860081F006840F0D2
:100920008070091F086000BF0F48006800F0007069
:100930000028F9D040F205700E4908600A480830D6
:10094000006820F003000849083108600846006884
:1009500040F00200086000BF03480830006800F063
:100960000C000828F8D10CBD00380240007000408F
:1009700008544007003C0240042808D14FF0E02111
:10098000096941F004014FF0E022116107E04FF0E6
:10099000E021096921F004014FF0E0221161704764
:1009A0007047000010B51548006840F47000134906
:1009B00008601348006840F00100114908600020F9
:1009C0000F49083108600E4800680E4908400C497C
:1009D00008600D48091D0860081F006820F4802089
:1009E000091F0860002006490C310860FFF74EFF20
:1009F0004FF0006001498039086010BD88ED00E0CB
:100A000000380240FFFFF6FE10300024F0B50C461F
:100A1000154600210022068C4FF6FE773E400684E4
:100A2000018B028C4FF60C7631407E1C06EA0316D1
:100A30002E4331434FF6F576324044F001063243FF
:100A400001830284F0BDF0B50C461546002100225A
:100A50000026078C4FF6EF7C07EA0C070784018B12
:100A6000028C4FF6FF7707EA041640F6FF4739403D
:100A70004FF6FF7707EA033739434FF6FF7707EA68
:100A8000052739434FF65F773A4046F010073A435F
:100A900001830284F0BDF0B50C461546002100220A
:100AA0000026078C4FF6FF6C07EA0C070784818B42
:100AB000028C4FF6FF7707EA04264FF60C77394091
:100AC0004FF6FF7707EA03172F4339434FF2FF57DB
:100AD0003A4046F480773A4381830284F0BDF0B512
:100AE0000C461546002100220026078C4EF6FF7C9E
:100AF00007EA0C070784818B028C4FF6FF7707EA21
:100B0000043640F6FF4739404FF6FF7707EA0527DE
:100B100039434FF6FF7707EA0337394345F6FF7746
:100B20003A4046F480573A4381830284F0BD000086
:100B300010B50221444800F03BF901287FD1434819
:100B4000006870B10221404800F0C2F900213E481F
:100B500000F0DBFA3E48007840F010003C49087095
:100B60006DE0394800F021F93949488000213648C4
:100B700000F0AEF93648007800F01000002858D098
:100B80003348007800F08000F0B331484088B0F579
:100B9000967F0DDD2E484088B0F5487F08DA2C4856
:100BA000406840002A49486008464068486040E084
:100BB00027484088B0F5AF6F0FDD25484088B0F575
:100BC000E16F0ADA2248406840002149486008463F
:100BD000406840F0010048602BE01D48408840F626
:100BE0009801884225DD1A48408840F6282188422D
:100BF0001FDA17484078401C1549487008460078AD
:100C000000F0F000087014E0FFE71148408841F25E
:100C1000680188420DDD0E48408841F25C2188421F
:100C200007DA0B48007840F080000949087000207E
:100C300048700748007820F010000549087002212C
:100C4000014800F0A3F810BD00000140200240421E
:100C50001C00002010B501211A4800F0A9F8012855
:100C60002BD11948007800F0800030B31648007886
:100C700020F01000144908700846007800F00F00BA
:100C800020B90846007840F0400008700E4800780F
:100C900000F00F000E2805DA0B480078401C0A49C6
:100CA00008700AE00848007820F0800006490870C3
:100CB0000846007800F0F00008700121014800F0BB
:100CC00065F810BD000001401C00002010B5012196
:100CD0000E4800F06DF8012813D10D480068401C43
:100CE0000B490860084600686421B0FBF1F201FB83
:100CF000120020B907480068401C0649086000F04F
:100D000083FD0121014800F041F810BD00080040BA
:100D1000040000200800002010B50221124800F055
:100D200047F801281AD11148006858B102210E482D
:100D300000F0CEF800210C4800F0E7F901200C4942
:100D400088700BE00A48807840B1074800F02DF821
:100D50000749C860012048700020887003210248BC
:100D600000F014F810BD0000000C004000024042EA
:100D7000D800002021B1028842F08002028004E005
:100D800002884FF67F731A4002807047CA4302827E
:100D9000704721B1028842F00102028004E002881B
:100DA0004FF6FE731A40028070470146486B704749
:100DB00030B50246002000230024158A05EA01030D
:100DC000958905EA010413B10CB1012000E000206F
:100DD00030BD70B505460C46208850B92389A288DD
:100DE00061882846FFF712FEE188284600F08FF957
:100DF00025E0208804280AD12389A2886188284612
:100E0000FFF721FEE188284600F08AF917E02088E4
:100E100008280AD12389A28861882846FFF73BFE6B
:100E2000E188284600F089F909E02389A2886188D1
:100E30002846FFF754FEE188284600F087F970BD88
:100E40001AB183890B43838102E083898B438381B9
:100E50007047000070B5002400220023058C4FF677
:100E6000FE7635400584028C8388048B4FF68F759F
:100E70002C40B51E2C400D882C43751E2A408D89B0
:100E80002A434D882A43104DA84202D00F4DA84254
:100E900013D14FF6F7752A40CD892A434FF6FB75DB
:100EA0002A408D882A434FF6FF652B404FF6FF55A9
:100EB0002B400D8A2B434D8A2B43838004838D68FE
:100EC0004563028470BD0000000001400004014041
:100ED0000A460021018C4FF6FD731940114301842D
:100EE00070470A460021018B4FF6F77319401143F2
:100EF0000183704770B5002400220023058C4FF653
:100F0000EF7635400584028C8388048B48F6FF75A4
:100F10002C404FF6FF452C400D884FF6FF7606EA31
:100F200005252C434FF6DF752A408D8906EA051505
:100F30002A434D8806EA05152A43154DA84202D0DA
:100F4000144DA8421DD14FF67F752A40CD894FF62A
:100F5000FF7606EA05152A434FF6BF752A408D88AD
:100F600006EA05152A434FF6FF352B404FF2FF7571
:100F70002B400D8A06EA85052B434D8A06EA850536
:100F80002B43838004838D688563028470BD0000D9
:100F900000000140000401400A460021018B4FF28D
:100FA000FF7319404FF6FF7303EA022319430183CD
:100FB0007047000070B5002400220023058C4FF616
:100FC000FF6635400584028C8388848B4FF68F75CD
:100FD0002C404FF6FC752C400D882C434FF6FF55E6
:100FE0002A408D894FF6FF7606EA05252A434D886B
:100FF00006EA05252A43154DA84202D0144DA84201
:101000001DD14FF2FF752A40CD894FF6FF7606EAD3
:1010100005252A434FF6FF352A408D8806EA052527
:101020002A434EF6FF752B404DF6FF752B400D8A77
:1010300006EA05152B434D8A06EA05152B438380E6
:1010400084838D68C563028470BD00000000014088
:10105000000401400A460021818B4FF6F7731940C6
:10106000114381837047000070B5002200230024E3
:10107000058C4EF6FF7635400584038C8488828B80
:1010800048F6FF752A404FF6FF452A400D884FF677
:10109000FF7606EA05252A434DF6FF752B408D891C
:1010A00006EA05352B434D8806EA05352B430A4DE4
:1010B000A84202D0094DA84208D14BF6FF752C403A
:1010C0000D8A4FF6FF7606EA85152C4384808283CD
:1010D0008D680564038470BD000001400004014078
:1010E0000A460021818B4FF2FF7319404FF6FF73C0
:1010F00003EA022319438183704741637047816388
:101100007047C16370470164704741627047028B4A
:101110004FF6F3731A400283028B0A43028370472F
:10112000028B4FF2FF331A400283028B4FF6FF739C
:1011300003EA01231A4302837047828B4FF6F3734D
:101140001A408283828B0A4382837047828B4FF2DC
:10115000FF331A408283828B4FF6FF7303EA012329
:101160001A4382837047000000220288184B98427D
:101170000ED0184B98420BD0B0F1804F08D0164BD0
:10118000984205D0154B984202D0154B984204D195
:101190004FF68F731A404B881A43124B984207D070
:1011A000114B984204D04FF6FF431A400B891A4363
:1011B00002804B68C3620B880385054B984202D0BE
:1011C000044B984201D18B7A0386012383827047B6
:1011D00000000140000401400004004000080040FD
:1011E000000C0040001000400014004000BFFEE76B
:1011F00000B587B001211020FFF716FB0121022066
:10120000FFF712FB01212020FFF70EFB4CF2A0009C
:10121000059001208DF8180000208DF81A0001209B
:101220008DF81B0003208DF8190005A91B48FFF756
:1012300059F84CF2A0011948FFF7BFF8702003904D
:1012400001208DF8100000208DF8120001208DF88B
:10125000130003208DF8110003A91148FFF742F88D
:1012600070210F48FFF7A9F84FF4284001900120A2
:101270008DF8080000208DF80A0001208DF80B0081
:1012800003208DF8090001A90648FFF72BF84FF459
:1012900028410448FFF791F807B000BD0004024060
:1012A000001002400014024010B54FF400612648BF
:1012B000FFF783F810212548FFF77FF800BF4FF4B0
:1012C00080412348FFF779F84FF400412048FFF7A9
:1012D00074F800BF00BF4FF400511B48FFF76DF8D2
:1012E0004FF400411848FFF768F800BF00BF8021A5
:1012F0001748FFF762F820211548FFF75EF800BF96
:1013000000BF20211148FFF758F840210F48FFF790
:1013100054F800BF002000F0A9FD002000F098FD67
:10132000002000F0BFFD002000F0AEFD00F096FCB4
:101330000420084908710021064881718160042158
:1013400080F8241010BD000000140240001002407C
:1013500000040240F000002010B54FF40061224864
:10136000FFF72DF810212148FFF729F800BF4FF4AF
:1013700000411F48FFF723F84FF480411C48FFF756
:101380001CF800BF00BF4FF400411748FFF717F8E3
:101390004FF400511448FFF710F800BF00BF2021A0
:1013A0001348FFF70CF880211148FFF706F800BF3B
:1013B00000BF20210D48FFF702F840210B48FEF73F
:1013C000FCFF00BF4FF4966000F050FD4FF49660B4
:1013D00000F03EFD4FF4966000F064FD4FF496601F
:1013E00000F052FD10BD0000001402400010024049
:1013F0000004024010B54FF400612248FEF7DFFF01
:1014000010212148FEF7DBFF00BF4FF480411F4849
:10141000FEF7D5FF4FF400411C48FEF7CEFF00BF9A
:1014200000BF4FF400511748FEF7C9FF4FF40041C9
:101430001448FEF7C2FF00BF00BF80211348FEF72B
:10144000BEFF20211148FEF7B8FF00BF00BF4021BA
:101450000D48FEF7B4FF20210B48FEF7AEFF00BF9A
:101460004FF4966000F002FD4FF4966000F0F0FC3F
:101470004FF4966000F016FD4FF4966000F004FD06
:1014800010BD0000001402400010024000040240A1
:1014900010B5002000F0EAFC002000F0D9FC00208C
:1014A00000F000FD002000F0EFFC10BD10B54FF47F
:1014B00000612048FEF781FF10211F48FEF77DFFE5
:1014C00000BF4FF480411D48FEF777FF4FF4004105
:1014D0001A48FEF772FF00BF00BF4FF400511548D5
:1014E000FEF76BFF4FF400411248FEF766FF00BFA6
:1014F00000BF80211148FEF760FF20210F48FEF752
:101500005CFF00BF00BF20210B48FEF756FF4021C3
:101510000948FEF752FF00BF002000F0A7FC0020A2
:1015200000F096FC002000F0BDFC002000F0ACFCB8
:1015300010BD0000001402400010024000040240F0
:1015400010B54FF400612148FEF739FF1021204803
:10155000FEF733FF00BF4FF480411E48FEF72FFF18
:101560004FF400411B48FEF728FF00BF00BF4FF4B7
:1015700000511648FEF723FF4FF400411348FEF7D1
:101580001CFF00BF00BF20211248FEF718FF80217A
:101590001048FEF712FF00BF00BF20210C48FEF7E5
:1015A0000EFF40210A48FEF708FF00BF40F26C70B2
:1015B00000F05CFC40F26C7000F04AFC002000F08F
:1015C00071FC002000F060FC10BD0000001402401F
:1015D000001002400004024010B54FF400612148A1
:1015E000FEF7EBFE10212048FEF7E9FE00BF4FF4A6
:1015F00000411E48FEF7E3FE4FF480411B48FEF712
:10160000DCFE00BF00BF4FF400411648FEF7D7FED6
:101610004FF400511348FEF7D0FE00BF00BF8021F9
:101620001248FEF7CCFE20211048FEF7C6FE00BF90
:1016300000BF40210C48FEF7C2FE20210A48FEF7F9
:10164000BCFE00BF002000F011FC002000F000FCF8
:1016500040F26C7000F026FC40F26C7000F014FC5C
:1016600010BD0000001402400010024000040240BF
:101670001E4800F12001827832B1012A14D0022ADA
:101680001CD0052A2ED125E00A78042A09D005228B
:101690000A70174A126802F57A724260012282705B
:1016A00001E0012282701EE0114B42681B689A42E1
:1016B00003D200220A700222827014E0827842B1C2
:1016C00005220A700A4A126802F57A7242600522FF
:1016D000827000BF064B42681B689A4201D2042206
:1016E0000A7000E000BF00BF70470000F400002057
:1016F00008000020704770477047704710B50446D7
:101700006FF00400FFF738F9E11704EB5171C1F3F2
:10171000C701074A11701046007800EB4001C1EB89
:10172000C0104FF6FF7101EAC0000249088010BDE9
:10173000000000200200002070B504464FF407703E
:1017400094FBF0F0C6B24FF4077094FBF0F100FB8D
:10175000114085B205E04FF4077000F02FF8701EBD
:10176000C6B2002EF7D115B1284600F027F870BD9B
:101770000146114A12784A434FF0E0235A61002291
:101780009A611A46126942F001021A6100BF4FF0D5
:10179000E022106900F001021AB100F48032002A40
:1017A000F5D04FF0E022126922F001024FF0E02361
:1017B0001A6100229A617047000000200146114A18
:1017C00012884A434FF0E0235A6100229A611A4678
:1017D000126942F001021A6100BF4FF0E022106965
:1017E00000F001021AB100F48032002AF5D04FF067
:1017F000E022126922F001024FF0E0231A61002278
:101800009A6170470200002010B51448007820B398
:101810001248C07880B112480068C01C0F49486067
:1018200001211048FEF7CBFD00210F48FFF750FBC8
:1018300000200A49C87010E0084840680849096853
:1018400088420AD801210748FEF7B7FD0020034966
:101850000870487088700120C87010BDD800002042
:101860000400002000140240000C004000B589B0C4
:1018700001210846FEF7D8FF01210846FEF7F4FFD4
:101880004FF48070079002208DF8200000208DF822
:10189000220003208DF8210001208DF8230007A9E4
:1018A0002948FEF71FFD012208212748FEF762FDA7
:1018B000A720ADF80C000020ADF80E0042F2107029
:1018C00004900020ADF8140003A92048FFF74CFC59
:1018D0000020ADF80000ADF802000120ADF80400D2
:1018E0000020ADF806000320ADF80800694617484F
:1018F000FFF76FFA012203211448FFF7A1FA012133
:101900001248FFF746FA1B208DF8180001208DF8C9
:10191000190003208DF81A0001208DF81B0006A87D
:10192000FEF73AFF19208DF8180001208DF81900F4
:1019300002208DF81A0001208DF81B0006A8FEF782
:101940002BFF09B000BD0000000002400000014074
:1019500010B50020154B1B7803F0400323B3134B45
:101960005B68190E114B5B68C3F30742D343DBB2CC
:101970008B420BD151B90D4B9B88C3F307210B4B05
:101980001A79D343DBB28B4200D1084620B1074B12
:101990001B7803F080033BB9044B1B7823F0400312
:1019A000024C23700023637010BD00001C00002057
:1019B00010B5FFF7CDFF0446622C0AD004DC022CE0
:1019C00017D0222C19D10CE0A82C06D0C22C14D18F
:1019D0000BE001200C49087213E002200A4908724A
:1019E0000FE00320084908720BE004200649087242
:1019F00007E005200449087203E00020024908724C
:101A000000BF00BF10BD00001C00002010B5FFF794
:101A1000CFFF2248007A06283BD2DFE800F03A03E5
:101A20000E19242FFFF798FC1D48006808B9012003
:101A300000E000201A4908602EE0FFF7DBFC1848A0
:101A4000006808B9012000E000201549086023E083
:101A5000FFF776FD1248006808B9012000E0002079
:101A60000F49086018E0FFF7B7FD0D48006808B996
:101A7000012000E000200A4908600DE0FFF716FD94
:101A80000748006808B9012000E000200449086008
:101A900002E0FFF70BFD00BF00BF10BD1C000020DF
:101AA000A88242420C4901F120000C4ACA600C4B4A
:101AB0000B610C4B4B610C4B8B610C4BCB610C4A9B
:101AC00042600C4B83600C4BC3600C4B03610C4BAE
:101AD00083610C4B43617047F400002071160008CD
:101AE000F5160008F9160008FB160008F71600089E
:101AF00059130008F513000841150008D91500080E
:101B000091140008AD1400081CB501212020FEF737
:101B10008BFE4FF4C060009001208DF8040000207F
:101B20008DF8060001208DF8070003208DF80500D0
:101B300069460448FEF7D6FB4FF4C0610148FEF742
:101B40003CFC1CBD00140240002007E01C4A52F877
:101B500020101C4A42F82010411CC8B20428F5DBB2
:101B600018494968491C81B116498968491C61B105
:101B70001449C968491C41B11249496829B1114940
:101B8000896811B10F49C96819B900210E4A9173CA
:101B900014E00C4991ED010A0B4981ED040A094951
:101BA00091ED020A084981ED050A064991ED030A03
:101BB000054981ED060A0121034A9173704700002F
:101BC00000000E08C8000020280000204FF4A0608C
:101BD000FEF71EFEA820FFF791FD4FF4FA60FFF715
:101BE000ABFDFFF791FFFFF703FBFFF75DFB142150
:101BF00040F2CF7000F036F8142140F2CF7000F0C0
:101C00008DF8002140F2473000F072FAFFF72EFE07
:101C100000F0E0F8FFF798FF00F0F0FA00F098FA13
:101C200000F04EF94FF4AF614FF08040FFF767FAD4
:101C300041F28830FFF780FDB7EE000A064880EDDC
:101C4000140A08E000F08AF9FFF7E0FE00F0D2FA8B
:101C50000420FFF771FDF5E72800002000B5FFF72D
:101C600021FF00BD30B58BB004460D460121022096
:101C7000FEF7DAFD01210220FEF7E6FD03200990C0
:101C800002208DF8280000208DF82A0001208DF810
:101C90002B0003208DF8290009A91E48FEF722FB1E
:101CA000022200211B48FEF765FB02220121194890
:101CB000FEF760FB0020ADF82000ADF81A00A8B2D6
:101CC000ADF81800079406A91348FFF74DFA6020F5
:101CD000ADF804000020ADF810000120ADF80600BA
:101CE00001A90D48FFF766F901A90B48FFF7BCF9F8
:101CF00008210948FFF7AEF908210748FFF7F0F976
:101D000001210548FFF736F801210348FFF741F8A4
:101D10000BB030BD000402400004004030B58BB071
:101D200004460D4601210846FEF77EFD01210220F2
:101D3000FEF78AFDC020099002208DF828000020BF
:101D40008DF82A0001208DF82B0003208DF8290042
:101D500009A91E48FEF7C6FA022206211B48FEF713
:101D600009FB022207211948FEF704FB0020ADF809
:101D70002000ADF81A00A8B2ADF81800079406A923
:101D80001348FFF7F1F96020ADF804000020ADF82A
:101D900010000120ADF8060001A90D48FFF75AF820
:101DA00001A90B48FFF7A6F808210948FFF799F8A1
:101DB00008210748FFF7F0F801210548FEF7DAFF90
:101DC00001210348FEF7E5FF0BB030BD00000240E3
:101DD0000004004010B5FEF71FFB80216B20FEF7CA
:101DE000B6FC6420FFF7A8FC00216B20FEF7AFFCD7
:101DF0000120FEF76AFC0020FEF75FFC3220FEF7B0
:101E000089FC00213820FEF7A2FC00216A20FEF7A1
:101E10009EFC00212320FEF79AFC80213720FEF74C
:101E200096FC7520FEF72CFC0446682C0BD1012192
:101E30006B20FEF78CFC00216C20FEF788FC322022
:101E4000FEF768FC01E0012010BD0020FCE7000067
:101E500010B50446B4F5FA6F01D340F2CF742146B1
:101E60000148FFF750F910BD0004004010B50446CA
:101E7000B4F5FA6F01D340F2CF7421460148FFF761
:101E800040F910BD0004004010B50446B4F5FA6FE7
:101E900001D340F2CF7421460148FFF730F910BD5D
:101EA0000004004010B50446B4F5FA6F01D340F2C7
:101EB000CF7421460148FFF720F910BD000400400F
:101EC00000B58BB001210220FEF7AEFC01210846CF
:101ED000FEF7BAFC0820099002208DF828000020A7
:101EE0008DF82A0001208DF82B0003208DF82900A1
:101EF00009A91948FEF7F6F9012203211648FEF751
:101F000039FA0020ADF82000ADF81A005320ADF8E2
:101F1000180041F28730079006A94FF08040FFF784
:101F200023F96020ADF804000020ADF81000012076
:101F3000ADF8060001A98007FEF7DCFF0821C806FE
:101F4000FFF72AF801218807FEF714FF012188070F
:101F5000FEF71FFF0BB000BD0004024010B5614842
:101F60000078082876D2DFE800F0041A31485E765F
:101F70008CA35D4800685D49096888420ED34FF420
:101F8000FA710807FFF7BBF8012056490870564858
:101F9000006841F28831084454490860A0E0524882
:101FA00000685249096888420FD340F2B6314FF0B9
:101FB0008040FFF7A4F802204A4908704A480068A8
:101FC00041F2883108444949086089E04648006880
:101FD0004649096888420FD34FF4AF614FF0804003
:101FE000FFF78DF803203F4908703F48006841F231
:101FF000883108443D49086072E03B4800683B492D
:10200000096888420ED340F23A714807FFF777F823
:102010000420344908703448006841F2883108448B
:10202000324908605CE030480068304909688842FD
:102030000FD340F6FC014FF08040FFF760F8052019
:10204000284908702848006841F288310844274927
:10205000086045E043E02448006824490968884254
:102060000ED340F23A714807FFF749F806201D49A0
:1020700008701D48006841F2883108441B49086017
:102080002EE0194800681949096888420FD34FF4B7
:10209000AF614FF08040FFF732F807201149087018
:1020A0001148006841F2883108441049086017E07F
:1020B0000D4800680D49096888420FD340F2B631D7
:1020C0004FF08040FFF71BF80020064908700648D3
:1020D000006841F2883108440449086000E000BF0C
:1020E00000BF10BD180000200800002014000020D0
:1020F0007FB505460C4601210420FEF7A5FB02959D
:10210000A0B2ADF804000020ADF80600ADF80C0058
:1021100001A90E48FFF728F8012211460B48FEF7E7
:102120008FFE01210948FEF734FE1E208DF80000C5
:1021300001208DF8010003208DF8020001208DF8A8
:1021400003006846FEF728FB7FBD00000008004042
:102150001CB501212020FEF767FB012000908DF8BF
:10216000040000208DF8060001208DF807000320F0
:102170008DF8050069460448FEF7B4F801210248CD
:10218000FEF71BF91CBD00000014024010B52DED38
:10219000048B1448806814490968081A642806D317
:1021A000012010490870C8700F48006888600D4809
:1021B000407898B100200B494870C86800F0AFF82B
:1021C00041EC190B9FED090B53EC102B00F0BAF802
:1021D00041EC180B00F072F802494861BDEC048B29
:1021E00010BD0000D8000020080000209CC420B0D2
:1021F0007268913F10B5FFF7C9FF10BD00B589B0F7
:1022000001210846FEF710FB01210820FEF71CFB08
:102210000120079002208DF8200000208DF8220078
:1022200003208DF8210002208DF8230007A9214802
:10223000FEF758F8022200211E48FEF79BF85320B3
:10224000ADF80C000020ADF80E004EF660200490B2
:102250000020ADF8140003A91748FEF785FF002001
:10226000ADF80000ADF802000120ADF80400002038
:10227000ADF80600ADF8080069460F48FEF7A9FD65
:10228000012202210C48FEF7DBFD01210A48FEF77E
:1022900080FD32208DF8180000208DF819008DF88F
:1022A0001A0001208DF81B0006A8FEF775FA09B088
:1022B00000BD000000000240000C004021F0004280
:1022C000A2F16052B2F5801F01F0004328BFD2F1A5
:1022D0007F6C0BD95FEA001C43EAC20242EB5070EC
:1022E00018BF704728BF20F001007047B2F5801F6B
:1022F000BCBF184670474FEA410C1CF5001F02D2C4
:10230000084600F022B970B500F0C6F80000008958
:10231000FFF7F6BF4FF00040A0F580007047B0FA1D
:1023200080F310FA03F10AD0C3F11D0303F58063B3
:102330004FEA41504FEA035202EBD12170474FF070
:1023400000007047DFF848C170B51CEA111E1EBFBF
:102350001CEA13159EEA0C0F95EA0C0F00F06F8033
:1023600081EA030423EA4C134EEAD47E21EA4C119D
:1023700041F4801143F48013AE44A1FB024CA0FB56
:102380000365AEF17F7E361955EB0C05A1FB034CBE
:102390004CF10003A0FB021C16EB0C06654153F147
:1023A0000003094218BF46F0010613F4007F0BD169
:1023B0004FEA03314FEA0530340341EA155140EA50
:1023C00016506FF003020AE04FEAC3214FEAC5201E
:1023D000F40241EA555140EA56506FF0020202EB16
:1023E0002E4201EB025585EACE710AD05FEA440C19
:1023F00018BF24F0004450F1000041F1000120EA30
:10240000D47040F2FE7C624500D270BDA84214BF79
:102410004FF080444FF04044002E08BF0024BEF12E
:10242000806FA8BFA1F1C041BDE8704080F28280FA
:102430004FF0000001F1C04101F0004170479EEAF9
:102440000C0F0CEA131518BF95EA0C0F06D04FF0CD
:10245000000081EA030E0EF0004170BD00F01CF890
:102460008900013E00F007B800F009B84FEA430CBC
:102470005FEA5C5C08D081EA030100F05BB84FEAD8
:10248000410C5FEA5C5CF6D14FF0000001497047F7
:102490000000FF070000F87F0EF1020E2EF0030E81
:1024A0005EF8046B364205D4012A43EB030515F5AB
:1024B000001F12D8012841EB010C1CF5001F0CD89D
:1024C0000ED14FEAD17C15F5001F0CEB4C0C0CF132
:1024D000020C08BF4CEBD37C04E04FF0080C01E089
:1024E0004FEAD37C0CEB4C0526FA05F606F00706FE
:1024F000B6F1040C06D20EEB860CBDE870404CF031
:10250000010C6047DFE80CF0090B02024FF00041BC
:102510004FF00000A1F5002170BD194610460128BA
:1025200051EB010418BFD4F5001484BF002001F062
:10253000004170BD0808A0F500114FEA3101704755
:102540004FF04070E1EE100A7047FF2141EAD05091
:10255000C005704774250008000000201C00000022
:10256000C4010008902500081C000020740700002A
:10257000E001000800000000000000000000000072
:10258000000000000000000000000000000000004B
:040000050800018965
:00000001FF
