:020000040800F2
:100000006807002029020008D910000889050008A7
:10001000D5100008FB020008B51A00080000000017
:10002000000000000000000000000000CD110008EA
:10003000FF0200080000000069110008E512000836
:10004000430200084302000843020008430200087C
:10005000430200084302000843020008430200086C
:10006000430200084302000843020008430200085C
:10007000430200084302000843020008430200084C
:10008000430200084302000843020008430200083C
:10009000430200084302000843020008430200082C
:1000A000430200089915000843020008751400086F
:1000B000430200084302000811160008430200082A
:1000C00043020008430200084302000843020008FC
:1000D00043020008430200084302000843020008EC
:1000E00043020008430200084302000843020008DC
:1000F00043020008430200084302000843020008CC
:1001000043020008430200084302000843020008BB
:1001100043020008430200084302000843020008AB
:10012000430200084302000843020008430200089B
:10013000430200084302000843020008430200088B
:10014000430200084302000843020008430200087B
:10015000430200084302000843020008430200086B
:10016000430200084302000843020008430200085B
:10017000430200084302000843020008430200084B
:10018000430200084302000800F002F800F03CF8C7
:100190000AA090E8000C82448344AAF10107DA45E2
:1001A00001D100F031F8AFF2090EBAE80F0013F0F8
:1001B000010F18BFFB1A43F0010318472C3500004C
:1001C0004C350000103A24BF78C878C1FAD85207DD
:1001D00024BF30C830C144BF04680C6070470000C1
:1001E0000023002400250026103A28BF78C1FBD840
:1001F000520728BF30C148BF0B6070471FB503F0DE
:1002000040FA1FBD10B510BD00F044F81146FFF7CD
:10021000F5FF02F0F9FA00F062F803B4FFF7F2FF1D
:1002200003BC00F063F80000094880470948004714
:10023000FEE7FEE7FEE7FEE7FEE7FEE7FEE7FEE796
:10024000FEE7FEE704480549054A064B70470000F3
:10025000E9120008890100086801002068070020F1
:10026000680300206803002070477047704710B58E
:1002700000F008F8006810BD10B5044600F002F860
:10028000046010BD00487047080100200048704716
:10029000080100207546FFF7F9FFAE4605006946E4
:1002A000534620F00700854618B020B5FFF7CAFF77
:1002B000BDE820404FF000064FF000074FF0000867
:1002C0004FF0000B21F00701AC46ACE8C009ACE8E8
:1002D000C009ACE8C009ACE8C0098D4670470446C7
:1002E000AFF300802046FFF798FF00000149182077
:1002F000ABBEFEE726000200704700BFFEE7704776
:1003000030B10749096841F48061054A116005E090
:100310000349096821F48061014A116070470000B7
:10032000003C024070B504460A460026092502B981
:1003300009E0012A01D1160205E0022A01D11602C4
:1003400001E04FF4407600F09FF80546092D28D1D2
:100350001548006820F4407013490860084600689A
:10036000304308600846006820F0F800086008463E
:10037000006844F0020108430B4908600846006821
:1003800040F48030086000F07FF8054606480068B9
:1003900020F00200044908600846006820F0F800D8
:1003A0000860284670BD0000103C02400920134937
:1003B000096801F48031B1F5803F01D101201CE0D2
:1003C0000E49096801F0100109B1062015E00B493A
:1003D000096801F4807109B102200EE0074909683B
:1003E00001F0EF0109B1072007E00449096801F0B5
:1003F000020109B1082000E0092070470C3C0240CE
:100400000348006840F00040014908607047000060
:10041000103C024030B502460C46092500F034F885
:100420000546092D19D10E48006820F440700C498A
:1004300008600846006840F40070086008460068DC
:1004400040F001000860146000F01EF80546044802
:10045000006820F0010002490860284630BD000015
:10046000103C02400548006800F0004028B10448F4
:1004700002490C390860034808607047103C02408C
:1004800023016745AB89EFCD08B509200090FFF740
:100490008DFF009002E0FFF789FF00909DF80000BB
:1004A0000128F8D09DF8000008BDF0B50A460021EB
:1004B0000023002400BF3DE0012505FA01F3156883
:1004C00005EA03049C4234D105684F000326BE4070
:1004D000B543056015794E00B540066835430560A3
:1004E0001579012D02D01579022D16D185684F009E
:1004F0000326BE40B543856055794E00B5408668F9
:1005000035438560456801268E40B54345604568A2
:1005100096798E40B6B235434560C5684F000326D4
:10052000BE40B543C560D5794E00B540C668354379
:10053000C560491C1029BFD3F0BDF0B500230024CD
:100540004D07ED0E02FA05F3CE1000F1200555F827
:1005500026504E07F70E0F26BE40B543CF1000F1D0
:10056000200646F82750CE1000F1200555F82650F9
:1005700045EA0304CE1000F1200545F82640F0BD01
:10058000418370470183704700BFFEE710B500202C
:100590000F4908600F48006820F440200D490860AA
:1005A0000846006840F48020086000200A49C1F82D
:1005B000A402022001F0B0FF0120054908600220DA
:1005C00001F0AAFF00200449C1F8A00210BD0000FC
:1005D000A082404200040240008040421CB501213C
:1005E000022000F0C3FD4FF44070009001208DF810
:1005F000040000208DF8060003208DF8050001207E
:100600008DF8070069460548FFF74FFF01200449B0
:1006100008600449C1F8A4021CBD000000040240A7
:10062000A08240420080404210B500200F4908607F
:100630000F48006820F440200D4908600846006813
:1006400040F48020086001200A49C1F8A402022079
:1006500001F062FF012005490860022001F05CFF03
:1006600000200449C1F8A00210BD0000A082404251
:10067000000402400080404270B505460024164840
:10068000006820F4402014490860084600680860AB
:10069000002616E0002011490860022001F03CFF0E
:1006A00001200F49C1F8A0026006040E0B487C38F7
:1006B000006808B1601CC4B2012001F02DFF701C5D
:1006C000C6B2082EE6DB15B9FFF7AEFF01E0FFF773
:1006D0005DFF204670BD000000040240A082404241
:1006E0000080404270B504461548006820F4402060
:1006F000134908600846006840F480200860002024
:1007000010490860002517E0E0090E49091D08603E
:100710006006040E022001F0FFFE01200A49C1F824
:10072000A002022001F0F8FE002006490860022025
:1007300001F0F2FE681CC5B2082DE5DB70BD0000BB
:1007400000040240A08240420080404210B50F48A1
:10075000006820F440200D4908600846006840F415
:100760008020086001200A4908600A49C1F8A002F7
:10077000042001F0D1FE002005490860042001F0AA
:10078000CBFE00200349C1F8A00210BD00040240C6
:10079000A48240420080404210B50F48006820F417
:1007A00040200D4908600846006840F48020086039
:1007B00000200A4908600A49C1F8A402042001F097
:1007C000ABFE0120054908600549C1F8A4020420D8
:1007D00001F0A2FE10BD000000040240A0824042D1
:1007E0000080404210B500241348006820F44020E7
:1007F0001149086008460068086001200F49086038
:1008000001F08AFE01200E49C1F8A00201F084FE29
:1008100007E0601CC4B2FA2C03DDFFF7BDFF012026
:1008200010BD0648803800680028F2D10349091F2E
:10083000086000BFF4E7000000040240A4824042C8
:100840000080404200B52DED108B87B0F0EE409A4D
:10085000B0EE60AAF0EE41AAB0EE61BAB0EE428A04
:10086000F0EE628AF0EE43FA6BEE0B0A48EE080AED
:1008700048EEA80AB0EE600A01F04AFFB0EE409AD6
:100880002BEE090AB0EE40BA28EE090AB0EE408A13
:1008900028EE890AF0EE408ADD4890ED150AD0ED89
:1008A000170A20EE200AD0ED140A90ED161A00EE79
:1008B000C10AF0EE000A20EE200AF0EE40BA90EDF8
:1008C000140AD0ED150A20EE200AD0ED160A90ED9C
:1008D000171A00EE810AF0EE000A20EE200AB0EEB0
:1008E00040DA90ED140A20EE000AD0ED150A90EDE2
:1008F000151A00EEC10AD0ED160A90ED161A00EE98
:10090000C10AD0ED170A90ED171A00EE810AF0EE39
:1009100040DA80ED20BA80ED218AC0ED228AC0ED58
:1009200023BA80ED24DAC0ED25DA28EE2D0A08EE90
:10093000CD0AB0EE40EA28EEAB0A0BEE6D0AF0EEFF
:1009400040EA2BEE0D0A08EE6B0AB0EE40FA90ED8D
:10095000180ADFEDB00A0EEE200A80ED180A90EDBD
:10096000190ADFEDAC0A0EEEA00A80ED190A90ED2F
:100970001A0ADFEDA80A0FEE200A80ED1A0AF0EE3F
:10098000000AB0EE690A00EE8E0AD0ED180A30EEC9
:10099000200AF0EE409AF0EE000AB0EE4A0A00EEAD
:1009A000AE0AD0ED190A30EE200AB0EE40AAF0EE01
:1009B000000AB0EE6A0A00EE8F0AD0ED1A0A30EE95
:1009C000200AF0EE40AA90ED150AB1EE400A20EEA2
:1009D000290AD0ED160A00EECA0AD0ED170A00EE79
:1009E000EA0AD0ED140A9FED8C1A40EE010AC0ED20
:1009F000140A90ED140A20EE290AD0ED160A00EE32
:100A0000AA0AD0ED170A00EECA0AD0ED150A9FED2A
:100A1000821A40EE010AC0ED150A90ED140A20EE8C
:100A20000A0AD0ED150A00EEEA0AD0ED170A00EE28
:100A3000A90AD0ED160A9FED781A40EE010AC0ED22
:100A4000160A90ED140A20EE2A0AD0ED150A00EEDF
:100A50008A0AD0ED160A00EEE90AD0ED170A9FEDDA
:100A60006E1A40EE010AC0ED170AD0ED140A60EECE
:100A7000A00A90ED151AD0ED151A41EE210A90ED5D
:100A8000161AD0ED161A41EE210A90ED171AD0ED84
:100A9000171A41EE210AB0EE600A01F039FEB0EEFD
:100AA000409A5B4890ED140A20EE090A80ED140A82
:100AB00090ED150A20EE090A80ED150A90ED160A50
:100AC00020EE090A80ED160A90ED170A20EE090AB9
:100AD00080ED170A1DEE900A02F062FD41EC1C0B3E
:100AE000B0EE4C0AF0EE6C0A00F0FEFF8DED000B4C
:100AF0009DED000B51EC100B02F054F89FED470BED
:100B000053EC102BCDE902019DED020B51EC100BC3
:100B100002F086FACDE904019DED040B51EC100BB7
:100B200002F04CF800EE100A394880ED1E0ABDEEC6
:100B3000C00A10EE100A01B23548A0F870101DEE80
:100B4000100A02F02DFDCDE902019DED020B00F02F
:100B5000CBFFB0EE40CAF0EE60CA9FED300B53EC15
:100B6000102B51EC1C0B02F05BFACDE904019DED5A
:100B7000040B51EC100B02F021F800EE100A24488F
:100B800080ED1D0ABDEEC00A10EE100A01B2204829
:100B9000A0F86E101BEE900A02F002FD41EC1C0B57
:100BA000B0EE4C0AF0EE6C0A00F09EFF8DED020BE9
:100BB0009FED1A0B53EC102B9DED020B51EC100B1B
:100BC00002F02EFACDE904019DED040B51EC100B5F
:100BD00001F0F4FF0E49C867084690ED1F0AF2EED7
:100BE000040A20EE200ABDEEC00A10EE100A01B27F
:100BF0000748A0F87210B0F9200041100448A0F88E
:100C00009A10C18BA0F89C1007B0BDEC108B00BDF2
:100C1000580000200AD7A33B6F12033B00000020BE
:100C2000DCA54C4010B5A448C078A349897800EBF6
:100C30000120404201B2A048418440799E4909798F
:100C400000EB012001B29C48818440789A490978E0
:100C500000EB0120404201B29748C184C07A964916
:100C6000897A00EB0120404200B29349888308460C
:100C7000407B097B00EB012001B28F48C183407AA1
:100C80008D49097A00EB0120404201B28A48018473
:100C9000B0F91C0000EE100AB8EEC00A8648D0ED8C
:100CA000040A30EE600ADFED850A20EE200A80EDAE
:100CB0000C0AB0F91E0000EE100AB8EEC00A7E4819
:100CC000D0ED050A30EE600ADFED7C0A20EE200A46
:100CD00080ED0D0AB0F9200000EE100AB8EEC00A4F
:100CE0007548D0ED060A30EE600ADFED740A20EE9A
:100CF000200A80ED0E0AB0F9220000EE100AB8EECC
:100D0000C00A6D4880ED0F0AB0F9240000EE100A09
:100D1000B8EEC00A684880ED100AB0F9260000EE6F
:100D2000100AB8EEC00A644880ED110A807B08B34F
:100D3000614890ED113AF0EE432A90ED103AB0EE92
:100D4000432A90ED0F3AF0EE431A90ED0E3AB0EED2
:100D5000431A90ED0D3AF0EE430A90ED0C3AB0EEE6
:100D6000430AB7EE004AF7EE003AB7EE003AFFF753
:100D700069FD9FE05048B0F920105148B0F90000DB
:100D8000963881421ADD4C48B0F920104C48B0F931
:100D900000009630814211DA4748B0F92000B0F5E2
:100DA000967F0BDA4448B0F9200010F5967F05DDF8
:100DB00044480088401C434908800FE00020414916
:100DC00008809FED410A3C4880ED040A9FED3E0AF1
:100DD00080ED050A9FED3C0A80ED060A394800883F
:100DE000C8282CDD37480088B0F5167F27DC32484C
:100DF000D0ED040AB0F91C0000EE100AB8EEC00AEB
:100E000030EE800A2C4880ED040AD0ED050AB0F9D6
:100E10001E0000EE100AB8EEC00A30EE800A264826
:100E200080ED050AD0ED060AB0F9200000EE100AA8
:100E3000B8EEC00A30EE800A1F4880ED060A1E4850
:100E4000008C1F4908801F480088B0F5167F31DDEF
:100E5000012019498873084690ED040ADFED1B0A4A
:100E600080EE201A80ED041A90ED050ADFED170AD6
:100E700080EE201A80ED051A90ED060ADFED130AC8
:100E800080EE201A80ED061A90ED040A104880EDDD
:100E9000010A084690ED050A0D4880ED020A084651
:100EA00090ED060A0A4880ED030A01F01DFE0020BD
:100EB0000449088010BD000058000020A8B38B39F9
:100EC0000A00002008000020000000000000C843C5
:100ED000F800002010B5FFF781FB80216B2000F0A7
:100EE000D7F8642001F0FCFA00216B2000F0D0F864
:100EF000012000F08BF8002000F080F8322000F094
:100F0000AAF80021382000F0C3F800216A2000F080
:100F1000BFF80021232000F0BBF88021372000F02B
:100F2000B7F8752000F013F80446682C0BD10121A6
:100F30006B2000F0ADF800216C2000F0A9F8322001
:100F400000F089F801E0012010BD0020FCE770B539
:100F50000446FFF7FBFBD020FFF7C4FBFFF742FC82
:100F60002046FFF7BFFBFFF73DFCFFF7EFFBD1206B
:100F7000FFF7B8FBFFF736FC0020FFF77DFB0546C7
:100F8000FFF70AFC284670BD2DE9F04106460F46E2
:100F900014461D46FFF7DAFB002141EA4601C8B2BC
:100FA000FFF7A0FBFFF71EFC20B1FFF7F5FB0120C8
:100FB000BDE8F0813846FFF795FBFFF713FCFFF71C
:100FC000C5FB012101EB4601C8B2FFF78BFBFFF720
:100FD00009FC0DE0012C04D10020FFF74DFB287027
:100FE00003E00120FFF748FB2870601EC4B26D1CAF
:100FF000002CEFD1FFF7D0FB0020D9E710B5044655
:10100000E006010E1C2000F043F810BD10B50446A8
:10101000E006010E1B2000F03BF810BD70B5044641
:101020000025BC2C01DB012510E0622C01DB022530
:101030000CE02A2C01DB032508E0142C01DB04253D
:1010400004E00A2C01DB052500E0062529461A20CC
:1010500000F01EF870BD70B50446B4F57A7F01DD6E
:101060004FF47A74042C00DA04244FF47A7090FB65
:10107000F4F0401EC5B22946192000F009F80546D3
:10108000264604EBD671C1F34F00FFF7C7FF70BDD2
:1010900070B505460C46FFF759FBD020FFF722FB41
:1010A000FFF7A0FB18B1FFF777FB012070BD2846C2
:1010B000FFF718FBFFF796FB2046FFF713FBFFF740
:1010C00091FB18B1FFF768FB0120EFE7FFF764FB26
:1010D0000020EBE700BFFEE77047000070B500217D
:1010E00000230F22C4781CB3174C246804F4E06476
:1010F000C4F5E064C4F30721C1F10404E3B20A417A
:1011000044789C40E1B28478144021430C07210EBE
:101110000E4C05786155047804F01F050124AC409D
:1011200005786D11AD0005F1E025C5F8004109E035
:10113000047804F01F050124AC40054D06787611B3
:1011400045F8264070BD00000CED00E000E400E032
:1011500080E100E002490143024A1160704700004B
:101160000000FA050CED00E07047000029B1064AC6
:1011700012680243044B1A6004E0034A1268824377
:10118000014B1A60704700003038024029B1064A0E
:1011900012680243044B1A6004E0034A1268824357
:1011A000014B1A60704700004038024029B1064ADE
:1011B00012680243044B1A6004E0034A1268824337
:1011C000014B1A607047000044380240704700002D
:1011D0000CB50020019000903448006840F4803045
:1011E0003249086000BF3148006800F400300090C8
:1011F0000198401C0190009818B90198B0F5A04FD3
:10120000F1D12A48006800F4003010B101200090AC
:1012100001E0002000900098012846D1234840308A
:10122000006840F080502149403108602048006843
:1012300040F440401E4908601C48083000681B49C3
:10124000083108600846006840F40040086008461D
:10125000006840F4A05008601648091F0860081F85
:10126000006840F08070091F086000BF0F480068E8
:1012700000F000700028F9D040F205700E490860B7
:101280000A480830006820F0030008490831086067
:101290000846006840F00200086000BF03480830BC
:1012A000006800F00C000828F8D10CBD003802409E
:1012B0000070004008544007003C0240042808D158
:1012C0004FF0E021096941F004014FF0E022116183
:1012D00007E04FF0E021096921F004014FF0E0221E
:1012E000116170477047000010B51548006840F460
:1012F0007000134908601348006840F0010011496C
:10130000086000200F49083108600E4800680E4947
:1013100008400C4908600D48091D0860081F006856
:1013200020F48020091F0860002006490C31086065
:10133000FFF74EFF4FF0006001498039086010BD93
:1013400088ED00E000380240FFFFF6FE1030002478
:10135000F0B50C46154600210022068C4FF6FE77AC
:101360003E400684018B028C4FF60C7631407E1C89
:1013700006EA03162E4331434FF6F576324044F029
:101380000106324301830284F0BDF0B50C461546D8
:10139000002100220026078C4FF6EF7C07EA0C079D
:1013A0000784018B028C4FF6FF7707EA041640F69C
:1013B000FF4739404FF6FF7707EA033739434FF6C7
:1013C000FF7707EA052739434FF65F773A4046F043
:1013D00010073A4301830284F0BDF0B50C46154670
:1013E000002100220026078C4FF6FF6C07EA0C074D
:1013F0000784818B028C4FF6FF7707EA04264FF6AD
:101400000C7739404FF6FF7707EA03172F4339432C
:101410004FF2FF573A4046F480773A438183028483
:10142000F0BDF0B50C461546002100220026078CC1
:101430004EF6FF7C07EA0C070784818B028C4FF67F
:10144000FF7707EA043640F6FF4739404FF6FF774B
:1014500007EA052739434FF6FF7707EA0337394391
:1014600045F6FF773A4046F480573A438183028439
:10147000F0BD000010B50221444800F0FDF801283D
:101480007FD14348006870B10221404800F084F9E0
:1014900000213E4800F09DFA3E48007840F01000E0
:1014A0003C4908706DE0394800F0E3F8394948805C
:1014B0000021364800F070F93648007800F010003E
:1014C000002858D03348007800F08000F0B331484D
:1014D0004088B0F5967F0DDD2E484088B0F5487FF6
:1014E00008DA2C48406840002A49486008464068AD
:1014F000486040E027484088B0F5AF6F0FDD2548D1
:101500004088B0F5E16F0ADA22484068400021497E
:1015100048600846406840F0010048602BE01D48E4
:10152000408840F69801884225DD1A48408840F6F8
:10153000282188421FDA17484078401C1549487016
:101540000846007800F0F000087014E0FFE711484A
:10155000408841F2680188420DDD0E48408841F222
:101560005C21884207DA0B48007840F08000094986
:101570000870002048700748007820F010000549E6
:1015800008700221014800F065F810BD000001401C
:10159000200240424C00002010B501211A4800F002
:1015A0006BF801282BD11948007800F0800030B387
:1015B0001648007820F0100014490870084600789A
:1015C00000F00F0020B90846007840F04000087095
:1015D0000E48007800F00F000E2805DA0B4800785E
:1015E000401C0A4908700AE00848007820F0800092
:1015F000064908700846007800F0F00008700121E4
:10160000014800F027F810BD000001404C00002008
:1016100010B50121074800F02FF8012804D1064831
:101620000068401C044908600121024800F012F8DB
:1016300010BD0000000800400400002021B1028815
:1016400042F08002028004E002884FF67F731A4065
:1016500002807047CA430282704721B1028842F07B
:101660000102028004E002884FF6FE731A400280F5
:1016700070470146486B704730B502460020002392
:101680000024158A05EA0103958905EA010413B1CE
:101690000CB1012000E0002030BD70B505460C46BD
:1016A000208850B92389A28861882846FFF750FE18
:1016B000E188284600F08FF925E0208804280AD127
:1016C0002389A28861882846FFF75FFEE1882846C3
:1016D00000F08AF917E0208808280AD12389A28817
:1016E00061882846FFF779FEE188284600F089F9ED
:1016F00009E02389A28861882846FFF792FEE188E5
:10170000284600F087F970BD1AB183890B438381A5
:1017100002E083898B4383817047000070B5002409
:1017200000220023058C4FF6FE7635400584028C9E
:101730008388048B4FF68F752C40B51E2C400D8886
:101740002C43751E2A408D892A434D882A43104D0B
:10175000A84202D00F4DA84213D14FF6F7752A4088
:10176000CD892A434FF6FB752A408D882A434FF6D0
:10177000FF652B404FF6FF552B400D8A2B434D8ABA
:101780002B43838004838D684563028470BD000011
:1017900000000140000401400A460021018C4FF680
:1017A000FD7319401143018470470A460021018BE3
:1017B0004FF6F773194011430183704770B5002449
:1017C00000220023058C4FF6EF7635400584028C0D
:1017D0008388048B48F6FF752C404FF6FF452C405C
:1017E0000D884FF6FF7606EA05252C434FF6DF7588
:1017F0002A408D8906EA05152A434D8806EA051513
:101800002A43154DA84202D0144DA8421DD14FF6CF
:101810007F752A40CD894FF6FF7606EA05152A43E3
:101820004FF6BF752A408D8806EA05152A434FF604
:10183000FF352B404FF2FF752B400D8A06EA8505D8
:101840002B434D8A06EA85052B43838004838D68EC
:101850008563028470BD0000000001400004014067
:101860000A460021018B4FF2FF7319404FF6FF73B8
:1018700003EA0223194301837047000070B5002476
:1018800000220023058C4FF6FF6635400584028C4C
:101890008388848B4FF68F752C404FF6FC752C4057
:1018A0000D882C434FF6FF552A408D894FF6FF7661
:1018B00006EA05252A434D8806EA05252A43154DE3
:1018C000A84202D0144DA8421DD14FF2FF752A4004
:1018D000CD894FF6FF7606EA05252A434FF6FF35F8
:1018E0002A408D8806EA05252A434EF6FF752B40CF
:1018F0004DF6FF752B400D8A06EA05152B434D8AE0
:1019000006EA05152B43838084838D68C5630284B2
:1019100070BD000000000140000401400A460021A3
:10192000818B4FF6F7731940114381837047000094
:1019300070B5002200230024058C4EF6FF7635405A
:101940000584038C8488828B48F6FF752A404FF605
:10195000FF452A400D884FF6FF7606EA05252A4303
:101960004DF6FF752B408D8906EA05352B434D88D2
:1019700006EA05352B430A4DA84202D0094DA8427C
:1019800008D14BF6FF752C400D8A4FF6FF7606EA1C
:1019900085152C43848082838D680564038470BD23
:1019A00000000140000401400A460021818B4FF2F3
:1019B000FF7319404FF6FF7303EA02231943818333
:1019C00070474163704781637047C163704701642A
:1019D000704741627047028B4FF6F3731A400283DF
:1019E000028B0A4302837047028B4FF2FF331A4087
:1019F0000283028B4FF6FF7303EA01231A4302832B
:101A00007047828B4FF6F3731A408283828B0A43AE
:101A100082837047828B4FF2FF331A408283828B1E
:101A20004FF6FF7303EA01231A43828370470000D5
:101A300000220288184B98420ED0184B98420BD0C7
:101A4000B0F1804F08D0164B984205D0154B984204
:101A500002D0154B984204D14FF68F731A404B8831
:101A60001A43124B984207D0114B984204D04FF6BC
:101A7000FF431A400B891A4302804B68C3620B88EC
:101A80000385054B984202D0044B984201D18B7AD2
:101A90000386012383827047000001400004014057
:101AA0000004004000080040000C0040001000400E
:101AB0000014004000BFFEE703B401984100009805
:101AC00050EAC12018BF04204A0D18BF40F00100A1
:101AD00040F2FF72B2EB515F08BF40F002000128F4
:101AE00008BF052002B0704770B5C1482DED020B4C
:101AF0002DED0E8B82B0119D25F000449FEDBEDBD5
:101B00009FEDBFEB84423EDBA4F140511098A1F160
:101B10007F6108430FD0BC48844202DC28D1109872
:101B200030B39DED100B02B0BDEC0E8B02B0BDE8E2
:101B3000704000F005BA9DED100B53EC1D2B51ECDD
:101B4000100B01F06DFA9DED100B41EC180B53ECEE
:101B50001E2B51EC100B01F063FA53EC182B01F023
:101B60005FF841EC100B02B0BDEC0E8B02B070BD03
:101B70000120FEF781FB02B0BDEC0E8B02B0BDE888
:101B8000704000F0E9B9A1489FEDA18B844256DA7C
:101B90009DED100BB4F1795F0ADA51EC100BFFF7F1
:101BA0008BFF042808BF00F0E7F99DED100BDAE782
:101BB00053EC102B51EC100B01F032FA41EC190BE5
:101BC00095480621B0EE490AF0EE690A784400F023
:101BD0003BF953EC192B51EC100B01F021FA41ECBD
:101BE0001A0B8E48B0EE490AF0EE690A04217844D7
:101BF00000F02AF953EC192B51EC100B01F010FAFC
:101C000053EC182B01F00CF841EC100B51EC1A0BB3
:101C100053EC102B01F0ACF8CDE900019DED000B69
:101C200053EC102B9DED100B51EC100B01F0F8F95B
:101C30009DED101B53EC112B00F0F2FFD2E09DED57
:101C4000100B51EC100B00F0B3FC53EC182B01F00F
:101C5000E5FA9FED730BCDE9000153EC102B9DEDE0
:101C6000000B51EC100B01F0DBF941EC190B6E4845
:101C70000621B0EE490AF0EE690A784400F0E4F873
:101C800053EC192B51EC100B01F0CAF941EC1B0B72
:101C90006648B0EE490AF0EE690A0421784400F083
:101CA000D3F853EC192B51EC100B01F0B9F953ECAC
:101CB000182B00F0B5FF41EC1C0B51EC190B00F098
:101CC000DBFE41EC180B5A489FED5BABA04222DCD7
:101CD00053EC1C2B51EC1B0B01F04AF8CDE9000131
:101CE0009DED000B51EC180B53EC102B01F098F903
:101CF00053EC182B00F094FF53EC1A2B01F090F9E1
:101D000053EC1D2B01F062FB53EC1E2B01F086FA05
:101D100041EC100B5FE08DED008B002000909DEDFD
:101D2000000B51EC180B53EC102B00F079FF9DEDDC
:101D3000000B41EC1E0B53EC102B51EC100B01F07F
:101D40006FF953EC192B01F069FA53EC1E2B01F0DB
:101D50000FF841EC190B53EC1C2B51EC1B0B01F051
:101D600007F841EC1B0B53EC1A2B51EC190B01F04B
:101D700057F953EC1D2B01F051FA41EC190B53ECC0
:101D80001A2B51EC180B01F04BF953EC1B2B01F003
:101D900047F953EC192B01F019FB9DED000B41ECB9
:101DA000180B53EC1A2B51EC100B01F039F99FED85
:101DB000249B53EC192B01F031FA41EC100B51EC40
:101DC000180B53EC102B01F001FB53EC192B01F015
:101DD00025FA41EC100B002D3FF7C5AE51EC100B6E
:101DE00000F0E0FE41EC100BBDE60000000000003A
:101DF0000000F03F00000000075C143326A6913C71
:101E0000182D4454FB21F93F0000F07F0000E03F13
:101E1000000000000000F03FC81A0000D61A0000C1
:101E2000000000000000E03F1A1A0000281A00001D
:101E30003333EF3F000000000000000000000040CE
:101E4000182D4454FB21E93F70B504462DED028B5B
:101E50004D1E00EBC500B0EE408AF0EE608A90EDBA
:101E6000000B35F0060017D053EC182B51EC100B7B
:101E700001F0D6F841EC100B6D1E04EBC50090ED9F
:101E8000001B51EC100B53EC112B00F0C9FE41EC80
:101E9000100B35F00600E7D1022D36D0042D1CD0F2
:101EA000062D1CBFBDEC028B70BD53EC182B51EC02
:101EB000100B01F0B5F894ED0A1B53EC112B00F058
:101EC000AFFE53EC182B01F0ABF894ED081B53EC6C
:101ED000112B00F0A5FE41EC100B53EC182B51EC2C
:101EE000100B01F09DF894ED061B53EC112B00F044
:101EF00097FE53EC182B01F093F894ED040B53EC80
:101F0000102B00F08DFE41EC100B53EC182B51EC14
:101F1000100B01F085F894ED021B53EC112B00F02F
:101F20007FFE53EC182B01F07BF894ED001B53EC73
:101F3000112B00F075FEBDEC028B41EC100B70BD57
:101F400010B553EC102B51EC100B00F069FE41EC76
:101F5000100B10BD000000009FED050B10B553ECF9
:101F6000102B51EC100B00F003FF41EC100B10BDD7
:101F700000000000000000009FED050B10B553ECC1
:101F8000102B51EC100B01F04BF841EC100B10BD75
:101F9000000000000000001000B587B001211020F3
:101FA000FFF7E4F801210220FFF7E0F801212020EB
:101FB000FFF7DCF84CF2A000059001208DF8180026
:101FC00000208DF81A0001208DF81B0003208DF8E9
:101FD000190005A91B48FEF768FA4CF2A001194840
:101FE000FEF7CEFA7020039001208DF8100000203B
:101FF0008DF8120001208DF8130003208DF81100D8
:1020000003A91148FEF751FA70210F48FEF7B8FAFC
:102010004FF42840019001208DF8080000208DF831
:102020000A0001208DF80B0003208DF8090001A99A
:102030000648FEF73AFA4FF428410448FEF7A0FAA2
:1020400007B000BD0004024000100240001402402E
:1020500010B54FF400612648FEF792FA102125488A
:10206000FEF78EFA00BF4FF480412348FEF788FA4E
:102070004FF400412048FEF783FA00BF00BF4FF441
:1020800000511B48FEF77CFA4FF400411848FEF758
:1020900077FA00BF00BF80211748FEF771FA2021B0
:1020A0001548FEF76DFA00BF00BF20211148FEF76A
:1020B00067FA40210F48FEF763FA00BF002000F0E6
:1020C000B1FC002000F0A0FC002000F0C7FC0020C4
:1020D00000F0B6FC00F0C8FB04200849087100219C
:1020E000064881718160042180F8241010BD000031
:1020F0000014024000100240000402400C000020C6
:1021000010B54FF400612248FEF73CFA1021214837
:10211000FEF738FA00BF4FF400411F48FEF732FACD
:102120004FF480411C48FEF72BFA00BF00BF4FF46C
:1021300000411748FEF726FA4FF400511448FEF705
:102140001FFA00BF00BF20211348FEF71BFA8021B1
:102150001148FEF715FA00BF00BF20210D48FEF719
:1021600011FA40210B48FEF70BFA00BF4FF49660BE
:1021700000F058FC4FF4966000F046FC4FF4966077
:1021800000F06CFC4FF4966000F05AFC10BD0000AB
:1021900000140240001002400004024010B54FF449
:1021A00000612248FEF7EEF910212148FEF7EAF916
:1021B00000BF4FF480411F48FEF7E4F94FF400419F
:1021C0001C48FEF7DDF900BF00BF4FF4005117486F
:1021D000FEF7D8F94FF400411448FEF7D1F900BFDB
:1021E00000BF80211348FEF7CDF920211148FEF7EA
:1021F000C7F900BF00BF40210D48FEF7C3F92021F9
:102200000B48FEF7BDF900BF4FF4966000F00AFCE2
:102210004FF4966000F0F8FB4FF4966000F01EFC5F
:102220004FF4966000F00CFC10BD0000001402405A
:10223000001002400004024010B5002000F0F2FB44
:10224000002000F0E1FB002000F008FC002000F07E
:10225000F7FB10BD10B54FF400612048FEF790F970
:1022600010211F48FEF78CF900BF4FF480411D4834
:10227000FEF786F94FF400411A48FEF781F900BFD6
:1022800000BF4FF400511548FEF77AF94FF40041B2
:102290001248FEF775F900BF00BF80211148FEF714
:1022A0006FF920210F48FEF76BF900BF00BF202116
:1022B0000B48FEF765F940210948FEF761F900BFB8
:1022C000002000F0AFFB002000F09EFB002000F09B
:1022D000C5FB002000F0B4FB10BD0000001402405C
:1022E000001002400004024010B54FF40061214884
:1022F000FEF748F910212048FEF742F900BF4FF4DD
:1023000080411E48FEF73EF94FF400411B48FEF79E
:1023100037F900BF00BF4FF400511648FEF732F9FD
:102320004FF400411348FEF72BF900BF00BF2021F6
:102330001248FEF727F980211048FEF721F900BF67
:1023400000BF20210C48FEF71DF940210A48FEF786
:1023500017F900BF40F26C7000F064FB40F26C7043
:1023600000F052FB002000F079FB002000F068FB39
:1023700010BD0000001402400010024000040240A2
:1023800010B54FF400612148FEF7FAF810212048FB
:10239000FEF7F8F800BF4FF400411E48FEF7F2F8D0
:1023A0004FF480411B48FEF7EBF800BF00BF4FF42D
:1023B00000411648FEF7E6F84FF400511348FEF7C7
:1023C000DFF800BF00BF80211248FEF7DBF82021B4
:1023D0001048FEF7D5F800BF00BF40210C48FEF7BB
:1023E000D1F820210A48FEF7CBF800BF002000F00A
:1023F00019FB002000F008FB40F26C7000F02EFB8F
:1024000040F26C7000F01CFB10BD00000014024094
:1024100000100240000402401E4800F120018278B2
:1024200032B1012A14D0022A1CD0052A2ED125E06F
:102430000A78042A09D005220A70174A126802F5A0
:102440007A7242600122827001E0012282701EE0F5
:10245000114B42681B689A4203D200220A70022282
:10246000827014E0827842B105220A700A4A12682A
:1024700002F57A7242600522827000BF064B426804
:102480001B689A4201D204220A7000E000BF00BF1C
:1024900070470000100000200400002070477047C3
:1024A0007047704710B504466FF00400FEF706FF52
:1024B000E11704EB5171C1F3C701074A11701046CF
:1024C000007800EB4001C1EBC0104FF6FF7101EA4C
:1024D000C0000249088010BD00000020020000205A
:1024E00070B504464FF4077094FBF0F0C6B24FF499
:1024F000077094FBF0F100FB114085B205E04FF44A
:10250000077000F02FF8701EC6B2002EF7D115B17B
:10251000284600F027F870BD0146114A12784A4358
:102520004FF0E0235A6100229A611A46126942F084
:1025300001021A6100BF4FF0E022106900F00102B1
:102540001AB100F48032002AF5D04FF0E02212696F
:1025500022F001024FF0E0231A6100229A617047D5
:10256000000000200146114A12884A434FF0E02340
:102570005A6100229A611A46126942F001021A61F8
:1025800000BF4FF0E022106900F001021AB100F420
:102590008032002AF5D04FF0E022126922F00102C9
:1025A0004FF0E0231A6100229A6170470200002078
:1025B00082B0CDE9000121F0004001909DED000BBB
:1025C00002B051EC100B704700B589B001210846EC
:1025D000FEF7CCFD01210846FEF7E8FD4FF48070C0
:1025E000079002208DF8200000208DF822000320A3
:1025F0008DF8210001208DF8230007A92948FDF757
:1026000054FF012208212748FDF797FFA720ADF8C6
:102610000C000020ADF80E0042F210700490002073
:10262000ADF8140003A92048FFF702FA0020ADF826
:102630000000ADF802000120ADF804000020ADF864
:1026400006000320ADF8080069461748FFF725F893
:10265000012203211448FFF757F801211248FEF721
:10266000FCFF1B208DF8180001208DF819000320B5
:102670008DF81A0001208DF81B0006A8FEF72EFD2C
:1026800019208DF8180001208DF8190002208DF80E
:102690001A0001208DF81B0006A8FEF71FFD09B0E7
:1026A00000BD000000000240000001400C4901F1A3
:1026B00020000C4ACA600C4B0B610C4B4B610C4B5D
:1026C0008B610C4BCB610C4A42600C4B83600C4B12
:1026D000C3600C4B03610C4B83610C4B436170472F
:1026E00010000020192400089D240008A1240008DF
:1026F000A32400089F240008012100089D21000850
:10270000E922000881230008392200085522000828
:10271000B6EE001A20EE011AF0EE410A10EE100A91
:102720000749A1EB600000EE100A60EE801AB7EED8
:10273000081A01EEC01A21EE001AB0EE410A7047E5
:10274000865A375F1CB501212020FEF70FFD4FF49C
:10275000C060009001208DF8040000208DF8060074
:1027600001208DF8070003208DF805006946044814
:10277000FDF79BFE4FF4C0610148FDF701FF1CBD52
:1027800000140240002007E01C4A52F820101C4AA6
:1027900042F82010411CC8B20428F5DB18494968EA
:1027A000491C81B116498968491C61B11449C9683D
:1027B000491C41B11249496829B11149896811B1CF
:1027C0000F49C96819B900210E4A917314E00C49E8
:1027D00091ED010A0B4981ED040A094991ED020AC4
:1027E000084981ED050A064991ED030A054981ED85
:1027F000060A0121034A91737047000000000E0889
:10280000F8000020580000204FF4A060FEF7A2FC62
:10281000A820FFF747FEFFF795FFFFF7BDFB152147
:1028200040F2CF7000F024F8152140F2CF7000F094
:102830007BF82A2140F2CF7000F084F9FFF708FC02
:10284000FFF7C2FEFEF746FBFFF79CFFB7EE000A5C
:10285000044880ED140A04E000F0C6F80420FFF7F5
:102860003FFEF9E75800002000B5FFF71FFF00BD4D
:1028700030B58BB004460D4601210220FEF776FCF0
:1028800001210220FEF782FC0320099002208DF82E
:10289000280000208DF82A0001208DF82B0003204D
:1028A0008DF8290009A91E48FDF7FFFD022200212D
:1028B0001B48FDF742FE022201211948FDF73DFEAB
:1028C0000020ADF82000ADF81A00A8B2ADF818004D
:1028D000079406A91348FFF7ABF86020ADF8040091
:1028E0000020ADF810000120ADF8060001A90D4848
:1028F000FEF7C4FF01A90B48FFF71AF808210948A1
:10290000FFF70CF808210748FFF74EF801210548AA
:10291000FEF794FE01210348FEF79FFE0BB030BD89
:10292000000402400004004030B58BB004460D4660
:1029300001210846FEF71AFC01210220FEF726FCC1
:10294000C020099002208DF8280000208DF82A0070
:1029500001208DF82B0003208DF8290009A91E48BD
:10296000FDF7A3FD022206211B48FDF7E6FD02222A
:1029700007211948FDF7E1FD0020ADF82000ADF872
:102980001A00A8B2ADF81800079406A91348FFF77B
:102990004FF86020ADF804000020ADF810000120D1
:1029A000ADF8060001A90D48FEF7B8FE01A90B48D5
:1029B000FEF704FF08210948FEF7F7FE0821074843
:1029C000FEF74EFF01210548FEF738FE01210348BE
:1029D000FEF743FE0BB030BD000002400004004093
:1029E00010B500F005F810BD10B5FFF7F9FF10BDE8
:1029F00010B5044B0E223B216820FEF7C5FAFEF706
:102A000011F910BD5800002010B50446B4F5FA6F56
:102A100001D340F2CF7421460148FEF7D8FF10BD24
:102A20000004004010B50446B4F5FA6F01D340F23B
:102A3000CF7421460148FEF7C8FF10BD00040040D6
:102A400010B50446B4F5FA6F01D340F2CF742146B5
:102A50000148FEF7B8FF10BD0004004010B5044661
:102A6000B4F5FA6F01D340F2CF7421460148FEF766
:102A7000A8FF10BD0004004000B52DED048B83B00D
:102A800041EC190B00F0D6FB41EC180B18EE100AC4
:102A900018EE901A8DED008B002818BF0120084316
:102AA00020F00040C0F17F6000F1E040C00F14D082
:102AB00019EE101A19EE900A8DED009B002918BF2F
:102AC0000121084320F00040C0F17F6000F1E040A8
:102AD000C00F04BF0120FDF7CFFB51EC180B03B072
:102AE000BDEC048B00BD000070B50925FDF7BAFCF4
:102AF0000020FDF705FC02215820FDF713FC0546D8
:102B0000092D00D070BD092D11D100240CE00B4A15
:102B100052F824100A4A02EB8400FDF77BFC0928D6
:102B200000D003E0601CC4B2042CF0DB00BF012025
:102B3000FDF7E6FBFDF764FC00BFE3E7F8000020CB
:102B400000000E087FB505460C4601210420FEF763
:102B50001DFB0295A0B2ADF804000020ADF8060000
:102B6000ADF80C0001A90E48FEF762FF01221146E4
:102B70000B48FEF7C9FD01210948FEF76EFD1E2036
:102B80008DF8000001208DF8010003208DF802006F
:102B900001208DF803006846FEF7A0FA7FBD000013
:102BA0000008004081F00041704780F0004070470D
:102BB00021F00041704720F00040704721F00042B2
:102BC000A2F16052B2F5801F01F0004328BFD2F19C
:102BD0007F6C0BD95FEA001C43EAC20242EB5070E3
:102BE00018BF704728BF20F001007047B2F5801F62
:102BF000BCBF184670474FEA410C1CF5001F02D2BB
:102C0000084600F043BD70B500F0B4FA000000893A
:102C1000FFF7F6BF4FF00040A0F5800070470000BE
:102C200010B591EA030F48BF83F0004300F1D6834B
:102C3000841A71EB030C05D2121943EB0C03001B31
:102C400061EB0C01DFF824E14FEA1154A4EB135CB3
:102C50001EEA430F18BF9EEA445F73D023EA0E03B7
:102C6000DCF1200E21EA045143F4801332D322FA1E
:102C70000CFE10EB0E0023FA0CFE41EB0E01CCF122
:102C8000200E03FA0EFE10EB0E0051F10001B1F51B
:102C9000801FCCF1200E32D201EB045112FA0EF259
:102CA000BDE8104058BF7047401C38BF5FEA420281
:102CB00018BF7047002814BF20F0010041F1000147
:102CC0004FEA410313F5001F38BF7047A1F1C0411F
:102CD00000F09EBA012A43EB0302ACF1200CDCF1B8
:102CE0001F0E32BF4FF0000E23FA0CF310EB03005F
:102CF00041EB0451B4EB115FD0D0A1EB045101F5CD
:102D0000801149085FEA300001EB04510ED350F105
:102D1000000038BF12FA0EFE08D1BDE81040C9E726
:102D2000401C38BF5FEA4202CAD1C3E7BDE8104089
:102D30004FEA410313F5001F38BF7047A1F1C041AE
:102D400000F066BA9EEA445F08D011EA5E0FBDE863
:102D5000104004BF01F0004100207047BDE8104062
:102D600070B500F007FA00BF64FBBE3E0000E0FF54
:102D70002DE9C04130B4DFF8A0C23CEA111418BFFD
:102D80003CEA131400F0EC8081EA03051CEA1114FC
:102D900044EAD57418BF1CEA131500F0C780A4EBF1
:102DA00005044FF0004545EAC12145EAC32341EA45
:102DB000505143EA525304F17F74994204F50034B0
:102DC0004FEAC0204FEAC22208BF904200F09C8028
:102DD0004FEA13650FF24016765D4FEA134506FB86
:102DE00005F7C7F1807706FB07F74FEAD737A7FB50
:102DF00003687642C8F58038A7FB06CE38BFA8F135
:102E0000010807FB08E64FF0000EA6FB028CE6FB6C
:102E100003CEDCF1000CCEF1004E38BFAEF1010E56
:102E2000A6FB0C584FF000074FF00005E6FB0E879D
:102E3000A1FB08C6A0FB07CE16EB0E0645F1000568
:102E4000E1FB076515F1E04E7EBFA4F580345FEA33
:102E500046066D4116F1800745F100054FEA172738
:102E60004FEA066647EA0567A6F1DE46B6F1805FDF
:102E70004FEA15251FD9384624F0010C05EBC47123
:102E8000BCF1FE6F01EB0C1102D8F0BCBDE8008173
:102E900024425CBF01F5801E9EEAC47F02D4F0BCD0
:102EA000BDE80081244238D4F0BCA1F1C041BDE8A6
:102EB000004100F0ADB94FEAD22242EA43524FEA54
:102EC000D323A7FB02864FEAD02040EA415007FBFC
:102ED00003661EEA0E0F4FEAD12105FB026658BFBA
:102EE000A6EB0056B6EB00564FEA520E4EEAC37EF2
:102EF00018EB0E0E56EB530EBDD518EB02085E41D3
:102F00007F1C55F10005B6E74FF480154FF0000720
:102F10004FF000064FF00008ADE7F0BC4FF00000A6
:102F200001F1C04101F00041BDE8008111EA0C1F30
:102F30000CEA131500D00CE013EA0C1F00F02580FA
:102F40004FF00000F0BC81EA030101F00041BDE850
:102F50000081F0BCBDE8004181EA030100F058B9EE
:102F6000F0BCBDE8004170B500F004F9097EFC3EFC
:102F700000F007B881EA03014FF0000001F00041C2
:102F8000704781EA030100F043B9F0BCBDE800419D
:102F90004FF0000021497047FFFDFBF9F7F5F4F20F
:102FA000F0EEEDEBE9E8E6E4E3E1E0DEDDDBDAD8E4
:102FB000D7D5D4D3D1D0CFCDCCCBCAC8C7C6C5C442
:102FC000C2C1C0BFBEBDBCBBBAB9B8B7B6B5B4B359
:102FD000B2B1B0AFAEADACABAAA9A8A8A7A6A5A444
:102FE000A3A3A2A1A09F9F9E9D9C9C9B9A99999808
:102FF0009797969595949393929191908F8F8E8EAB
:103000008D8C8C8B8B8A8989888887878685858437
:1030100084838382828181800000FF070000F87F23
:10302000DFF848C170B51CEA111E1EBF1CEA13155B
:103030009EEA0C0F95EA0C0F00F06F8081EA030402
:1030400023EA4C134EEAD47E21EA4C1141F480115C
:1030500043F48013AE44A1FB024CA0FB0365AEF128
:103060007F7E361955EB0C05A1FB034C4CF1000398
:10307000A0FB021C16EB0C06654153F1000309424C
:1030800018BF46F0010613F4007F0BD14FEA03315D
:103090004FEA0530340341EA155140EA16506FF00B
:1030A00003020AE04FEAC3214FEAC520F40241EAD5
:1030B000555140EA56506FF0020202EB2E4201EBEE
:1030C000025585EACE710AD05FEA440C18BF24F09D
:1030D000004450F1000041F1000120EAD47040F2B8
:1030E000FE7C624500D270BDA84214BF4FF0804400
:1030F0004FF04044002E08BF0024BEF1806FA8BFEF
:10310000A1F1C041BDE8704080F282804FF0000024
:1031100001F1C04101F0004170479EEA0C0F0CEA3A
:10312000131518BF95EA0C0F06D04FF0000081EA86
:10313000030E0EF0004170BD00F01CF88900013E46
:1031400000F007B800F009B84FEA430C5FEA5C5C96
:1031500008D081EA030100F05BB84FEA410C5FEA56
:103160005C5CF6D14FF00000014970470000FF079A
:103170000000F87F0EF1020E2EF0030E5EF8046BD5
:10318000364205D4012A43EB030515F5001F12D87A
:10319000012841EB010C1CF5001F0CD80ED14FEAA1
:1031A000D17C15F5001F0CEB4C0C0CF1020C08BF88
:1031B0004CEBD37C04E04FF0080C01E04FEAD37CE9
:1031C0000CEB4C0526FA05F606F00706B6F1040CE2
:1031D00006D20EEB860CBDE870404CF0010C604747
:1031E000DFE80CF0090B02024FF000414FF0000045
:1031F000A1F5002170BD19461046012851EB0104CC
:1032000018BFD4F5001484BF002001F0004170BD48
:103210000808A0F500114FEA3101704791EA030F49
:1032200010B581F000413FF503AD83F0004300F09D
:10323000D5B800002DE9F04101F5801CBCF5001F58
:10324000C0F2A9804FEA115C21EA0C510CF1FD0C8F
:1032500041F480115FEA5C0C0CF5C07C01D34000A6
:10326000494130A4890241EA905187028E0E0A0C2E
:10327000A45D04FB04F602FB06F6C6F14046A4FB7F
:103280000662F60D46EA422606FB06F4A4FB01237D
:103290005242C3F1404338BF5B1EA6FB02420024EA
:1032A000E6FB0324D20B42EA4446A6FB0623A1FB1D
:1032B00002E2A3FB07E4E3FB61426442C2F1404E39
:1032C00038BFAEF1010EA6FB04234FF00002E6FB6F
:1032D0000E32A2FB03463400E2FB6264A1FB06E669
:1032E000A4FB07E8E4FB61687642C8F1405838BFA8
:1032F000A8F10108A2FB06E4A3FB08E5E2FB685481
:10330000A1FB05E6A7FB04E8E1FB648618F12005B4
:1033100056F10006A809A8F11B08B10908F03F08FA
:10332000B8F10A0F40EA86601CD901EB0C51BDE8E8
:10333000F08100BFFCF5EEE8E2DDD8D3CFCBC7C308
:10334000C0BDB9B6B4B1AEACA9A7A5A3A19F9D9BC2
:103350009A9896959392908F8D8C8B898887868585
:1033600084838281A0FB006800FB01F208EB420825
:10337000B8EB872807D5341858EB0104D5D5401C85
:1033800051F10001D1E7341A78EB0104CDD4401E8D
:1033900071F10001C9E75FEA4C0C5FEA9C5C0DD15A
:1033A00005D34FF0000001F00041BDE8F081BDE819
:1033B000F04170B5FFF7DEFE6DDBFFBEBDE8F0410A
:1033C0004FF00000004970470000F87F10B591EA07
:1033D000030F48BF83F000433FF52AAC841A71EB1A
:1033E000030C07D212198CF0004C43EB0C03001BAA
:1033F00061EB0C01DFF8A4E14FEA1154A4EB135C7C
:103400001EEA430F18BF9EEA445F00F0B08023EA33
:103410006E03524221EA0451C3EB6E0338BF5B1EB8
:10342000DCF1200E25D322FA0CFE10EB0E0043FA3D
:103430000CFE41EB0E01CCF1200E03FA0EFE10EB58
:103440000E0051F10001CCF1200E29D412FA0EF237
:1034500001EB0451BDE8104058BF7047401C1CBF31
:10346000B2F1004F704700280CBF491C20F001004A
:10347000704712EB020E43EB030218BF4FF0010E30
:103480004EEA4202ACF1200CDCF11E0E54D943FA94
:103490000CFE10EB0E0051F1FF31CCF11E0ED5D514
:1034A0000EF1010E12FA0EFE404141EB010101EB5B
:1034B000445C5FEA5C5C10D910EBDE7001EB0451F8
:1034C00038BFBEF1004FBDE8104018BF704700285C
:1034D0000CBF491C20F00100704730D24FEAD42CB9
:1034E00011F5001124F400641BD0B1FA81F20B3AFB
:1034F000A41AA41ED2F12003914030FA03F3194319
:10350000904001EBCC71002C01EB0451BDE8104060
:10351000A8BF704701F1C0414FF0000001F0004129
:103520007047B0FA80F310FA03F100D110BDE41A2D
:10353000173C4805C90AE4E701EB045110BD4910E6
:1035400001EB0451BDE810404FEA300002E04FF0BB
:10355000000170474A0008BF0042F8D0B2F5001FD2
:1035600028BF704701F000414FF0000070479EEA0D
:10357000445F07D011EA5E0FBDE8104004BF002190
:1035800000207047BDE8104070B5FFF7F3FD00BFA5
:1035900040DFF63E83F00041104670470000E0FF38
:1035A00043004FEAD30C4FEA3C0C43401FBF400797
:1035B0000CF1605113F0FE4F70471CF0006F03D107
:1035C00000200CF0004170470CF0004343EA5070BB
:1035D00010B540EACC0000F00EF800BF00000092E9
:1035E0004FEA0001FFF714BE4FF000414FF000001A
:1035F000A1F5002170470EF1020E2EF0030E5EF8C9
:10360000044B244204D44FEA4102B2F17F4F11D857
:103610004FEA4003B3F17F4F0CD80ED14FEAD07C74
:10362000B2F17F4F0CEB4C0C0CF1020C08BF4CEBD1
:10363000D17C04E04FF0080C01E04FEAD17C0CEBA8
:103640004C0324FA03F404F00704B4F1040C06D28A
:103650000EEB840CBDE810404CF0010C6047DFE835
:103660000CF0070802024FF00040A0F5800010BDEA
:103670000846420018BFD2F1807288BF00F00040B7
:1036800010BD4FF04070E1EE100A7047FF2141EA93
:10369000D050C00570470000555555555555C53F8C
:1036A0007D6FEB0312D6D4BF5544880E55C1C93F78
:1036B0003B8F68B52882A4BF88B20175E0EF493F0F
:1036C00009F7FD0DE13D023F4B2D8A1C273A03C04F
:1036D000C88A599CE52A004059018D1B6C06E6BF3B
:1036E00082922EB1C5B8B33F083700080000002011
:1036F0000C000000C4010008143700080C00002072
:103700005C070000E001000800000000000000006D
:0437100000000000B5
:040000050800018965
:00000001FF
